:020000041000EA
:1000000000B5324B212058609868022188439860DF
:10001000D860186158612E4B002199600221596106
:100020000121F02299502B49196001219960352056
:1000300000F044F80222904214D00621196600F024
:1000400034F8196E01211966002018661A6600F04E
:100050002CF8196E196E196E052000F02FF8012189
:100060000842F9D1002199601B49196000215960AB
:100070001A491B48016001219960EB211966A021F2
:10008000196600F012F800219960164914480160C1
:100090000121996001BC002800D000471248134993
:1000A000086003C880F30888084703B5996A0420EC
:1000B0000142FBD001200142F8D103BD02B5186610
:1000C0001866FFF7F2FF186E186E02BD00000240BE
:1000D000000000180000070000035F00212200005C
:1000E000F4000018222000A00001001008ED00E03C
:1000F00000000000000000000000000074B24E7A12
:1001000000200420F7010010C3010010C5010010F9
:10011000C1010010C1010010C1010010C101001097
:10012000C1010010C1010010C1010010C701001081
:10013000C1010010C1010010C9010010CB01001065
:10014000CD010010CD010010CD010010CD01001037
:10015000CD010010CD010010CD010010CD01001027
:10016000CD010010CD010010CD010010CD01001017
:10017000CD010010CD010010CD010010CD01001007
:10018000CD010010CD010010CD010010CD010010F7
:10019000CD010010CD010010CD010010CD010010E7
:1001A000CD010010CD010010CD010010CD010010D7
:1001B000CD010010CD010010CD010010CD010010C7
:1001C00000BE00BE00BE00BE00BE00BEEFF3058054
:1001D000103800BEF2EB8871087700102C77001001
:1001E0003402001090A31AE700201F49086006C8D7
:1001F00081F3088810471D48006800282FD10DA4FE
:100200000ECC002902D000F012F8F9E71849194A7B
:10021000002000E001C19142FCD1174988471749ED
:1002200088471749884700BEFDE701C901C29A42C5
:10023000FBD370472C770010C0000020BC4B00207F
:1002400028C20010000004200000042028C2001072
:10025000001004200010042000000000704709482E
:1002600003F08AF90047000008ED00E0000000D02C
:10027000C04B00209C4F0020DD4B0010CD0B001028
:10028000D14C00105756000006005250ABB36053DB
:100290007076001006005250861C03028076001013
:1002A000060052505422A29D947600100500525030
:1002B000DE65F46828C20010F8B5C0460448054B56
:1002C00010B5834203D0044B002B00D0984710BDDB
:1002D000BC4B0020BC4B0020000000000648074932
:1002E000091A8B10C90FC91810B5491003D0044B57
:1002F000002B00D0984710BDBC4B0020BC4B002009
:100300000000000010B5074C2378002B09D1FFF73F
:10031000D5FF054B002B02D0044800E000BF0123AD
:10032000237010BDE84E002000000000687000102F
:10033000054B10B5002B03D00449054800E000BF71
:10034000FFF7CCFF10BDC04600000000EC4E0020BF
:1003500068700010F0B51F000D4B85B000933B0096
:10036000160004000D0000F0FAFF0A9A4300DB0FAC
:100370000020934201D105B0F0BD03920293220008
:100380002B0000960197034806F08AFC0120F2E753
:100390001514001068700010F0B5CE46002400B5AA
:1003A000AB4DAC4F84B02B002200200029000097F9
:1003B00000F0D5FF4000C30F002800DBD0E0A64CC2
:1003C000A64D22002B00A648A649009700F0C7FFC3
:1003D0004000C60F002800DAD1E00024A24D220020
:1003E0002B000020A149009700F0B9FF4000C30F87
:1003F0009946002800DACEE0002400258023002260
:100400001B0620002900009700F0A9FF4000C30F41
:10041000002800DBCAE02B00220020002900009702
:1004200000F09DFF4000C30F002800DB98E0802310
:1004300000221B0619001000009700F090FF4000FA
:10044000C30F002800DBBFE080212B00220000202A
:100450000097090600F083FF4000C30F002800DB6F
:10046000C0E0002220002900814B009700F077FFB8
:100470004000C60F002800DAC0E0802100220020E2
:100480007B4B0097090600F06AFF400000D5C3E0EF
:1004900022002B0000207649009700F060FF40000A
:1004A00000D5C7E00023009380230022002070497C
:1004B0001B06FFF74FFF00285CD1009000220020B0
:1004C0006C4B6349FFF746FF002853D10090002290
:1004D00000205F4B6749FFF73DFF00284AD100220B
:1004E000644B009019001000FFF734FF002841D141
:1004F000009000220020564B5F49FFF72BFF002899
:1005000038D100900022002000215B4BFFF722FF32
:1005100000282FD100900022002300205749FFF728
:1005200019FF002826D10090002200200021534B03
:10053000FFF710FF00281DD1012400224E4B1000B0
:1005400019000094FFF706FF002813D100224B4B3F
:10055000100019000094FFF7FDFE431E98410AE0C9
:100560000122029303922B0022000094019544483B
:1005700006F096FB012004B080BCB946F0BD002314
:1005800003930133029300940195354A354B3C485F
:1005900006F086FBEEE7012300220293009401950A
:1005A000324B0396364806F07BFBE3E701220293C9
:1005B0008023039200221B06009201933048220000
:1005C0002B0006F06DFBD5E7802401220293002367
:1005D000240600930194039229481A00230006F090
:1005E0005FFBC7E7012202938023039200940195E9
:1005F00000221B06224806F053FBBBE74B46039341
:100600000123002202931A4B1D48009201932200FD
:100610002B0006F045FBADE7012302930023144CA9
:10062000002200930194802303961B06144806F0D1
:1006300037FB9FE70023039301330022029300233B
:100640000F48009201930022094B06F029FB91E725
:100650000000F03F15140010D044D8F074EB874030
:1006600054E3A59B444A9340003085C000C05EC05F
:100670000000F0BF0000F87F0000F07F0000F0FFF6
:1006800068700010F0B54646D6464F46C0B584B0F7
:100690001F0004000D00160000F0F8FE431E9841F4
:1006A0000C9B8046984222D13B003200200029005A
:1006B00000F0FCFE431E9841002381469A464045C7
:1006C00006D0504604B0E0BCBA46B146A846F0BDDC
:1006D00032003B002000290000F0EDFE0028F0D1A0
:1006E00001234A465340039307484B4602E00393D5
:1006F00043460648029322002B000096019706F01D
:10070000CFFA01239A46DCE7D4700010A8700010DD
:10071000F0B54646D6464F46C0B584B01F0004002B
:100720000D00160000F0ACFE431E98410C9B804665
:10073000984222D13B0032002000290000F0AEFE9A
:10074000431E9841002381469A46404506D05046B4
:1007500004B0E0BCBA46B146A846F0BD32003B004A
:100760002000290000F0A7FE0028F0D101234A460E
:100770005340039307484B4602E003934346064821
:10078000029322002B000096019706F089FA0123BC
:100790009A46DCE72C71001000710010F0B5DE46BF
:1007A00057464E464546E0B51F00354B87B09B4641
:1007B00000933B000D001600040000F0D0FD314B0B
:1007C00080469A4622003900009330002B0000F04A
:1007D000C6FD5B46814622003900009330002B00A5
:1007E00000F0BDFD53463200009320003B0029007D
:1007F00000F0B5FDC84536D1109B01331CD0109BCD
:1008000001215A425A4143465B00DB0F9C46434656
:100810009B00DB0F944512D18B4210D14B465B00FD
:10082000DB0F9C464B469B00DB0F944502D100201A
:100830008B4211D0144803E000210022E3E7134863
:10084000039363460492029322002B0000960197C3
:10085000059106F025FA012007B0F0BCBB46B24670
:10086000A946A046F0BD22002B00049405950296EF
:10087000039700960197064806F012FAEBE7C04688
:100880001514001005140010E87100109471001088
:1008900058710010F0B5CE464746002480B5614D32
:1008A000614B87B0994622002900009320002B005D
:1008B00000F055FD5D4B060098462200290000938C
:1008C00020002B0000F04BFD4B46070022002900C2
:1008D000009320002B0000F042FD434622000093CD
:1008E00020002B00290000F03AFDBE422ED17300FB
:1008F000DD0F002B1BDAB600F10F002E19DADC0F2A
:10090000F50F002B01DA002E2CDB01210022454BD4
:10091000474800920193059104910395029406F0D3
:10092000BFF9012007B0C0BCB946B046F0BDB10068
:10093000C90F012400223B4B0594009201930494BB
:10094000039102953B4806F0ABF9EAE722002B0041
:10095000049405950294039500940195364806F099
:100960009FF9DEE7354A364B364837490094FFF7A2
:1009700015FF0028D5D101256D42324A324B2F4850
:100980002F490095FFF70AFF0028CAD10022002056
:100990002E4B2F490094FFF701FF0028C1D1002200
:1009A00000202B4B29490095FFF7F8FE0028B8D10D
:1009B00000220020274B26490095FFF7EFFE002874
:1009C000AFD1012400220020214B22490094FFF7DF
:1009D000E5FE0028A5D18023009000220020002100
:1009E0001B06FFF7DBFE00289BD1002200201A4BDC
:1009F0000C490094FFF7D2FE002892D1002200207B
:100A0000084B15490094FFF7C9FE002800D088E77D
:100A10000022114B100019000094FFF7BFFE431E87
:100A200098417FE70000F03F1514001005140010F6
:100A3000E87100109471001058710010D044D8F083
:100A400074EB874054E3A59B444A9340003085C033
:100A500000C05EC0003085400000F87F002300B574
:100A600083B0009300220A4B00200A49FFF70AFED8
:100A700003000120002B01D003B000BD0022009331
:100A8000044B10001900FFF7FDFD431E9841F3E7EA
:100A90000000F03F0000F87F002300B583B0009312
:100AA00000220A4B00200A49FFF732FE0300012012
:100AB000002B01D003B000BD00220093044B1000B6
:100AC0001900FFF725FE431E9841F3E70000F03FB1
:100AD0000000F87FF0B5C6460024002500B52200CE
:100AE00082B02B002000290000F0E5FC002831D165
:100AF0000026314F32003B000020304900F0DBFC83
:100B00008046002830D100262D4F22002B003000D7
:100B1000390000F0D0FC012836D132003B00200023
:100B2000290000F0C8FC012826D132003B0030002B
:100B3000390000F0C0FC012836D132003B00002013
:100B4000204900F0B8FC012826D1404602B080BC04
:100B5000B846F0BD22002B00009401951A4806F01B
:100B60009FF801239846F0E7002200960197134B67
:100B7000154806F095F8F4E722002B00009601973F
:100B8000114806F08DF8ECE732003B000094019527
:100B90000D4806F085F8E4E7002200960197094B1E
:100BA000094806F07DF8DCE732003B00009601972B
:100BB000054806F075F8D4E70000F07F0000F0FF6C
:100BC0000000F87F0000F8FF3C720010F0B5DE4630
:100BD00057464E464546E0B5A1B002F0FFFCEE494F
:100BE000EE4B086849681A685B6800F049FC010030
:100BF0004B1E9941EA4B0026180006F051F80323DA
:100C00009A46E84BE84F9946032300249846E64D60
:100C10002B0022003900300000F032FC431E9841C6
:100C20000094019532003B000290484606F038F8E7
:100C300020002900DD4B002200F0B0FB01235B42C5
:100C40009C46E044434604000D00002BE0D13000F8
:100C50003900D64B002200F0A1FB01235B429C46E9
:100C6000E244534606000F00002BCDD103239A46E1
:100C7000CF4B00269946CC4F032300249846CA4DFB
:100C80002B0022003900300000F010FC431E984178
:100C90000094019532003B000290484606F000F8AF
:100CA00020002900C14B002200F078FB01235B42A9
:100CB0009C46E044434604000D00002BE0D1300088
:100CC0003900BA4B002200F069FB01235B429C46CD
:100CD000E244534606000F00002BCDD10323994672
:100CE0000023002400251B93B24B9B46B24B10936C
:100CF000B24B1193B24B1293B24B1793B24B9A462D
:100D0000B24B1893B24B1993B24B1A93B24B139345
:100D1000B24B1493B24B1593B24B169322002B0097
:100D2000584605F0BDFF2000290000F06FFC0600CA
:100D30000F002000290006F08FF932003B001098C8
:100D400005F0AEFF2000290000F076FC06000F0041
:100D50002000290006F000F932003B0011980E96A1
:100D60000F9705F09DFF2000290000F07BFC060096
:100D70000F002000290006F057F932003B001298BE
:100D80000A960B9705F08CFF2000290000F0D0FC9C
:100D900006000F002000290006F0B6F832003B00E4
:100DA000179805F07DFF00228F4B2000290000F0EE
:100DB000EDFC06000F0000228B4B2000290006F0FE
:100DC0000BF932003B00504605F06AFF22002B0071
:100DD0000020854900F0DAFC06000F0022002B00FD
:100DE0000020814906F0F8F832003B00504605F03B
:100DF00057FF2000290000F0D5FC06000F0020005E
:100E0000290006F0B9F832003B00189805F048FFB9
:100E10002000290000F0D2FC06000F00200029006D
:100E200006F082F832003B00199805F039FF2200E5
:100E30002B002000290001F0D7F806000F00220047
:100E40002B002000290006F0DFF832003B001A9842
:100E500005F026FF2000290000F086FF06000F00A5
:100E60002000290006F0C8F83B003200139805F076
:100E700017FF2900200000F049FB290002008046EE
:100E8000200000F04BFF06000F0042462000290022
:100E900006F05AF832003B00149805F001FF0022DA
:100EA000524B2000290001F02DFA06000F0000220D
:100EB0004E4B2000290006F07FF832003B001598C9
:100EC00005F0EEFE1CA90A00200029001EAB00F070
:100ED000E5FB1C9E1D9F1E991F9A3B000C910D92D5
:100EE000009101921698320005F0DAFE0A9A0B9BE7
:100EF0003000390000F0BCFA002807D00E9A0F9B92
:100F00000C980D9900F0B4FA002804D1384805F087
:100F1000D5FD01231B9320002900244B002200F063
:100F20003DFA01235B429C46E1444B4604000D0020
:100F3000002B00D0F2E6202664462E4D200000F063
:100F4000CDFA02000B002800210005F0A9FE2000C8
:100F500000F0C4FA013E200006F01EF86400002EE6
:100F6000ECD101242036200000F0B8FA02000B007A
:100F70002800210005F094FE200000F0AFFA013EA9
:100F8000200006F009F86400002EECD101240025B1
:100F9000194F403632E0C046B0460020A846002037
:100FA00054710010787200100000F0BF0000F03F94
:100FB0008872001098720010A4720010B4720010B1
:100FC000C4720010D4720010E4720010F4720010A9
:100FD00004730010107300102073001030730010A1
:100FE00040730010507300100000244000000840BF
:100FF00068730010787300108473001020002900BB
:1010000000F0C0FA22002B0000900191380005F09A
:1010100047FE2000290000F0B5FA013E200029001B
:1010200005F0E2FF24196D41002EE7D1012464424E
:10103000E51740362000290000F0A4FA22002B001A
:1010400000900191380005F02BFE2000290000F0EF
:1010500099FA013E2000290005F0C6FF24196D41D0
:10106000002EE7D120250124002200230021A848DA
:1010700005F016FEA74E200000F02CFA02000B002F
:101080003000210005F00CFE200000F023FA013DA5
:10109000200005F0C1FF6400002DECD130000124D8
:1010A0004026002500220023002105F0F9FD9A4F7B
:1010B0002000290000F066FA22002B000090019128
:1010C000380005F0EDFD2000290000F05BFA013E3C
:1010D0002000290005F088FF24196D41002EE7D17A
:1010E000C42500248D4F43362D060AE02000290038
:1010F00000228B4B00F079F9013E04000D00002E18
:101100001BD02000290000F049FA22000090019134
:101110002B00380005F0C4FD002220002900814B7F
:1011200000F0AEF90028E1D12000290000F036FAE5
:101130002000290005F088FFD8E7882500244336E1
:10114000ED050AE0200029000022754B00F04DF962
:10115000013E04000D00002E1BD02000290000F0ED
:101160001DFA2200009001912B00380005F098FD37
:101170000022200029006C4B00F090F90028E1D1FA
:101180002000290000F00AFA2000290005F05CFF89
:10119000D8E70024654D664F42362900200000F054
:1011A000B5F922002B000090380005F079FD2900E8
:1011B000200000F0ABF92900200005F03DFF2000E1
:1011C00029000022564B00F010F9013E04000D00EA
:1011D000002EE2D10024574D42362900200000F0B5
:1011E00095F922002B000090380005F059FD2900E8
:1011F000200000F08BF92900200005F01DFF2000E1
:1012000029000022464B00F0F0F8013E04000D00DA
:10121000002EE2D10024484D484F0536A820220078
:101220002B004749C00500F0C2F822002B000890AF
:1012300009910020404900F0BAF8424A069007910F
:10124000414B2000290000F0A0F83E4A049005918F
:101250003D4B2000290000F0A1F822002B00029055
:1012600003912000290000F0C0F822002B0000901C
:101270000191380005F014FD22002B002000290008
:1012800000F0B3F822002B002000290005F08CFEAE
:1012900022002B000020284900F089F822002B00B2
:1012A0000020254905F060FE80232000290000224F
:1012B000DB0500F073F8013E04000D00002EADD1F7
:1012C0001B9B002B03D1FFF767F800280BD01F48AA
:1012D00005F0F4FB0124200021B0F0BCBB46B2466F
:1012E000A946A046F0BDFFF7D5FA0028EFD1FFF7D9
:1012F000F1FB0028EBD1FFF7B1FB0028E7D1FFF7A6
:10130000CBFB041EE3D1124805F0D8FBE3E7C0464F
:10131000907300109C730010A8730010B473001039
:101320000000E03F0000E0C30000E0430000F0C325
:10133000C47300100000F0430000F03FD4730010AD
:10134000346F9D41D8822DD8822DD83F047400106F
:101350000C74001000B59047EFF3008000BD10B58D
:10136000029CA047EFF3008010BDC04644464D46A6
:1013700056465F46F0B47047F0BCA046A946B24658
:10138000BB46704748404140484018B41B4B5B681F
:10139000FC46019308BD04DF3B27001018B4174B2F
:1013A0001B68FC46019308BD00DF452700109446EA
:1013B000134A926F920809D2624618B40F4BDB6849
:1013C000FC46019308BD0CDFFD2900100C4AF0B566
:1013D000146E556E576F166F6246FFF7EEFF084AA0
:1013E0001466556657671667F0BD18B4034B9B68C3
:1013F000FC46019308BD08DFA1280010E84C00203E
:10140000000000D0FFB550404240504059404B4092
:10141000594000E0FFB5154F4C00640D03D0BC42AD
:1014200004D10C0314D80020090D09055C00640DDB
:1014300003D0BC4204D11C030AD800221B0D1B059B
:1014400001264B4009D44B4003D58B4200D1824248
:10145000FFBD9942FCD19042FFBD0B43DB18034313
:101460001343F5D0C9434918FFBD0000FF07000032
:1014700000B5FFF7CFFF01D0002000BD012000BD67
:1014800000B5FFF7C7FF804100BDC04600B5FFF7BC
:10149000C1FF01D9002000BD012000BD00B5FFF74C
:1014A000B1FF01D9002000BD012000BD00B5FFF74C
:1014B000A9FF804100BD012040054A00121804D850
:1014C0005A00121801D800207047012070470020F0
:1014D000704700000021002805D17047C11748401F
:1014E000401AFAD0C90713B5064B1B6898470CBCC5
:1014F000441CA2401005120B0349091B090519439E
:10150000114310BD784F00201F04000010B54C009F
:10151000620D8023D218DB00D21A5B057E2A10DD13
:101520009E3A13DACC170903490819435242D140B5
:10153000640001341532202A05DAD04008436043A4
:1015400010BD002010BD0846604310BDC80FC01874
:10155000013810BD18B4044B5B6AFC46019308BD0A
:1015600024DFD92D00100000E84C002018B4044BF3
:101570001B6EFC46019308BD60DF8B2E001000003F
:10158000E84C002018B4044BDB6DFC46019308BD09
:101590005CDF892E00100000E84C0020C94211D306
:1015A00000B549004908002200F024F8002904D4BD
:1015B000002240428A41114600BD802109060020D8
:1015C00000BD000018B4044BDB6EFC46019308BD5F
:1015D0006CDFE72D00100000E84C002018B4044B2D
:1015E0005B6FFC46019308BD74DF012E0010000004
:1015F000E84C002018B4044B9B6FFC46019308BDD7
:1016000078DF032E00100000E84C002018B4044BD3
:101610009B69FC46019308BD18DFC92B0010000030
:10162000E84C0020024A034B00B501F065F800BD0C
:10163000182D4454FB2119408A0002D3920D092A27
:1016400008DA18B4064BDB6BFC46019308BD3CDF9F
:10165000DF2F001000B5FFF7E5FF04BC9646F0E76A
:10166000E84C00208A0002D3920D092A08DA18B447
:10167000064B1B6CFC46019308BD40DFEF2F0010AA
:1016800000B5FFF7CFFF04BC9646F0E7E84C00201A
:1016900000B5FFF7C7FF04BC964605E03CB58A00DD
:1016A00002D3920D092AF3DA00F004F830BC03C427
:1016B0000CC530BD18B4184B9B6CFC46019308BD9B
:1016C00048DFC71600101CB413231B78012B01D16F
:1016D000124B00E0124B104A936402930CBDF0B51C
:1016E000FFF744FE00F00BF8844600F00CF803B45A
:1016F000604600F00CF80CBCFFF73EFEF0BD01B5F3
:101700000848019001BD03B40748019001BD03B42E
:101710000648019001BD0000E84C00200330001095
:10172000DF160010553800009D380000D938000041
:101730008A0002D3920D092A1DDA9446114A926F4B
:10174000920809D2624618B40F4B5B6CFC460193B9
:1017500008BD44DFBF2F00100A4AF0B5146E556E65
:10176000576F166F6246FFF7EEFF064A146655661E
:1017700057671667F0BD00B5FFF754FF04BC9646E7
:10178000DBE70000000000D0E84C002018B4044B58
:101790009B6DFC46019308BD58DFFD300010000032
:1017A000E84C002018B4044BDB6CFC46019308BDE8
:1017B0004CDF113300100000E84C002018B4044B3B
:1017C0001B6DFC46019308BD50DFAD3300100000D7
:1017D000E84C0020132370B51D78012D15D010DDC5
:1017E0001D4801F0D1FE1D4C01008022200005F0B3
:1017F00083F8022D2DD01A4801F0BEFE194B186057
:1018000070BD194B154CA364F5E7174B134C2360BF
:101810006360A360E36023616361A361E3612362AA
:101820006362A362E36223636363A363E36323648A
:101830006364A364E36423656365A365E36523666A
:101840006366A366E36623676367A367E367A364CE
:10185000D1E7054BA364CEE753440000E84C0020D9
:101860004C330000784F002009270010F0B54646A1
:10187000D6464F461D00894BC0B598464E00760DA2
:10188000140088B0B044002E2FD0854B9E422CD03F
:101890000022844FBF1B3B0580185941FFF78EFF84
:1018A000814A824BFFF783FD0022814B009001911A
:1018B000FFF7FCFD002826D14346002B31D0002243
:1018C000200029007B4BFFF7E9FD002832D10022E0
:1018D00020002900784BFFF7D9FD002835D043467A
:1018E0000020002B2ADB002129E0FFF767FF6E4A6A
:1018F0006E4BFFF75CFD00226D4B00900191FFF7EE
:10190000D5FD0028DBD0009801996C4B0022FFF731
:101910003CFD6B4B009001919846B0444346002B30
:10192000CDD10098019922002B00FFF75EFD00F059
:10193000FDFA04E043460020002BD4DB614908B0E7
:10194000E0BCBA46B146A846F0BD2000290000F030
:1019500037FA0B00020006000F0020002900FFF7F5
:1019600014FD1A220290039100F0D8F900F028FA31
:101970004B0004000D005B0D09D0494A934206D08C
:1019800000241A2B00DC7FE04F4D24184D41390014
:101990003000FFF7BBFD82464046FFF79FFD220067
:1019A0002B0006000F00FFF720FD0490059100F0CA
:1019B00007FA02000B000498059906920793FFF7B7
:1019C000E4FC22002B000490059102980399FFF794
:1019D000DCFC32003B00FFF708FD049A059BFFF793
:1019E000DDFC049005915046FFF778FD009A019BBD
:1019F000FFF7FBFC04000D0000F0E2F902000B0011
:101A000006000F0020002900FFF7BFFC049A059B89
:101A1000FFF7C4FC009A019B04000D000298039993
:101A2000FFF7E3FC2B002200FFF7B8FC00F07EFA82
:101A30004B005B0D04000D009946002B00D17EE7A2
:101A4000174B994500D17AE7514643464B430698D8
:101A500007999A46FFF75AFD390082443000FFF794
:101A600055FD4B465044C318002B09DD174A9342DD
:101A70000DDD144AEB0FDB071A43002011005EE76F
:101A8000EB0F0020D9075AE7C90FCD077FE70022E7
:101A9000030512196B411000190050E701FCFFFF0C
:101AA000FF070000FF030000EF39FAFE422EE63F79
:101AB0000000E03F0000B0400000B0C00000F03F78
:101AC00002FCFFFF0000F07F000060FEFE07000048
:101AD000F0B54646D6464F460400C0B50D00160088
:101AE000012A56D0D70FBF187F10012F47D00323EC
:101AF000D21713409B199B109846012B35D0072312
:101B000013409B19DB109946012B27D00F2313405C
:101B10009B191B119A46012B15D03300203B1F2B1C
:101B200006D90022FFF7D4FF02000B00FFF75DFC8F
:101B30000B000200FFF759FC5346DB0703D52200D8
:101B40002B00FFF752FC0B000200FFF74EFC4B4648
:101B5000DB0703D522002B00FFF747FC0B00020038
:101B6000FFF743FC4346DB0718D402000B00FFF7E6
:101B70003CFCFF0703D522002B00FFF736FC0200D8
:101B80000B00FFF732FCF60703D522002B00FFF70E
:101B90002CFCE0BCBA46B146A846F0BD22002B00A2
:101BA000FFF723FCE1E7C046F0B5C64600B582B0BA
:101BB00016001F0004000D0000900191002927DA93
:101BC0007B004F4A5B0D9B181CD43422D31A19D4C6
:101BD0001800203845D4353A8446824001214942D4
:101BE00099403000884301003800904302000A43C6
:101BF00008D1342B49D06246002A3CDB3B00D3405D
:101C0000DB0742D480231B06EB181D0000940195CE
:101C100030003900FFF77AFC2B0D80460200002BC4
:101C200042D038498B423FD02903090B21433BD195
:101C3000354988425CDB802109018A4256DA304905
:101C40008C4663445A43314BD318002B52DD304944
:101C500000208B4251DC110500222E4B8018594187
:101C60001EE001222021524284461000C91AC840B9
:101C70009A400243B2E720223900D21A91400A006A
:101C80003100D9400B001343BAE780231B06200024
:101C9000E91832003B008024FFF786FF240609196B
:101CA00002B080BCB846F0BD4346002B14D02033B0
:101CB000402B14D84346002B09DA009A019B0020E0
:101CC0001449FFF774FB4346009001915A42009873
:101CD0000199FFF7FDFEE3E700200E49E0E732003F
:101CE000009801993B00FFF7C1FDD9E7054AA6E737
:101CF0000A00A0E700200021D2E70749D0E7C0464C
:101D000001FCFFFFFF07000000F8FFFFFF030000DA
:101D1000FE0700000000F03F0000F07F4B0070B5B0
:101D20005B0D04000D00002B0ED00C4EB3420BD007
:101D3000D318002B09DD0A498B420ADD094AEB0F53
:101D4000DB071A430020110070BDCB0F0020D9071C
:101D5000FAE70020110500196941F5E7FF070000C7
:101D6000FE0700000000F07F4B00144A5B0D70B5C9
:101D700004000D009B181CD43422D31A002B11DD53
:101D80001A00203A0FD401269640310001229A40D1
:101D900010002600002342428B412C0016401C40BC
:101DA0003000210070BD20220126D21AD640310019
:101DB000ECE7CB0F0020D907F4E7C04601FCFFFF9A
:101DC000244A4B0094465B0D6344F0B504000D00BB
:101DD0005A1C21DB5A1C35D0342B1CDA3326F61A58
:101DE0003700203F1CD40121B9400B000121B14034
:101DF0000A0012196B41002F1EDB0224BC40210097
:101E00000224B44020001600002544428D412640A3
:101E10002B4030001900F0BDCB0F0020D907FAE7A6
:101E200020210120891BC8400121B14003000A0084
:101E300012196B41002FE0DA20240225A41BE54093
:101E40002900DDE7CB0F044ADB071A43002011000D
:101E5000E1E7C04601FCFFFF0000F03FF0B5C646D9
:101E60000B000D0049000200040000B5490D2FD001
:101E70001C48091826D43426711A88464646100094
:101E80001900002E1BDD4746203F25D40126BE4009
:101E9000310001274646B7403800002B06DA0124FE
:101EA0006442E517A4185D4124184D4100234242C5
:101EB0008B4126002C0016401C403000210080BCC5
:101EC000B846F0BD00200021002BF8DA0649F6E7FD
:101ED000DB0F0020D907F2E72027BF1B0126FE40B9
:101EE0003100D6E701FCFFFF0000F0BF094A10B542
:101EF0000B0D93420AD0084A934204D00022074BAC
:101F0000FFF744FC10BD06480649FBE704480649B4
:101F1000F8E7C046FF070000FF0F00000000F03F99
:101F2000182D4454FB21F9BFFB21F93F264B70B516
:101F30000A0D04000D009A423AD00022234BFFF70D
:101F4000A5FA002834D1002220002900204BFFF7F9
:101F5000A5FA002802D000201E4970BD20002900EB
:101F6000FFF72EFFFFF7D2FA0600FFF7B7FA0200DD
:101F70000B0020002900FFF708FA174B174AFFF75C
:101F800034FAFFF70FFC4B0004000D005B0DE4D0AA
:101F9000134A9342E1D0F318002B0CDD114A93420F
:101FA0000DDDCB0F0B4ADB071A4300201100D4E7ED
:101FB00000200021D1E7CB0F0020D907CDE700207A
:101FC000310500196941C8E7FF0F00000000B0C0EB
:101FD0000000B0400000F07F422EE63FEF39FAFEED
:101FE000FF070000FE070000F0B5D6464F46464604
:101FF000C0B516001F000022BA4B04000D00FFF709
:1020000037FA22002B0000283BD13B0D99465B0597
:102010005A0D90460022002B3BD020002900B24BE5
:10202000FFF726FA002836D0B04B984530D09945B6
:102030006AD0AF4B99456AD0AB494346AD4A9A182E
:1020400000D5F2E034239B1A9C46002B11DD1800CA
:10205000203800D503E1012252428240012063462C
:10206000404298403300834338009043034300D0FC
:10207000DBE032003B0020002900FFF795FD020065
:102080000B0010001900E0BCBA46B146A846F0BDEE
:102090000022944BF5E72A0D53052900580D002B1B
:1020A00029D14346934A002F34DB9B182FD4342187
:1020B000C91A2CD40800203856D401235B42844628
:1020C0008340012252428A4030009043020038008F
:1020D0009843030013431AD122002B003429D0D097
:1020E0006346002B00DAACE03E00DE40F6070ED57A
:1020F00022002B00C5E77D4B9A469A4248D1002228
:10210000002F02DA0023BCE700227B4BB9E7002254
:102110000023B6E79A18F7D434239B1AF4D4180096
:1021200020382BD401225242844682400121494268
:1021300099403000884301003800904302000A4370
:10214000E2D1342B07D06246002A00DA80E03E005C
:10215000D640F607D8D5684AEB0FDB071A431100C3
:1021600000200B0002008CE7012320225B42844602
:102170001800521AD0408B400343A2E701222021CD
:10218000524284461000C91AC8409A400243CDE723
:10219000574B9A4200D092E04346564A002F20DB2C
:1021A0009A18B1D434239B1AAED4180020386AD4BC
:1021B00001225242824001214942994034008C431D
:1021C00021003C00944322000A439DD1342B71D05E
:1021D000002868DB3E00C6400022F60795D5474B35
:1021E0004FE79A1893D434239B1A90D418002038C0
:1021F00040D4012252428240012149429940340098
:102200008C4321003C00944322000A4300D07EE727
:10221000342B52D000283FDB3E00C6400022F60798
:1022200000D46FE780231B062BE7002900DA6BE759
:1022300032003B0020002900FFF718FB02000B00D2
:102240001FE720233A005B1A9A40CE4016434DE721
:1022500020223900D21A9140DE400E4379E7012254
:1022600020205242C01A1300C340180063469A400F
:102270000243F3E60122202152421400C91ACC4045
:102280009A402243B8E70122202152421400C91A81
:10229000CC409A4022438EE720223900D21A914046
:1022A000DE400E43BAE720223900D21A9140DE40C8
:1022B0000E4391E70022114BE3E60022B2E7D1453D
:1022C00009D0994500D0B8E60D4B0022984200DDB8
:1022D00018E7094BD5E60A4B0022984200DD14E7C7
:1022E0000023CEE60000F03F0000F0BFFF07000033
:1022F000FF0F000001FCFFFF0000F07F0000F0FF77
:10230000FE030000F0B5454657464E46DE46E0B5B2
:102310004F0087B00D005900009201934B0D5549B5
:10232000804616007F0D02938F4266D0002B64D04A
:10233000EB0F9B46002F0CD100200021002B01D079
:102340008021090607B0F0BCBB46B246A946A046AC
:10235000F0BD029B29009F42F4DB8021019B2A03F0
:102360001B0349030400120B180B029B0A43014391
:10237000009615000191FE1A9F4264D001200911B8
:10238000404204F017F81D239A465B46B146834647
:10239000039316E022009A40170023004246934020
:1023A0001E00009A019B4810C91704F03BFA4B46E7
:1023B000424634003D009B1A241A8D419946002B59
:1023C0001EDD4B46C8460C2B01DD0C2398465B46B0
:1023D000A9115943424653469B1A194143460131BC
:1023E000203BD7D520239B1A2200DA404046130019
:1023F0002A00824017001F43CFE700201E49A1E7B3
:10240000039B9B46009A019BAB4202DC27D1A24270
:1024100025D9002D07DA009A019BA4185D41002DF3
:1024200001DAA4185D415B46002B04D022002B008A
:10243000002554429D41029B104A20002900D21AD7
:10244000FFF794F87EE7009A019BAB42EBDC01D1E9
:102450004245E8D8009A019BA41A9D41E3E7009AFF
:10246000019BA41A9D41AB42DDDCF3D1009BA3424A
:10247000F0D9D8E7FF0700000000F07F3304000028
:10248000F0B54E464546DE4657461C001300E0B503
:1024900089B004930594129B4D00640081469446D4
:1024A0006D0D640D002B02D01A00002313608F4EB7
:1024B000B5426ED0002C6CD0002D00D174E002002B
:1024C0000B00B44267D0661EB046AE4263DC802289
:1024D000CB0F9B460B0352031B0B13431F00059BA3
:1024E0004E461B031B0B9A466346029353461A4300
:1024F0000392A84500D18BE05B46002B00D196E00B
:1025000032003B002D1B002756429F41002D00DC6E
:102510009DE00120039B4042191103F04BFF002373
:102520009B461D3381469A46A846079418E0320020
:102530009A4001923300AB4020000093E117029AC9
:10254000039B04F06FF9009E019F5B46A346AB40DE
:102550009B4443465B1B361A8F419846002B26DD71
:1025600045460C2D00DD0C254B46BC115C43534603
:102570005B1B1C412B0001346410203BD7D520236A
:1025800032005B1BDA4013003A00AA401A43019262
:10259000D0E70022564B1000190009B0F0BCBB4632
:1025A000B246A946A046F0BD00220023F3E7079CEF
:1025B000029A039BBB4269DD002F4ADB0298039914
:1025C00032003B0092197B418B4219DC16D00299F4
:1025D0008A4254D0059B002B02DA5B465B429B4645
:1025E000129B002B01D05A461A60424A3000121B3F
:1025F0003900FEF7BBFF02000B00CCE78242E6D9B0
:10260000029A039BB61A9F4101239C46E344E1E7EB
:1026100097422BDD5B46002B4BD1029A039B92180D
:102620005B41B61A9F41012344469B46D2E72D1BCE
:10263000002D00DD6DE7029A039BBB42E0DC4CD02D
:10264000029A039BB61A9F4101239B46B6E70023DB
:102650009B46029A039BB6185F41002F41DAB618D9
:102660005F4102235B429C46E344A7E7029B039C35
:10267000A74201D19E42CDD802000B008BE7039AFE
:102680009342A7D15B46DB07A4D5B9E7BB4201D192
:10269000B24291D8029A039BB61A9F41BB4218DC02
:1026A00014D0029A039BB61A9F4102239C46E3442E
:1026B00084E7029A039B92185B41921BBB411F0067
:1026C00001235B42160044469B4683E7029BB342CC
:1026D000E7D901239C46E34470E7029BB342AFD99C
:1026E0008EE701235B429C46E34467E7FF07000057
:1026F0000000F07F3304000010B5002482B0009485
:10270000FFF7BEFE02B010BD07B5604601880A0A99
:102710000230DF2AFAD1C9B2820804D30288408885
:102720000004104300E00068014A5050039007BDC8
:10273000E84C00200FB403BC0CBCF0B50124E40746
:10274000634000E0F0B50C0DCF0F661E3605891B07
:10275000640503D3C943404200D30131640D03D063
:10276000661CF60A07D0E41B00207F00791C89074D
:102770008912803C24031D0DDF0F6E1E36059B1B46
:102780006D0503D3DB43524200D301336D0D03D0FB
:102790006E1CF60A07D0ED1B00227F007B1C9B07F6
:1027A0009B12803D2D032F1B661B58D4A446202E60
:1027B00046DA20371400BC401D00BD40F2403341D2
:1027C0002A4380185941CB0F05D0C943C04300228A
:1027D00064425041514162464D0D28D10D0D07D143
:1027E00000281FD0241940414941013A0D0DF9D06C
:1027F000640006D3013000D30131002C01D1400820
:102800004000013A0BD4941CE40A04D1120511448F
:10281000DB071944F0BDD907204B194300E0D90765
:102820000020F0BD0029DDD1002CDBD1F0BD01324C
:10283000C6074008CD0728434908002EE1D0D9E754
:102840003C2E29DA203E40371400BC4000D0012441
:10285000F24014431A00BB401C43D317ACE7AC460C
:10286000202F08DA20360400B4400D00B540F840AF
:1028700039412843A5E73C2F0CDA203F40360400BD
:10288000B44000D00124F84004430800B1400C4398
:10289000C117EAE710001900002494E70000F07F58
:1028A000F0B50C0D661E3605891BE60A6405640D3D
:1028B00002D0651CED0A04D0002001210905803CEE
:1028C0002403A4461C0D671E3F05DB1BE70A6405B5
:1028D000640D02D0651CED0A04D0002201231B0503
:1028E000803C24037740644497B484B296B2744326
:1028F000070C7E43150C6F4380B26843361802D331
:10290000012000043F183004350C00197D41844635
:1029100088B29AB250430C0C62431F0C7C438EB2B7
:102920007E43921902D301263604A4191604170C0B
:102930003618674101BC81B29AB25143040C62431C
:102940001B0C5C4380B25843121802D301200004D0
:1029500024181004130C401863412D185E41002008
:10296000474106BC88B293B258430C0C6343120C27
:10297000544389B251435B1802D3012109046418FE
:1029800019041A0C091862416D185641002047417C
:1029900018BCF902720D1143F0026A0D1043ED02EA
:1029A0000A0D03D16D1940414941013B124E9B1B59
:1029B0007600B3420ED26D0007D30130002671417C
:1029C0006646354301D1400840001B05C918E4079D
:1029D0002144F0BD0BDA013306D1013004D10131BD
:1029E0004F0D01D04908F2E7E1070020F0BD0136A4
:1029F00031050020EBE70000FF030000F0B51C0DDF
:102A0000671E3F05DB1BE70A6405640D02D0661CE8
:102A1000F60A04D0002201231B05803C2403D025A4
:102A20002D060026F6432E661E096E66CE0FF61999
:102A3000B44649004F0D02D07E1CF60A03D0002098
:102A40000021403F3F033E1BB600B444013F7F05D9
:102A5000C91B49082E6F013676089C02950D254347
:102A60007543ED137543AD1301356D10F603761BF9
:102A70000CB4CC02450D2C43A2B2B3B25A43270C7E
:102A80007B43350C6F43A4B26C431B1902D3012462
:102A900024043F191C041D0CA4187D4124196D4108
:102AA000009A91B2ACB26143170C7C432B0C5F438C
:102AB00092B25A43A41802D301221204BF1822046E
:102AC000230C52187B41019C6C431B19520ED901F7
:102AD0000A434401A01A81B2B2B2514303145A43CB
:102AE000360C734387B27743D617D21900277E413D
:102AF00036049B191704160C7F185E417316ED18E7
:102B0000F301002680337541A90F06D16400690ADC
:102B1000E8055B0A184309D22FE00422944480336D
:102B20007541A90AA8059B0A184326D3404149418B
:102B30002404009A019B0D005543641B4343E41A8F
:102B400095B286B27543170C7E43030C5F4392B275
:102B50005A43B61802D301221204BF183204330CB0
:102B600052197B4152429C41002C02D40022013078
:102B700051414008CA071043490802B06246D707CE
:102B80009210084BD218084B9A4203D212058918AA
:102B9000C919F0BD0020002A01DC3900F0BD013365
:102BA0001905F5E7FD030000FE07000007DA002124
:102BB00007E0C90FC907520D03D0C91201E04C4903
:102BC000090500207047C0464A00F2D2520D013A72
:102BD000484B9A42EAD2F0B51405091B520801D3BA
:102BE000001849419B08D2181205944640A44A0C8B
:102BF000A25C0B09534353431B1353435B13120251
:102C0000D21A13005B435B0B4C086343DB13534343
:102C1000DB1501335B10D21A130CD21A13005B437D
:102C20008902840D21438DB29EB275430F0C7E4301
:102C30001B0C5F438CB25C43361902D3012424047D
:102C40003F193404330C64197B419D01A40E2C43BD
:102C50002034A5B25543241454432D0C6419A411F7
:102C6000D203121B95B28EB27543170C7E430C0C27
:102C7000674393B26343F61802D301231B04FF1882
:102C80003304340C5B197C41DB186441DB180023EE
:102C900063419EB276439DB21F0C7D437F436C041B
:102CA000ED0BA4197D4106028F08361BAF417D074D
:102CB000F6086E41B4B295B26C4337147D43120CE2
:102CC0005743B6B25643EA17AD19002672411204B3
:102CD000BF182E042A0C36197A410832521117D225
:102CE0009D0A9C05D117101969416144F0BD00008F
:102CF000FF070000FE070000F8EBDFD6CDC5BEB829
:102D0000B2ADA8A4A09C9995928F8D8A8885838165
:102D100052415D0ADC05D11714194D412B00634364
:102D2000A6B27643A2B2270C7A437F435104D20B5A
:102D300089197A41D218D21880054942904102D4AB
:102D4000002301345D4160086908ED0728436144B0
:102D5000F0BDC046624618CA94465A46002A20DB97
:102D600004E0624618CA944600291ADAC018614184
:102D70005B463B415C46B4405246FA4022434446DF
:102D80004D4662416B41904699462B46B3403D41CA
:102D9000FC401C4352465B46A241AB4192469B46D7
:102DA0007047C01AA1414B463B414C46B440424695
:102DB000FA40224354465D4662416B4192469B462F
:102DC0002B46B3403D41FC401C4342464B46A2418A
:102DD000AB41904699467047002200B5203200F082
:102DE00010F8080000BD002200B500F00CF8CA176A
:102DF0009A4200D100BDD8430121C907414000BD1E
:102E000000220B150AD410B5944600F079F814147A
:102E1000013400DA0021CB17144C20470020002198
:102E200070476244343A0CD40C2A07DA040091400B
:102E3000904052422032D440214310BDD843D94360
:102E400010BD203207D40C4694405242203211412A
:102E5000D040204310BD0800C917203203D452428D
:102E60002032104110BD1800190010BD232E001093
:102E700000210A00002104E000210A00C11704E03B
:102E80000022002306E0C0460022CB1758405940DC
:102E9000C01A994130B5184CA21A002903D101007B
:102EA00010D00020203A4C1512D104D2013A00185B
:102EB00049414C0DFAD3114CA24204D21205891893
:102EC000DB07C91830BDD243520D00200021F5E7C1
:102ED00003D4013A00184941FBD50B324405C00A1E
:102EE0004D052843C90A640003D0002460416141B4
:102EF000E1E7E0D34408F8E732040000FE070000F1
:102F00000A0DCC0F531E1B05C91A520503D3C94322
:102F1000404200D30131520D03D0531CDB0A07D0CD
:102F2000121B00206400611C89078912803A120379
:102F3000014BD21A70470000FF030000023225D473
:102F40000C2A1CDA1125AD1A0B002B41083207356B
:102F50000600EE40904091403143F0CC63431A1597
:102F600000235A41554356435743BF02F412760596
:102F700076196741ED177F19801BB94170470C2204
:102F80000020C917490001310905DBE70902030EDA
:102F9000194300025342203208D40C0019419440D6
:102FA000D840204300225041514170470800C917C2
:102FB000203B2032F1D50020002100227047F0B5DF
:102FC000FEF7D4F900F02EF8844600F04FF803B471
:102FD000604600F069F80CBCFEF7CEF90FE5F0B5DD
:102FE000FEF7C4F900F01EF800F040F806E0F0B576
:102FF000FEF7BCF900F016F800F056F8FEF7BCF941
:10300000F0BDF0B5FEF7B2F900F00CF8844600F020
:103010002DF803B4604600F047F80CBCFEF7ACF99D
:10302000F0BD000000B5FFF76BFF30A4FFF786FF8F
:1030300000242C4D2C4ED20702D3F6436D4266413C
:10304000520004D2A246A346A846B14603E0A046D9
:10305000A146AA46B3466EA4A44601271F26FFF741
:1030600080FE0137013E212FF9D100BD594684B2BF
:103070008DB26C43061475430B145E4382B25A43FF
:10308000AD18EA1700D7D2431204B6182A042B0C45
:1030900012197341404649469D009B17920F2A43DF
:1030A000904199413E22F0E6494684B28DB26C438C
:1030B000061475430B145E4382B25A43AD18EA17E7
:1030C00000D7D2431204B6182A042B0C12197341EC
:1030D000504659469D009B17920F2A435041594133
:1030E0003E22D2E6BB4DF09DC556F6367D5100001E
:1030F0001A61140085880A00FB211900F0B5FEF75B
:1031000035F9404D0C002C4001D0AC4202D1090DE4
:10311000090500201C002C4001D0AC4202D11B0D3F
:103120001B0500220026ED02002B04D502266B4071
:10313000694000D476424F1904D599420CDD01361E
:10314000694003E0BB4207DA013E6B400700100014
:103150003A000F0019003B0040B4002A0FD1002BA9
:103160000AD05C006415013409D14C0064150134A7
:1031700002D10139013B02E0002000212EE0FFF7DF
:103180003DFC3E22FFF730FE82468B4600200021A8
:1031900080460122920791461DA4A44601271F26BE
:1031A000FFF7D8FD0137013E212FF9D14A4653469A
:1031B0000C3A01246407002752081B0005D49341F0
:1031C000001979416408F7D104E05341001BB9416B
:1031D0006408F1D1CE0749104008304340BC002EAE
:1031E0000AD0094C094D01D5E443ED43F60701D15E
:1031F00000196941001969413D22FFF746FEFEF7BB
:10320000BBF8F0BD0000F07F8D305A88A8F643323D
:10321000694FBB610567AC1DB16E4096FCBAAD0F3E
:1032200072DB0BABA66EF50739BD9FE576ABFE03EF
:103230004B6297BA5BD5FF01D694DBDDAAFAFF009B
:103240005DEAEE5655FF7F006E77B7AAEAFF3F00B2
:10325000BCBB5555FDFF1F00DEADAAAAFFFF0F0046
:103260006F5555F5FFFF0700ABAAAAFEFFFF03004D
:103270005555D5FFFFFF0100ABAAFAFFFFFF000085
:103280005555FFFFFF7F0000ABEAFFFFFF3F000047
:1032900055FDFFFFFF1F0000ABFFFFFFFF0F00000A
:1032A000F5FFFFFFFF070000FFFFFFFFFF03000028
:1032B000000000000002000000000000000100000B
:1032C000000000008000000000000000400000003E
:1032D00000000000200000000000000010000000BE
:1032E00000000000080000000000000004000000D2
:1032F00000000000020000000000000001000000CB
:1033000000000080000000000000004000000000FD
:10331000F0B5FFF7F5FD54A4FFF710FE002904DA1D
:10332000204C214D00196941013A04B4012752A6ED
:10333000002201239B0730CEB446001BA9410BD4C9
:103340007E4220361D003D411C00B4401600FE4068
:10335000344362416B4101E000196941664601371F
:10336000212FE8D185B29EB2754307147E43190C14
:103370004F4384B24C43F1173619002461410904CC
:103380007F183404310C64197941A40F880020435C
:1033900089178018594104BC52423E32FFF775FD2F
:1033A000F0BD00006BDE73F4FD855C2CF0B54F00C2
:1033B00050D27F154ED001374FD0FFF7A1FD04B496
:1033C0004902C20D1143400201272BA6B446002238
:1033D00000237E4220360D003D410C00B440060023
:1033E000FE40344344414D41AE0F05D12000290039
:1033F000664630CE121BAB410824A4440137212F6E
:10340000E7D18900891012184B4180BC17A413CC56
:103410000137784379437C434F05C912CD17C01952
:103420006941A702A415CD17C9196C41DD17801891
:1034300059416C413E22CD17AC4208D000090E071D
:1034400030430909260731432411043AF3E7FFF713
:103450001CFDF0BD02490020F0BD02490020F0BD76
:103460000000F0FF0000F07FAAB800006BDE130040
:10347000A3EF0F0021170B00F34B98BFEC23F319B8
:10348000D6104DCDE3FB470E7AB9BC8ADBC1890764
:10349000CC542C021846E103053083E7B029F8012B
:1034A0001E1FE0874505FE00249E41ACA9807F00D9
:1034B0008117624515E03F00E610ABA902F81F0036
:1034C0008858455500FE0F00C4AAA90A80FF0700CE
:1034D00056455501E0FF0300ABA92A00F8FF0100A3
:1034E00045550500FEFF0000AAAA0080FF7F0000EE
:1034F000551500E0FF3F0000AB0200F8FF1F000081
:10350000550000FEFF0F00000B0080FFFF070000CA
:103510000100E0FFFF0300000000F8FFFF010000D2
:103520000000FEFFFF0000000080FFFF7F000000A2
:1035300000E0FFFF3F00000000F8FFFF1F00000059
:1035400000FEFFFF0F00000080FFFFFF07000000EC
:10355000E0FFFFFF03000000F8FFFFFF0100000095
:10356000FEFFFFFF000000000000008000000000E0
:103570000000004000000000142310B5010018886E
:1035800004331B88984710BD162310B50100188816
:1035900002331B88984710BDF8B54746CE4680B524
:1035A0000F1E19D014239946043304000025012668
:1035B00098464B461888434621681B88984701C4A3
:1035C000431E9841013540420640AF42F1D13000E0
:1035D000C0BCB946B046F8BD0126F8E710B503F007
:1035E00037FC10BD094A10B594464024830063445B
:1035F0001A68C00062408034144080225201134394
:103600001C60034B9C466044416010BD04C00140F7
:1036100000400140024B18688007C00F7047C04649
:1036200000C0064070B5EFF3108C72B60D4D2B68DC
:10363000002BFCD0BFF35F8F0724CB08C618C05CFB
:1036400001230C40A3401C000440034207D118434F
:103650003070BFF35F8F2C608CF3108870BD10004A
:1036600001F03AFB2C0100D00021044B044ABFF3C7
:103670005F8F02C39342FAD17047C046000100D069
:10368000800100D0044A1078431CDBB2172B00D90C
:10369000102313707047C046B846002001238340B2
:1036A000002904D0034A1360034A13607047034A99
:1036B0001360FBE780E200E000E100E080E100E071
:1036C000024B10309B688000C058704700ED00E04E
:1036D00070B50D00EFF3108672B60F4A1368002B19
:1036E000FCD0BFF35F8F0D4B10309B6884001B59DB
:1036F0000B4A934203D09D4201D001F005FB074BDA
:103700009B681D51BFF35F8FBFF35F8F0022024B99
:103710001A6086F3108870BD240100D000ED00E02F
:10372000CD010010F0B5DE4657464E464546E0B5A1
:103730000C0083B0EFF3108872B65D4A1368002B5B
:10374000FCD0BFF35F8F5B4B5B499A68030010337B
:103750009F00D5598D4239D0A5424AD0574EAA1B59
:103760002F2A33D801229246824091464846544A35
:103770001268104001904846524A1060BFF35F8FB4
:10378000EFF305829346002A35D0934201D001F031
:10379000BBFA2A0053469A439068844208D175E0E8
:1037A0004B005B189B00F3189868A04234D01A00B5
:1037B000062151560029F3DA844253D0019B002B95
:1037C00026D04A46404B1A603D4B1A60394B9B68E5
:1037D000DD51BFF35F8FBFF35F8F0022344B1A6060
:1037E00088F3108803B0F0BCBB46B246A946A04699
:1037F000F0BD0D00EAE72A0053469A4390688442E0
:10380000D6D1062010561300002809DA0D0031E049
:103810004A462C4B1A60D9E706201856002822DBAE
:1038200042001118890074188A46A1689960E179EC
:10383000D971062161569971002925DBA488F11AF6
:103840006405241554440919E0240905490D24028E
:103850002143998013181D4A9B001178F318997120
:103860001070ABE713005946002914D1FF31917154
:103870001749918015490A789A71164A9B1B5B413A
:103880005A43120D0A7099E71349E2E706201056D1
:1038900013000028C4DA114A1149D21A083A50021A
:1038A000400D014399800F4952080A43DA8085E7A9
:1038B000240100D000ED00E0CD010010BC46002046
:1038C00000E100E080E100E080E200E0994F0020AC
:1038D00001BDFFFFAAAA000001BD0000F6460020BE
:1038E00000F0FFFF00F8FFFF70B5EFF30581012442
:1038F0000443EFF3108C72B6214A1368002BFCD0FE
:10390000BFF35F8F1F4B05001F4AED1A6D416A43DD
:10391000120D1E4D8900AE6852B27658A6421CD0D8
:103920000621595691421CD012215956914222D05B
:103930001E215956914220D02A21595603249142E2
:1039400010D0134B19781A708171BFF35F8F00226A
:103950000B4B1A608CF3108870BDAB680D4C5C503B
:10396000EFE700246100091989005B18FF219971B4
:1039700009499980E5E70124F4E70224F2E7C0460B
:10398000240100D0BC460020AAAA000000ED00E0FF
:10399000994F0020CD01001001BDFFFF054B064AE5
:1039A0001360064A136053609360D36013615361E0
:1039B000936170478080808000E400E004E400E0D0
:1039C000024B9C466144890001607047400000340E
:1039D00010B50400FFF756FE01002000FFF7F0FFCE
:1039E000FF232371BFF35F8F10BDC04610B50400E5
:1039F000FFF748FE01002000FFF7E2FFFF23A3804E
:103A0000BFF35F8F10BDC04683680B4810B5844676
:103A1000614462441201090159189B185C684A68A4
:103A20000120944201D802D00020C0B210BD1A6813
:103A30000B689A42F9D8F7E7FFFFFF0F0A4B1968A6
:103A4000EFF3108072B60A68002AFCD0BFF35F8FD4
:103A50001B68BFF35F8F00221A6080F3108840BF9D
:103A6000002000217047C0467C4F0020F8B5574623
:103A700045464E46DE46E0B598460CAB1C780DAB8D
:103A80001B78070091469A460568002C5ED1AC7BF6
:103A9000002C3BD0660029683619033E89194B7803
:103AA000AB73002B00D1EB7300238B704B700B704A
:103AB0002D4BE218BB6812019B184A461A60424619
:103AC0005A600A9A9A600B9ADA6000238B704B70E6
:103AD0000B706B7B9B46002B2BD022005946A868AD
:103AE0006B6898472A68002816D05B4658465B00EA
:103AF0005B449619033BB070D118D35C002B00D007
:103B000073705B460C706B735C4513D0F0BCBB46A6
:103B1000B246A946A046F8BD5B465B005B44033B4A
:103B2000D3189C709119925D002A00D05A705B46A0
:103B30000B706C734A464346387D00F055FB051EFA
:103B40000AD10E9B002BE1D01D70DFE766002968CB
:103B50003619033E8919ABE75346002BF1D12100FA
:103B6000386800F065FDECE7FFFFFF0FF0B5DE46BB
:103B700057464E4645460023E0B58BB00893684B48
:103B80008200D45800239B46099000F0A9FA020055
:103B90000B006068EFF3108A72B656460168002980
:103BA000FCD0B246BFF35F8F21684F7B8C46002F5D
:103BB0002ED0A5685B49A946791809018944494670
:103BC0000868496805000E00AD1A9E41002E5FDDB1
:103BD00002000B00099800F007FB00230022994621
:103BE000002306920793002398466368BFF35F8F14
:103BF0005A461A608AF310884346002B12D10028D7
:103C0000C3D10BB0F0BCBB46B246A946A046F0BD3E
:103C100000230022994600230692079300230020E8
:103C20009846E2E7089B494618023843C047626855
:103C300005000E00EFF3108A72B61368002BFCD05B
:103C4000BFF35F8F002E41DB2B00334302D023698B
:103C5000002B56D12368D97B002905D01A6848006B
:103C600041185218033A57709A7B002A00D19F736B
:103C7000DF73E268013FD35D0133D3555B462361B7
:103C80006368BFF35F8F5A461A608AF310887CE737
:103C9000002E02D1002D00D09AE70021604600F0EE
:103CA00045FC4B461A685B68069207934B469B6837
:103CB00098464B46DB689946E368DB19013B1B7865
:103CC00008931B020343236100208EE72369002B26
:103CD000C0D0069A079B8021521BB34109068B4234
:103CE00002D30122104B5242002104910131039171
:103CF000494601914146200002970091FFF7B6FE28
:103D0000BCE700F0EDF92A00330012184B41802186
:103D100009068B42E8D30122034B5242E4E7C04636
:103D2000684F0020FFFFFF0FFFFFFF7F10B5144C0F
:103D30006368002B04D00A211248FFF741FE10BD32
:103D40002300114A1021206800F006FB032000F038
:103D5000BBF9032000F0B0FA03200C4900F0FEF993
:103D6000FFF790FC0A4B9C4603232375D0231B06C8
:103D70001B6860446375074B80006060DC60DAE7B5
:103D8000044700207C4F0020093A00106D3B0010D2
:103D900040000034684F0020F0B557464E46454677
:103DA000DE46E0B585B0019310AB1B7806000393A7
:103DB00000239A46984600927268EFF3108B72B611
:103DC0001368002BFCD0BFF35F8F3568AC7B002CF1
:103DD00000D16FE067002B683F19033FDB195A7869
:103DE000AA73002A00D1EA734B4AA118B2680901EC
:103DF000521800980199106051600E9991600F99C6
:103E0000D16042469A705A701A706B7B9946002BAB
:103E100000D170E022004946A8686B6898472A687C
:103E200000285BD04B4648465B004B44D719033B08
:103E3000B870D118D35C002B00D07B704B460C704F
:103E40006B734C4558D0F3681B19013B18787368A5
:103E5000BFF35F8F42461A608BF310885346002BE6
:103E600008D10002204305B0F0BCBB46B246A946CB
:103E7000A046F0BD039B002B4BD00E9B00200F995A
:103E80009847030004000D000B4342D000291ADAC2
:103E9000009A019B121BAB410092019380221206F3
:103EA000934204D301231D4C5B4200930194039B76
:103EB0009A4681E77368BFF35F8F1C608BF31088AD
:103EC00001204042CFE700F00BF9802224184D4139
:103ED0001206009401959542E9D3E3E74B465B0057
:103EE0004B44033BD3189C70D119D25D002A00D0FB
:103EF0005A704B460B706C73307D009A019B00F03A
:103F000073F9824600289ED02100306800F090FBB3
:103F100099E70020A7E7C046FFFFFF0FFFFFFF7FE5
:103F2000F0B5EFF30583CE46474680B505000C009B
:103F300085B0002B0DD0324A0020536A9C4203D832
:103F4000926A0130AA4232D305B0C0BCB946B0462D
:103F5000F0BD2C4E029301932B4B020000933000D6
:103F60000B00FFF719FF031EE5DD20BF7168EFF3BB
:103F7000108772B60A68002AFCD0BFF35F8FDAB2EE
:103F800094463068427B624516D0FF2201681A4091
:103F9000894651008846494690444144033989780E
:103FA00000290BD13269934210D131610EE0E31A3E
:103FB0005A1E9341D8B2C7E7FF221A40F1681B0A84
:103FC0008A18013A1278DBB29A4214D07368BFF3B0
:103FD0005F8F00221A6087F31088094B00205A6A0D
:103FE0009442B1D89B6A0130AB42ADD2A41A631E91
:103FF0009C41E0B2A8E7614600F01AFBE6E7C04644
:1040000000400540044700203D3A0010F0B5EFF3B2
:104010000582D6464F4646461000C0B51038EFF32D
:10402000108872B6214C2368002BFCD0BFF35F8F41
:104030000123190081401E4D1F006963AA461D4DD2
:1040400029601D4D2E78AC463500C5402F402B42CF
:1040500015D053465F6A194B8500EB589F4218D321
:104060006246174B8E43EB581670BFF35F8F0022EA
:10407000226088F31088002B06D0984704E0BFF335
:104080005F8F276088F31088E0BCBA46B146A84627
:10409000F0BD0C4B92009C46624413681360BFF362
:1040A0005F8F0023236088F31088EDE7280100D09C
:1040B000004005403C7005409A4F0020804F002092
:1040C000044F0020D03F054010B5034B01001800FD
:1040D000024AFFF7A7FA10BD984F00201474001091
:1040E000034B596A0A00986A596A8A42FAD17047A2
:1040F0000040054070B504000D00174A536A1900CE
:10410000966A536A8B42FAD13000190024184D4147
:10411000AB4216D813D0104B2A005B6A9D4203D9DC
:104120000D494B6A9342FCD3934207D10A4A02E0FD
:10413000516A994202D1916AA142F9D370BDA64257
:10414000E9D9054B5B6A1C005A1CEFD001220124FF
:104150006442E5175242E3E70040054070B50400B1
:104160000D00EFF3108672B61A4A1368002BFCD0CC
:10417000BFF35F8F002D1BD02000FFF7A1FA164977
:1041800081420AD02000FFF7A3FA01212000FFF7A7
:1041900085FA0123A340114A1360114BA400E55096
:1041A000BFF35F8F00220B4B1A6086F3108870BD3F
:1041B0000121A1400A4BA200D5500A4B20001A78D9
:1041C0008A4305491A70FFF7ADFA00212000FFF776
:1041D00065FAE5E7280100D00D4000103860054081
:1041E000044F00209A4F0020F0B54F46D646464671
:1041F000C0B507002B4C616A0D00A66A616AA9422E
:10420000FAD18B4208D805D00120E0BCBA46B146AD
:10421000A846F0BDB242F7D9EFF3108A72B6224831
:1042200001680029FCD0BFF35F8F0125BD401F4905
:104230001C4C8846097889462943C9B28C464146B8
:1042400060460870391D890065630A511849B80035
:104250004350216A0020294219D0616A0800A66AE9
:10426000616A8142FAD18B4219D801D1B24216D883
:10427000CC450BD00B4B1F221D625D6301233A40DE
:1042800093400C4A136043464A461A700120BFF31C
:104290005F8F0022044B1A608AF31088B5E7002074
:1042A000F5E7C04600400540280100D09A4F0020A5
:1042B000804F002080E200E0EFF3108C72B60A49D4
:1042C0000B68002BFCD0BFF35F8F01238340074AAC
:1042D0000748136202789A430270BFF35F8F00238E
:1042E0000B608CF310887047280100D00040054017
:1042F0009A4F002070B505000E001400002923D04D
:10430000002A12D080686B689847296800280ED070
:1043100063001B197200033B9219CB18033A9E707D
:1043200088188A5C002A11D10470300070BD7300B7
:104330009B196200033B1219CB18033A9C70881832
:104340008A5C002A05D106702000EFE75A700470DD
:10435000EBE75A700670F7E730B583600023CCB204
:1043600043730133047342608373C4730D000068A8
:10437000012C06D9421C0133DBB2137003329C427C
:10438000F9D1FF2129404B005B18C01800230338E6
:10439000437030BD70B505000C1E07D06300016886
:1043A0001B19033BCB185A78002A01D1200070BD9D
:1043B000500080180338091800204E7848702100FA
:1043C00058702800FFF796FF310004002800FFF71F
:1043D000E1FF0600002C26D00028E7D021003200A3
:1043E000A8686B689847296800280ED073009B194D
:1043F0006200033B1219CB18033A9C7088188A5C40
:10440000002A00D05A700670D0E763001B197200B2
:10441000033B9219CB18033A9E7088188A5C002AD5
:1044200000D05A7004703400C0E7C046F0B557465B
:104430004546DE464E46E0B50D006F0001687F1927
:10444000033F0400C85D83B00192CA19002850D010
:1044500043001B18033BCB185E78B446002E1AD1DC
:10446000019E002E42D0E67B002E04D073009B19E3
:10447000CB18033B5D70A37B002B00D1A573E573C4
:1044800000282FD10023537003B0F0BCBB46B246C6
:10449000A946A046F0BD72006244033A8A185178DA
:1044A0008846002151708946597032000100200071
:1044B000FFF720FF43468246002B07D05B002168B0
:1044C0004344033BCB185A78002A16D14246514642
:1044D0002000FFF70FFF2168019BCA19002BC2D1F2
:1044E0000028CFD043001B18033BCB180021997044
:1044F000C8E7019B002BB6D1C4E7500080180338F1
:10450000091848788346484648705870414620004C
:10451000FFF7F0FE594680462000FFF73BFF41467B
:1045200002002000FFF7E6FE8046CFE7F0B55746D1
:104530004546DE464E46E0B583B00191457B04001A
:104540006F0000687F19033FC15DC219002952D076
:104550004B005B18033BC3185E78B446002E1CD199
:10456000019E002E44D0E67B002E04D073009B19E0
:10457000C318033B5D70A37B002B00D1A573E573CB
:10458000002931D1002328005370617303B0F0BCBF
:10459000BB46B246A946A046F0BD72006244033A4B
:1045A0008218507880460020507081465870320042
:1045B0002000FFF79FFE43468246002B07D05B009A
:1045C00021684344033BCB185A78002A17D142464E
:1045D00051462000FFF78EFE019B01002068C219A2
:1045E000002BC0D10029CDD04B005B18033BC31872
:1045F00000209870C6E7019B002BB4D1C2E75000A1
:10460000801803380918487883464846487058701F
:1046100041462000FFF76EFE594680462000FFF716
:10462000B9FE414602002000FFF764FE8046CEE757
:1046300070B5050000292CD0437B8B422ED04C0056
:1046400000686418033C0419A278002A21D05300A2
:104650009B18033BC25CC6188A4202D11BE0002AA9
:1046600008D053009B18033BC3185A788A42F6D1EE
:1046700062785A70002301222800A3706370FFF74C
:10468000D5FE697B02002800FFF734FE6873012025
:1046900000E0002070BD63783370EBE70122190061
:1046A000FFF7C4FEF2E7C046F8B5CE464746040021
:1046B00080B506200E0000F01FFA051E51D0524BA7
:1046C0005249E21853425A418023DB039C4692052B
:1046D0004F4B62441A604F4B1A6010008B6898432E
:1046E000FBD1494B4C4AE31859424B4180215B00B6
:1046F00049000620995200F0FFF93100C00001F096
:1047000059FEC30932D14022012190466162A36261
:10471000256BEB0736D427008026E36A00232C376D
:1047200076013E4333600620256300F0E5F94146FB
:10473000800001F03FFE236B05009846DB073BD469
:104740006023E26A5A400E331340336043462363CA
:10475000802310229B013B431A60304B23630323C9
:10476000A3642800C0BCB946B046F8BD2C4A9342A9
:104770003FD900232B492C4A6162A362256B9046E6
:10478000EB07C8D52200C02330329B011343234AD4
:1047900006201A60666AA36AB601F61800F0ACF942
:1047A000224901F007FEB6020100300001F002FECE
:1047B0000021FFF79FFCAEE72200C02330329B01AF
:1047C0001343164A06201A60636AA26A9B0199463F
:1047D000914400F091F94B4614499B02994601F02F
:1047E000E9FD0100484601F0E5FD0021FFF782FCEC
:1047F000A6E77F229901884602400132520819003B
:104800009044130082E7C0460080FCBF00C0004017
:1048100000E0004000F00040904F00200103000045
:10482000FEFF0000FFFF0000C0FF3F004E0E000033
:1048300010B50C2082B000F0B5F9FEF7EBFE0028B1
:1048400010D08B4B8B488B498B4A1860596098600D
:10485000D960186159619861D961186259625A62C8
:1048600002B010BD854CA06700F0A4F90122844B72
:104870001A60636C012BFCD10322824B1A607F4AC1
:10488000936B012BFCD1013301217F4A7F480093B8
:10489000043300F037F905237D4A009301217D4858
:1048A00000F030F97C4B5A68FF2A02D8802252006F
:1048B0005A608022734B6E4C12011A6021690029E4
:1048C00007D0606901F076FD013043001B18033BFF
:1048D000FDD2E022704B714819680A400260022242
:1048E0001968514001320A40042102609A6811425D
:1048F000FCD080216A4A09011160802252005A606E
:10490000684B2361684B5968FF2900D85A6003221D
:1049100001215B4B1A60644A93681942FCD0E02382
:104920001068034061480360126803234A40022173
:1049300013405D4A036093681942FCD080215C4BB0
:104940000901196080215B4B4900516063615A4B3A
:104950005A68FF2A00D859608022584B12011A6009
:10496000E169002907D0606901F024FD01304300AE
:104970001B18033BFDD2E0234F4A11680B405049FE
:104980000B6080214F4B090119608021394B490090
:104990005160E3614C4B5A68FF2A00D8596080226D
:1049A0004A4B12011A60216A002907D0606901F0A0
:1049B00001FD013043001B18033BFDD2E023424AB6
:1049C00011680B4042490B608021424B090119607C
:1049D00080235B0053608022264BD20223623E4B31
:1049E0005968914200D25A6080223C4B12011A60F1
:1049F000616A002907D0606901F0DCFC01304300E6
:104A00001B18033BFDD2E023334A11680B403449A5
:104A10000B608021334B090119608023DB02536056
:104A2000154B6362304B5A68FF2A02D8802252002D
:104A30005A6080222D4B12011A60A169002907D00B
:104A4000606901F0B7FC013043001B18033BFDD245
:104A5000E023254A11680B4025490B608021254B36
:104A60000901196080235B005360124BA361F7E6D4
:104A7000C04B0020006CDC021BB70000008000402F
:104A80003CB0004030B00040002F68590080024028
:104A9000008C864700C002403080004030900040CB
:104AA00030A00040001BB7003C8000403C9000401C
:104AB0003CA00040405973075480004054B000406F
:104AC0005490004054A000406080004060B000401E
:104AD0006090004060A000406C8000406CB00040DE
:104AE0006C9000406CA000404880004048B00040FE
:104AF0004890004048A00040014B8000C0587047DB
:104B0000C04B0020F8B5040021481D0017000E001E
:104B100001F050FC0100380001F04CFC069B290418
:104B20001B0319432368002B20DB1A4B1A4DE21894
:104B300053425A4180235B019C461203174B624447
:104B40001A60174B1A601700AB689F43FBD1C02255
:104B5000231D92011A4321232660A060136023685D
:104B6000002BFCDA0823E1601360F8BD3F232268C4
:104B70001340B342D9D1A3681B051B0D8342D4D186
:104B8000EE22E368D20213408B42CED1EDE7C0465D
:104B9000001BB7000040FDBF00C0004000E0004027
:104BA00000F000408023024A9B000343D362704719
:104BB00000800540AA23064A1B0113602F230549E4
:104BC000D360054B19605368002BFCDA7047C04670
:104BD0000040024000B0FA00006002402C4B2D4A19
:104BE00070B51A602C4A2D4B2D491A6014008B6841
:104BF0009C43FBD12B4D2C4EB54208D2013E761B77
:104C0000B60808CD984723000134B342F9D1FFF725
:104C10000FFE264A214B1A60214A9368DB43DB01D1
:104C2000DD09002BF9D14022214B224C224E9A67FC
:104C30005A671A67DA66B44208D223682000002B4C
:104C400020D00834FEF7D2FEB442F6D31B4C1C4EE3
:104C5000C022B168200001F04FFEB460FEF704FDF1
:104C6000FEF79CFEFFF762F8164C174EB44208D2CE
:104C7000013E361BB60808CC98472B0001359E42F2
:104C8000F9D170BD0834FEF7A3FEB442D5D3DDE7F9
:104C900000E00040BFCDFBFEFE7F3C0000F0004086
:104CA00000C00040A84B0020B84B0020FFFFFF01D0
:104CB00000F00140A04B0020A84B00200000002085
:104CC00000ED00E0B84B0020BC4B002000BEFDE72B
:104CD00010B5FFF7FBFFC0460FB400B5084883B01E
:104CE00001F0ECFE049B002B07D005A918000191F0
:104CF00001F012FB034801F0E1FE0120FFF7E6FF9F
:104D0000387400103872001010B50148FFF7E4FF46
:104D1000487400107047C046F8B557464546DE4611
:104D20004E46E0B598460A9B06009A460D9B0F003A
:104D3000934615009B0710D10B9B0C9A93420CD203
:104D400013005C460B9A9D1A5D44220043460134D1
:104D500039002020B047A542F7D10B9C6319002CE5
:104D600009D01D0053462A1B013C185D39004346FB
:104D7000B047002CF6D10D9B9B070ED55B46EC1A75
:104D80000C9BA34209D999462A00434639002020AA
:104D90000134B0470135A145F6D82800F0BCBB4628
:104DA000B246A946A046F8BDF0B54F464646D6469F
:104DB000C0B584B098460EAB1B7894469946129BBA
:104DC0000D9C109F119E9A0724D4002E6AD1BC42DC
:104DD00020D201221A409246202C00D1CBE00C9A1E
:104DE000551E302201E0202C30D001342A55A74234
:104DF000F9D85246002A0DD0B4420BD20C9A551E57
:104E00003022202C02D126E0202C61D001342A55FA
:104E1000B442F9D1DA0634D55A0562D4002C5CD1FB
:104E20000F9A102A00D191E0022A00D1A1E030228D
:104E30000C9C227001244A46002A5CD15A0700D4F7
:104E40007DE02B220C9D2A5501341CE05246002A9D
:104E500002D0202E3CD92024DA0614D55A0512D4CB
:104E6000202F00D197E0202E3BD120261F22340096
:104E70000F9D102D00D181E0022D4CD030250C9FCC
:104E8000BD54202CD7D103930C9B6246009302960D
:104E900043460194FFF740FF04B0E0BCBA46B14678
:104EA000A846F0BD012215001D40AA461A4227D08F
:104EB0004A46002A33D10C321A4230D1BC429BD22E
:104EC000202C00D08BE7202EC5D8DA06A4D4DAE750
:104ED0002024DA06D7D55A0503D4A74221D0B442FC
:104EE0001FD00F9A102A21D0022A10D0202CCAD00D
:104EF00022000134C2E72D220C9D2A550134C2E75D
:104F0000BC4200D386E7202C00D068E7E1E7202CE4
:104F1000B9D02200013462250C9FBD54E6E7013E62
:104F2000CCE7621E012C00D17AE7A1E79A0616D4DD
:104F3000202CA8D078220C9D2A550134D6E71A07D8
:104F4000A1D520220C9D2A5501349CE79A060ED447
:104F500078220C9C22703022627002246BE7202C95
:104F600091D058250C9A121915700134BEE75822B9
:104F7000EFE76222EDE7002AA7D1AAE7023C9D06EF
:104F800004D478250C9F3D551400B1E758250C9F9B
:104F90003D551400ACE71F226AE7C04610B5002853
:104FA00000D110BD01F03EFDFBE7C0460B0010B57F
:104FB000002802D049681B68984710BDF0B55746D5
:104FC0004E464546DE46E0B599B082468946904653
:104FD0000993229A239B10001900FCF76CFA002811
:104FE00000D0C8E0229823990122D54B5242FCF709
:104FF0005DFA002800D0BEE0229823990122D14B0F
:105000005242FCF73DFA002800D0B4E022982399E0
:1050100000220023FCF734FA002800D0E9E1229EA8
:10502000239F8023269ADB001A400D92269A1A426B
:1050300001D1062324933B00334300D0B4E0269BE8
:105040001B0500D5BFE1002300240A930B94002325
:1050500004250C93259B0024AB4200D95C1B022342
:10506000269A1A400D92269A134203D06B426B4146
:105070005B421C400C9B002B07D00A9A0B9B300014
:105080003900FCF794F906000F00229823990022BA
:105090000023FCF7F5F9002803D0802109067B18CE
:1050A0001F00269AA84B009601971340099E04936F
:1050B000249B03940293424633004946504600F035
:1050C000A7F90400002D67D02020269A4946024007
:1050D00013005A4253415B42621C18400A9233004B
:1050E00022004530D0470C9A6F1ED317D4185C406D
:1050F000D30F9B46002501E0202D13D008AA94462B
:105100001F23200063440A2101355E1901F052F982
:105110003031317020000A2101F04CF926000400E2
:10512000092EE9D805230693002304930A33039339
:105130005B46099E029310AB0A9A009349463300DE
:10514000504605970195FFF72FFE0D9A0400002A9F
:1051500022D04246851A259AAA421DD9B046574602
:10516000160022004346494620200135B847013445
:10517000AE42F6D810E0269B42460493259B494652
:105180000393249B50460293229B239C00930194FB
:10519000099B00F03DF90400200019B0F0BCBB46AB
:1051A000B246A946A046F0BD684B78009C46400D2B
:1051B0006044FCF793F9664A664BFCF716F9664AB9
:1051C000664BFCF7EBF8664A3B031B0B1A430400E3
:1051D0000D00644B110030000022FCF7D6F8624A43
:1051E000624BFCF702F902000B0020002900FCF7DB
:1051F000D5F8FCF78BF90C90FCF770F95C4A5D4B25
:1052000004000D00FCF7F1F800225B4BFCF7C6F838
:10521000FCF77CF9594A8346594B20002900FCF7DA
:10522000E4F8040058460D00FCF758F9554A564B6F
:10523000FCF7DBF802000B0020002900FCF7A5F8C2
:1052400002000B000A900B91FCF7CFF804000D0050
:105250000A980B9902000B00FCF7A0F800220E90B0
:105260000F914A4B20002900FCF7A1F80022484B7F
:10527000FCF794F802000B0020002900FCF797F8D7
:105280000022444BFCF78AF802000B0020002900A2
:10529000FCF78DF80A9A0B9B0D0080210400C905CC
:1052A0000020FCF772F802000B0020002900FCF738
:1052B00075F8394C02000B000E980F99FCF777F83F
:1052C0005C440022264BFCF769F823050022FCF71A
:1052D0008CF804000D0002000B00300039000A9425
:1052E0000B95FCF7CDF800285ED123002A00C625D7
:1052F0000C9963318D42AD4126996D420435090503
:1053000000D4A7E6134364D030003900234A244B6D
:10531000FCF7C4F8002807D0002230003900214BE8
:10532000FCF7AEF8002854D1249B002B00D191E665
:105330000D9B5A1E9341249AD31A24938AE6C046A1
:10534000FFFFEF7FFFFFEFFFFFF7FFFF01FCFFFF16
:10535000FB799F501344D33FB3C8608B288AC63F64
:105360000000F03F0000F83F61436F63A787D23F22
:1053700071A379094F930A400000E03F1655B5BB71
:10538000B16B0240EF39FAFE422EE63F00002C409E
:105390000000244000001840FF0300002D431CEBD8
:1053A000E2361A3F80842E410C9B0022013B0C9375
:1053B0002000164B2900FBF7FAFF0A00010003004A
:1053C0000A910B9293E7002300240A930B94002385
:1053D0000C93249A0C9B9A4214DDD31A013B24931C
:1053E0008023269ADB001A430023002526920C9383
:1053F00030E6802212069446229B1E00239B6344C3
:105400001F000EE600232493EAE7C0460000244074
:10541000F0B54546DE464E465746E0B595B08B465C
:10542000904699461E9A1F9B0A9019001000209DD5
:10543000FCF741F8002800D0B0E11E981F99012226
:10544000C74B5242FCF71CF8002800D037E11E98E9
:105450001F990122C34B5242FCF728F8002800D0C4
:10546000A7E01E981F990022BF4BFCF71FF80028E9
:1054700000D088E01E981F990022BC4BFCF700F872
:10548000002800D07FE01E981F9900220023FBF720
:10549000F7FF002800D0FAE000230B938023229C22
:1054A000229ADB001C401A4200D102E1092D00D8EB
:1054B0007EE106A98C462C00172200233021093CEE
:1054C00062440133D154EF1A202B00D132E1A342C0
:1054D000F7D10022A44B069207931E981F99FCF760
:1054E00015F80500FBF7FAFF02000B001E981F9944
:1054F000FBF74BFF069A079BFBF777FF0890099194
:10550000FCF728F80600FBF7E5FF02000B000898FF
:105510000999FBF73AFF0022954B08900991FBF798
:10552000C5FF002800D1D2E001363000FBF7D2FFE2
:10553000069A079BFBF7B2FF002801D00026013531
:10554000AA46002F00D098E02800FBF7C7FF020012
:105550000B001E981F99FBF718FF854B00220600D1
:105560000F00FBF78DFF0CAB9A46002845D10022B7
:10557000300039007E4BFBF799FF00283DD1EB0747
:105580003BD5013539E0229B42460493219B594685
:1055900003930A981E9B1F9C0295009301944B460F
:1055A000FFF70CFD15B0F0BCBB46B246A946A046BD
:1055B000F0BD229B5B0767D403226E4B22990192B8
:1055C000039121990291009342464B4659460A980D
:1055D000FFF7A2FBE6E706AA9446172328006344D8
:1055E0000A2101341E1900F0BDFE3031280031704F
:1055F0000A2100F0B7FE051E76D0202CEBD1032344
:10560000229A1340012B1DD1219B002B1AD00B9BFA
:10561000002B00D0BBE0229A0C33134200D0B6E03E
:10562000219BA34200D887E006AB9C46172230237B
:10563000624404E02199013413558C4259D0202C46
:10564000F8D12024229B01940393219B029353467B
:10565000B9E706AA944617230A21634430000134AF
:105660001D1900F0A7FE3031297030000A21013FDA
:1056700000F0A0FE092E46D90600202CE9D155469F
:105680000CAB20249A46B8E704223B4B96E71E9ABF
:105690001F9B00200021FBF778FE01230B93802342
:1056A000229C229ADB001E901F911C401A4200D0BF
:1056B000FCE60022314B0627069207930DE7229B5A
:1056C0000393219B0293042301932D4B7BE700223C
:1056D00008980999264BFBF7D3FE002800D02FE746
:1056E000002E4FD101362BE70323229A1340012BC2
:1056F00068D0202CA6D00B9B002B1FD02D23524608
:10570000135501349EE75546202CB9D030223B1961
:10571000002F4BD0172006A9013409180A55202C58
:10572000AED09C42F6D10CAA92462E2251465C1C69
:10573000CA5462E72024CCE6202C83D0229B5B074E
:1057400008D4229B1B0700D47CE720235246135524
:10575000013477E72B2352461355013472E7C046D4
:10576000FFFFEFFFFFFFEF7F65CDCD4165CDCDC1E1
:105770000000E03F5C7400105474001080842E41DF
:1057800064740010F30700D4DAE60136D8E6219BF2
:10579000013B2193A34200D946E7AAE7229B03934A
:1057A000219B029303230193084B0CE72300BAE7E4
:1057B000074BEA009B185C681B682F000693079450
:1057C00000248AE6219B002B93D020E76074001010
:1057D00008760010F0B5DE4657464E464546E0B521
:1057E0009FB01C00289B93460A93CC4ACC4B8A4618
:1057F00009901A60002900D14DE1002320789946D4
:10580000002800D14FE1C74B4D460893C64B0D937E
:105810000AE02A006E1C5B46099D5146A8473500E8
:1058200001342078002872D02528F2D1102399461F
:10583000083B9846043B00219C460227013420780F
:1058400026000300203BDBB2102B03D8089A9B00F4
:10585000D3589F460300303B092B6ED900272A28D6
:1058600000D18AE000230B932E2800D176E00300BC
:10587000683BDBB2122B1BD8AC4C9B00E3589F4615
:10588000012301341943DAE739430134D7E763468A
:1058900001341943D3E74B4601341943CFE743465C
:1058A00001341943CBE780235B007078194301363C
:1058B00067280AD824281FD90300253BDBB2422BD6
:1058C0001AD80D9A9B00D3589F460300693BDBB260
:1058D0000F2B11D801249C40954AA44690461440B1
:1058E0000C9462464446224200D025E20A2B00D1A5
:1058F00001E1072B00D1D8E0099C2A005B46514604
:10590000A04770786F1C741C3D0000288CD1A946FC
:105910002C00CB4503D801235B425B4499465B4690
:105920004A4651460020099DA84720001FB0F0BC00
:10593000BB46B246A946A046F0BD0027BB00DF1912
:1059400001367F003F183078303F0300303B092B91
:10595000F4D900230B932E2800D088E78023707899
:10596000DB0019430300303B741C092B00D82CE1E9
:105970002A2800D138E1260079E70A9B80CB002F46
:1059800003DB60780A93661C6CE70222607811439F
:105990007F420A93661C65E7672800D1C8E1472863
:1059A00000D104E2452800D104E207200A9B0491BB
:1059B0000733834319000B9A039702920CC9099885
:1059C000009201930A912A005B465146FFF7F6FACE
:1059D000741C050025E770786C2800D10DE2802347
:1059E0005B001943013663E780239B0070781943FD
:1059F00001365DE77078682800D1F9E1802301362F
:105A0000194355E7462800D18FE107200A9B0491EE
:105A10000733834319000B9A039702920CC9099824
:105A2000009201930A912A005B465146FFF7F0FC71
:105A3000741C0500F5E62A00099C5B4651462520AA
:105A40006F1CA0473D00741CEBE6890700D4DEE123
:105A50000A9B2A0098466B1C9946434601CB514647
:105A60009846099C5B46C0B2A047ED19012F00D8AB
:105A700093E24C46B1465646099F22005B460134EC
:105A800031002020B847AC42F7D1B24643464E46DB
:105A90000A93741CC5E6274B207809930023994686
:105AA000002800D0AFE6002433E70A9B1A0008CA9A
:105AB0009046002B00D1A7E0212008430EA98C4678
:105AC0001F2262440F27AC46814615000C9C02E061
:105AD000202C0CD013003800184001003731092861
