:020000041000EA
:1000000000B5324B212058609868022188439860DF
:10001000D860186158612E4B002199600221596106
:100020000121F02299502B49196001219960352056
:1000300000F044F80222904214D00621196600F024
:1000400034F8196E01211966002018661A6600F04E
:100050002CF8196E196E196E052000F02FF8012189
:100060000842F9D1002199601B49196000215960AB
:100070001A491B48016001219960EB211966A021F2
:10008000196600F012F800219960164914480160C1
:100090000121996001BC002800D000471248134993
:1000A000086003C880F30888084703B5996A0420EC
:1000B0000142FBD001200142F8D103BD02B5186610
:1000C0001866FFF7F2FF186E186E02BD00000240BE
:1000D000000000180000070000035F00212200005C
:1000E000F4000018222000A00001001008ED00E03C
:1000F00000000000000000000000000074B24E7A12
:1001000000200420F7010010C3010010C5010010F9
:10011000C1010010C1010010C1010010C101001097
:10012000C1010010C1010010C1010010C701001081
:10013000C1010010C1010010C9010010CB01001065
:10014000CD010010CD010010CD010010CD01001037
:10015000CD010010CD010010CD010010CD01001027
:10016000CD010010CD010010CD010010CD01001017
:10017000CD010010CD010010CD010010CD01001007
:10018000CD010010CD010010CD010010CD010010F7
:10019000CD010010CD010010CD010010CD010010E7
:1001A000CD010010CD010010CD010010CD010010D7
:1001B000CD010010CD010010CD010010CD010010C7
:1001C00000BE00BE00BE00BE00BE00BEEFF3058054
:1001D000103800BEF2EB88710C79001030790010F5
:1001E0003402001090A31AE700201F49086006C8D7
:1001F00081F3088810471D48006800282FD10DA4FE
:100200000ECC002902D000F012F8F9E71849194A7B
:10021000002000E001C19142FCD1174988471749ED
:1002200088471749884700BEFDE701C901C29A42C5
:10023000FBD3704730790010C00000200C3700203D
:100240007CAF001000000420000004207CAF0010F0
:10025000001004200010042000000000704709482E
:1002600001F0B4FF0047000008ED00E0000000D0FE
:1002700010370020EC3A0020313800105D0B0010E0
:10028000253900105756000006005250ABB360539A
:100290007878001006005250861C030288780010FF
:1002A000060052505422A29D98780010050052502A
:1002B000DE65F4687CAF0010F8B5C0460448054B15
:1002C00010B5834203D0044B002B00D0984710BDDB
:1002D0000C3700200C3700200000000006480749BA
:1002E000091A8B10C90FC91810B5491003D0044B57
:1002F000002B00D0984710BD0C3700200C37002091
:100300000000000010B5074C2378002B09D1FFF73F
:10031000D5FF054B002B02D0044800E000BF0123AD
:10032000237010BD383A002000000000A0710010BA
:10033000054B10B5002B03D00449054800E000BF71
:10034000FFF7CCFF10BDC046000000003C3A002083
:10035000A0710010F0B5CE46474680B5914685B0F5
:10036000114A8846051C01F04BF94400E40F0020B7
:100370004C4504D105B0C0BCB946B046F0BD281C00
:1003800001F06CFA4B46060040460F0003930294BE
:1003900001F064FA054D0090019132003B00280005
:1003A00006F01AFD0120E5E76D160010A07100109F
:1003B000FE2170B58E4C8905220084B0081C01F026
:1003C0001FF94000C30F002800DBA1E0220089498B
:1003D000894801F015F94000C50F002800DAA6E0B1
:1003E00022008649864801F00BF94000C60F00281C
:1003F00000DAABE0802122000020090601F000F9BC
:100400004000C30F002800DBADE000212200081CE3
:1004100001F0F6F84000C30F002800DBB5E08021B2
:1004200009062200081C01F0EBF84000C30F002869
:1004300000DBA6E0802022000021000601F0E0F8A9
:100440004000C30F002800DBA2E0220000206D491D
:1004500001F0D6F84000C50F002800DAA6E08020A1
:1004600022006849000601F0CBF8400000D5AAE060
:1004700022000021634801F0C3F8400000D5A9E044
:10048000802100225F480906FFF764FF00284BD156
:10049000FE2000225C498005FFF75CFF021E43D16D
:1004A000FE2159488905FFF755FF021E3CD15649E8
:1004B000081CFFF74FFF021E36D1FE21FF208905E1
:1004C000C005FFF747FF021E2ED1FF210020C905FE
:1004D000FFF740FF021E27D100214C48FFF73AFFEB
:1004E000021E21D100204949FFF734FF00281BD10B
:1004F000FF21C9050122081CFFF72CFF002813D19A
:1005000042490122081CFFF725FF431E98410CE0D9
:1005100000243F4D0122029303922B0022000094FD
:1005200001953C4806F058FC012004B070BD002342
:100530000022039301330293374B36480092019314
:10054000A022364B120606F047FCEDE701230022FD
:100550000293334B0395009201932E480022314BB6
:1005600006F03AFCE0E70122029380230392002286
:100570001B060092019327480022002306F02CFC62
:10058000D2E7802500242D06C4E700240025C1E71A
:10059000012202930392002300221E48009201933D
:1005A000802300221B0606F017FCBDE70123002272
:1005B00002931D4B039600920193164800220023DC
:1005C00006F00AFCB0E70123002202931148164B03
:1005D0000395E3E7002303930133002202930023F2
:1005E0000C480092019300220F4B06F0F5FB9BE7AD
:1005F0006D160010A85B3F4425529A44008029C420
:100600000000F6C2000080BF0000C07F000080FF35
:100610000000F03FA071001075EB8740444A934002
:10062000003085C000C05EC00000F0BFF0B5CE460F
:10063000474680B587B09046051C0C1C01F046F873
:10064000431E9841814640452BD1211C281C01F0B6
:100650004DF8431E984100260700484505D030005C
:1006600007B0C0BCB946B046F0BD211C281C01F043
:1006700042F80028F3D1281C01F0F0F8012304907F
:1006800005917B40201C0393029701F0E7F8049A40
:10069000059B0F4D00900191280006F09DFB01265F
:1006A000DDE7281C01F0DAF8434603934B460600C9
:1006B000201C0F00029301F0D1F8064D320000908B
:1006C00001913B00280006F087FB0126C7E7C046E2
:1006D0000C720010E0710010F0B5CE46474680B5B0
:1006E00087B09046051C0C1C00F0EAFF431E9841A1
:1006F000814640452BD1211C281C00F0EFFF431EF2
:10070000984100260700484505D0300007B0C0BC1E
:10071000B946B046F0BD211C281C00F0ECFF0028B3
:10072000F3D1281C01F09AF80123049005917B4035
:10073000201C0393029701F091F8049A059B0F4D3A
:1007400000900191280006F047FB0126DDE7281CF8
:1007500001F084F8434603934B460600201C0F002B
:10076000029301F07BF8064D3200009001913B00AE
:10077000280006F031FB0126C7E7C046647200106E
:1007800038720010F0B5DE4657464E464546E0B595
:10079000454B87B016001A008846051C9A4600F0A3
:1007A0002FFF424B04001A00291C4046994600F0D6
:1007B00027FF52460700291C404600F021FF4A4609
:1007C0004146281C00F01CFFBC4257D1731C33D09B
:1007D00072427241012391469A466300DB0FA400E6
:1007E0009B46E40F4B4531D154452FD17E00BF00CD
:1007F000F60FFF0F4E4502D10020574515D0281C9B
:1008000001F02CF8534605934B46040040460D007A
:1008100004930397029601F021F8220000900191C1
:100820002B00234806F0D8FA012007B0F0BCBB46E5
:10083000B246A946A046F0BD002399469A466300F9
:10084000DB0FA4009B46E40F4B45CDD0281C01F0E4
:1008500005F8534605934B4604935B460600404615
:100860000F000293039400F0F9FF124D00900191E4
:1008700032003B00280006F0AFFAD5E7281C00F054
:10088000EDFF040040460D0000F0E8FF02000B0001
:100890000494059502920393009201930648220066
:1008A0002B0006F099FABFE76D16001061160010D4
:1008B00020730010CC72001090720010FE21F0B571
:1008C0004B4F890587B03A00081C00F099FEFE21C5
:1008D000484E890504003200081C00F091FEFE21FC
:1008E000890505003A00081C00F08AFEFE218905F2
:1008F0003200081C00F084FEAC4220D16300A4004A
:10090000DD0FE60F002B0BDA002C09DADD0FE60F06
:10091000002B01DA002C1EDB0022374B374802E0A7
:100920000022354B36480121009201930591049134
:100930000396029506F050FA012007B0F0BD0022A0
:100940002D4B304804920593029203930092019339
:1009500006F042FAF0E701222B492C48FFF712FF7C
:100960000028E9D10122294927485242FFF70AFF0E
:100970000028E1D1012226492648FFF703FF00287D
:10098000DAD10122234922485242FFF7FBFE002818
:10099000D2D1012220491F485242FFF7F3FE00281E
:1009A000CAD101221B491C48FFF7ECFE0028C3D125
:1009B0008021002200200906FFF7E4FE0028BBD1B9
:1009C000FE20012215498005FFF7DCFE0028B3D187
:1009D000FE21012211488905FFF7D4FE0028ABD182
:1009E0000E490122081CFFF7CDFE431E9841A4E7E3
:1009F0006D160010611600100000F03F207300100B
:100A0000CC72001090720010A85B3F4425529A44AB
:100A1000008029C40000F6C2008029440000C07F85
:100A2000FE21002210B508488905FFF7FFFD0300ED
:100A30000120002B00D010BD03490022081CFFF745
:100A4000F5FD431E9841F6E70000C07FFE2100221D
:100A500010B508488905FFF73FFE03000120002B71
:100A600000D010BD03490022081CFFF735FE431ECD
:100A70009841F6E70000C07F002110B5081C82B045
:100A800000F039FE00282BD1FF212C48C90500F0C9
:100A900032FE041E2CD10021294800F02CFE012832
:100AA0003AD10020264900F026FE01282AD1244907
:100AB000081C00F020FE012838D12149214800F00F
:100AC0001AFE012809D000221F4B204800920193F2
:100AD00000221F4B06F080F90124200002B010BD57
:100AE0000022002319480092019306F075F9F3E7FC
:100AF0000022184B1548009201930022164B06F075
:100B00006BF9E9E70022104B104800920193002294
:100B1000002306F061F9DFE7002200230B48009272
:100B200001930022084B06F057F9D5E70022064B47
:100B300006480092019306F04FF9CDE7000080FFD0
:100B40000000C07F0000C0FF0000F87F7473001039
:100B50000000F8FF0000F07F0000F0FFF0B5DE4677
:100B6000454657464E46E0B59DB001F061FBDF4972
:100B7000DF4B086849681A685B6804F0FFFC0100F5
:100B8000DC4D4B1E9941280006F026F903239A46B6
:100B9000D94BAB469946D94B9846484600F05EFE85
:100BA000032506000F00D44C211C484600F088FDA8
:100BB000431E98410290201C00F050FE320000902D
:100BC00001913B00404606F007F9FE21201C8905F3
:100BD00000F028FD013D041C002DE5D1FE21484612
:100BE000890500F01FFD01235B429C46E244534609
:100BF0008146002BD1D103239A46BF4B9946C04B67
:100C00009846484600F02AFE032506000F00BA4C1D
:100C1000211C484600F06AFD431E98410290201CAA
:100C200000F01CFE3200009001913B00404606F0AF
:100C3000D3F8FE21201C890500F0F4FC013D041CC2
:100C4000002DE5D1FE214846890500F0EBFC01238B
:100C50005B429C46E24453468146002BD1D1A948D1
:100C60005D4605F0C7FF0926A34C201C00F076FD69
:100C70000100280006F0B0F8FA21201C890500F0D8
:100C8000D1FC013E041C002EEFD19F4805F0B2FFBD
:100C9000092400269D4F3900300004F0ADFC01000E
:100CA000280006F099F8300039000022984B04F033
:100CB000FBFB013C06000F00002CECD109260024B0
:100CC000944805F097FF914D934F2000290004F0C0
:100CD000CFFC02000B00380006F07EF8200029004F
:100CE00000228B4B04F0E0FB013E04000D00002EBF
:100CF000EBD18A4BBE24452598462406201C00F0E3
:100D0000ADFD0600201C0F0000F094FD0690079139
:100D1000201C00F055FD0490201C00F06DFD029099
:100D20000391201C00F01AFD32003B000090404669
:100D300006F052F8211C201C00F074FC013D041C3C
:100D4000002DDBD1F8244535A405201C00F086FDDC
:100D50000600201C0F0000F06DFD06900791201C7E
:100D600000F02EFD0490201C00F046FD029003913F
:100D7000201C00F0F3FC32003B000090404606F0DF
:100D80002BF8211C201C00F04DFC013D041C002D03
:100D9000DBD1452600244746614D2000290004F0A0
:100DA00087FC069007912900200004F049FC2900E7
:100DB0000490200004F05CFC0290039129002000C4
:100DC00004F01AFC22002B000090380006F004F812
:100DD00022002B002000290004F066FB013E0400E5
:100DE0000D00002ED9D1FF2500244536AD05200089
:100DF000290004F05DFC069007912900200004F012
:100E00001FFC29000490200004F032FC02900391A2
:100E10002900200004F0F0FB22002B000090380095
:100E200005F0DAFF22002B002000290004F03CFB33
:100E3000013E04000D00002ED9D180242025394E1A
:100E40002406200004F0C0FB0B000200210030004B
:100E500005F0C2FFE30F1C19013D6410002DF0D115
:100E600080241F35E405200004F0AEFB013D0200A4
:100E70000B003000210005F0AFFF6410002DF2D10F
:100E80000022294B294805F0A7FF294B00221C000E
:100E900019932000244B05F09FFF2000254B264A84
:100EA00005F09AFF03239B46002300255C460A9326
:100EB000224B0B93224B0C93224B0F93224B1093FC
:100EC000224B1193224B1293224B1393224B1493D8
:100ED000224B1593224B1693224B1793224B1893B8
:100EE000224B0D93224B0E9344E0C046003200206B
:100EF000F83100208C720010000080BFB073001029
:100F0000C0730010D0730010D47300100000F0BF45
:100F10000000D03FD8730010DC730010E4730010A1
:100F20000000C0BFFC7300100000E03F1C74001004
:100F3000047400105555D53F55555555147400107F
:100F400020740010307400104074001050740010B1
:100F50006C7400107C7400108C7400109C74001071
:100F6000AC740010BC740010CC740010DC74001061
:100F7000EC740010281C00F071FC02000B000B98B0
:100F800005F02AFF281C00F073FC061C281C06F044
:100F90008FF8301C00F062FC02000B000C9805F08A
:100FA0001BFF281C00F074FC8346281C06F0E0F8A8
:100FB000584600F053FC02000B000F9805F00CFFA0
:100FC000281C00F077FC8246281C06F081F8504669
:100FD00000F044FC0B000200109805F0FDFE1BAA77
:100FE0001AA9281C00F078FC1A9800F037FC0600BB
:100FF0001B980F0000F032FC32003B000090019182
:10100000119805F0E9FE281C00F07EFC061C281C47
:1010100006F0B6F8301C00F021FC02000B0012981C
:1010200005F0DAFEEC49281C00F094FCEA49061CA5
:10103000281C06F05DF8301C00F010FC139F020025
:101040000B00380005F0C8FE291CE34800F082FCC4
:10105000291C061CE04806F04BF8301C00F0FEFB93
:1010600002000B00380005F0B7FE281C00F07CFCE5
:10107000061C281C06F04CF8301C00F0EFFB0200A8
:101080000B00149805F0A8FE281C00F073FC061C49
:10109000281C06F05DF8301C00F0E0FB02000B009D
:1010A000159805F099FE291C281C00F0CDFD291C7F
:1010B000061C281C06F014F8301C00F0CFFB0200C0
:1010C0000B00169805F088FE281C00F077FD061C22
:1010D000281C05F0C5FF301C00F0C0FB02000B000F
:1010E000179805F079FE281C00F038FB0600010077
:1010F000281C00F04DFD3100071C281C06F030F8BC
:10110000381C00F0ABFB02000B00189805F064FEE1
:10111000B249281C00F064FEB049061C281C05F0EA
:10112000A7FF301C00F09AFB0B0002000D9805F0A1
:1011300053FE1BAA1AA9281C00F0CEFB1A9B984646
:101140001B9B4046994600F089FB060048460F006D
:1011500000F084FB3200009001913B000E9805F0F6
:101160003BFE5146404600F0A3FA002805D0594600
:10117000484600F09DFA002804D1994805F03AFD50
:1011800001230A93FE21281C890500F04BFA013C3B
:10119000051C002C00D0EDE6032600240025914B11
:1011A000914F9946914B9846914B9A46914B9B464D
:1011B000914B0B93914B0C9322002B00484605F06A
:1011C0000BFE2000290004F097FA02000B0019988A
:1011D00005F002FE2000290004F0A4FA02000B0032
:1011E000404605F0F9FD2000290004F0B1FA0200A4
:1011F0000B00504605F0F0FD2000290004F0BEFA77
:1012000002000B00584605F0E7FD002220002900EF
:101210007B4B04F0E1FA02000B00380005F0DCFD26
:1012200022002B000020764904F0D6FA02000B00C1
:10123000380005F0D1FD2000290004F0D9FA0200A1
:101240000B000B9805F0C8FD2000290004F0DCFA23
:1012500002000B000C9805F0BFFD200029000022C1
:10126000684B04F021F9013E04000D00002EA3D1CB
:101270000124654D20366442200000F04DFA00F054
:10128000EDFA02000B002800210005F0A5FD20006A
:1012900000F042FA013E200005F04AFF6400002EF3
:1012A000EAD101242036200000F036FA00F0D6FA08
:1012B00002000B002800210005F08EFD200000F048
:1012C0002BFA013E200005F033FF6400002EEAD126
:1012D000012400254D4F40362900200000F07EFA01
:1012E00000F0BCFA22002B0000900191380005F0BC
:1012F00073FD2900200000F071FA013E2000290052
:1013000005F046FF24196D41002EE5D10124644209
:10131000E51740362900200000F060FA00F09EFA40
:1013200022002B0000900191380005F055FD2900A6
:10133000200000F053FA013E2000290005F028FFAC
:1013400024196D41002EE5D120250124002200231F
:1013500000212F4805F040FD2E4E200000F0D7F967
:1013600000F07CFA02000B003000210005F034FD93
:10137000200000F0CCF9013D200005F081FE640062
:10138000002DEAD130000124402600250022002350
:10139000002105F021FD204F2900200000F01EFA59
:1013A00000F05CFA22002B0000900191380005F05B
:1013B00013FD2900200000F011FA013E2000290051
:1013C00005F0E6FE24196D41002EE5D1C026134B31
:1013D00043279846F6052CE00000204100004040DD
:1013E0000475001014750010507500102075001061
:1013F0003075001040750010607500107075001099
:10140000000024400000F03F7C750010887500103B
:1014100094750010A0750010AC750010B875001020
:10142000FC21301C890500F014F9013F061C002F37
:101430001CD0301C00F012FA0400301C0D0000F02B
:10144000DBF92200009001912B00404605F0C4FC1E
:10145000BE21301CC90500F041F90028E0D1301C44
:1014600000F0CAF9301C05F0F3FDD9E75D4B5E4E84
:1014700098464237301C00F0F1F90400301C0D0092
:1014800000F06CF922002B000090404605F0A4FC0F
:10149000301C00F063F9301C05F052FEFC21301CBA
:1014A000890500F0D6F8013F061C002FE2D1BF26C7
:1014B0004237F605301C00F0D1F90400301C0D0055
:1014C00000F04CF922002B000090404605F084FC0F
:1014D000301C00F043F9301C05F032FEFC21301CBA
:1014E000890500F0B6F8013F061C002FE2D13F4B02
:1014F000FE2698460537B605301C00F0AFF904000B
:101500000D003B48311C00F090F800F0A7F908905E
:101510000991FE20311C800500F087F800F09EF94B
:10152000069007913349301C00F079F800F096F9E5
:10153000049005912F49301C00F074F800F08EF9EA
:1015400002900391311C301C00F083F800F086F902
:1015500022002B0000900191404605F03DFC311C1B
:10156000301C00F076F8311C301C05F069FDFE20BF
:10157000311C800500F059F8FE20311C800505F073
:10158000BFFD8021301CC90500F04CF8013F061C4E
:10159000002FB1D10A9B002B03D1FEF709FF0028D1
:1015A0000BD0154805F026FB012420001DB0F0BC2F
:1015B000BB46B246A946A046F0BDFFF77FF900281A
:1015C000EFD1FFF759FA0028EBD1FFF729FA0028ED
:1015D000E7D1FFF73BFA041EE3D1084805F00AFB08
:1015E000E3E7C046C8750010000080DFD875001022
:1015F000A379EB4C176CC13E0876001010760010F2
:1016000000B59047EFF3008000BD10B5029CA047E5
:10161000EFF3008010BDC0464840414048400E4BAB
:101620005B6818470C4B1B6818470C4A936F9B0864
:1016300002D2094BDB681847F0B5146E556E576F30
:10164000166FFFF7F6FF054A14665566576716676B
:10165000F0BD014B9B68184738390020000000D0CE
:1016600007B548404140484001E0C04607B5420048
:10167000120E03D0FF2A03D1420218D8C00DC005B4
:101680004A00120E03D0FF2A03D14A020FD8C90D17
:10169000C9050122414005D4414001D5814207BD21
:1016A000884207BD0143491801D0C043001807BD57
:1016B00000B5FFF7DBFF01D0002000BD012000BD19
:1016C00000B5FFF7D3FF804100BDC04600B5FFF76E
:1016D000CDFF01D9002000BD012000BD00B5FFF7FE
:1016E000BFFF01D9002000BD012000BD00B5FFF7FC
:1016F000B7FF804100BD01231B064200D21804D869
:101700004A00D21801D80020704701207047491ABA
:10171000002807D108467047C10FC90700D54042CD
:10172000002817D0F44603B40B4B1B68984706BC3F
:1017300081409E384042803107D20B0607D04900D5
:10174000490AC0051043084360470130F8E7490AD9
:101750008902F5E770470000C83A002041000A0EF0
:1017600080231B067E2A0BDD9E3A0BDAC11740024E
:10177000400818435242D040490001314843704765
:1017800000207047C00FC01801387047C0420DD309
:1017900000B540004008002100F012F8002801D4F4
:1017A000404200BD8020000600BD0000034BDB6905
:1017B000FC4618471CDFDD200010000038390020EF
:1017C000014B5B6A1847000038390020014B1B6B46
:1017D0001847000038390020054A1047C2179142C7
:1017E000FAD0044BDB6DFC4618475CDF2320001069
:1017F0001917001038390020C04211D300B540003D
:101800004008002100F020F8002904D400224042C2
:101810008A41114600BD80210906002000BD00005C
:10182000034BDB6EFC4618476CDFF5200010000010
:1018300038390020034B5B6FFC46184774DFFF20EC
:101840000010000038390020034B9B6FFC461847FE
:1018500078DF01210010000038390020034BDB6FD6
:10186000FC4618477CDF9D2100100000383900201D
:10187000C11502D4054B9B691847C843FF2801D105
:10188000C0077047C817C0057047000038390020EE
:101890004100090E862902DA044BDB6B1847044924
:1018A00000B500F099FB02BC8E46F5E73839002000
:1018B000DB0FC9404100090E862902DA044B1B6C7C
:1018C0001847044900B500F087FB02BC8E46F5E7D7
:1018D00038390020DB0FC94006B543001B0E862BAC
:1018E00006DA074B1B6C98470CBC1060196000BDF2
:1018F000044900B500F070FB02BC8E46F1E7000021
:1019000038390020DB0FC9404100090E862913DA5F
:101910000D4A936F9B0802D20C4B5B6C1847F0B5D5
:10192000146E556E576F166FFFF7F6FF064A146672
:10193000556657671667F0BD054900B500F04CFBCA
:1019400002BC8E46E4E70000000000D038390020D9
:10195000DB0FC940034B9B6DFC46184758DF5520F1
:101960000010000038390020014BDB6C18470000E4
:1019700038390020014B1B6D184700003839002012
:10198000132310B512481C7800F028FC0100012C2C
:101990000AD003DD80220F4805F04AF80E4800F017
:1019A00015FC0E4B186010BD0A4C5422200005F0A7
:1019B0003FF80B4B6365A365E36523666366A36627
:1019C000E36623676367A367E3672362E361E5E791
:1019D00053460000383900204C330000C83A00203C
:1019E000E51F0010F8B5CE4647460C0080B5051C33
:1019F00001294AD0CE0F76187610012E3DD003274C
:101A0000CA1717407F18BF10012F2ED0072313408D
:101A10005B18DB109846012B22D00F2313405B1874
:101A20001B119946012B12D00B00203B1F2B05D90F
:101A30000021FFF7D7FF011CFFF70BFE011CFFF78A
:101A400008FE4B46DB0702D5291CFFF702FE011CEE
:101A5000FFF7FFFD4346DB0702D5291CFFF7F9FD21
:101A6000011CFFF7F6FDFF0713D4011CFFF7F1FD82
:101A7000F60702D5291CFFF7ECFD011CFFF7E9FD75
:101A8000E40702D5291CFFF7E4FDC0BCB946B04607
:101A9000F8BD291CFFF7DDFDE7E7C046F8B50400F7
:101AA000061C0D1C002817DA4B001B0E7F3B0ED4C2
:101AB0001722D31A0BD401210A009A40013A2A4274
:101AC00005D1172B27D02A00DA40114223D18023D9
:101AD0001B069C466444261C281CFFF73FFEE30DB2
:101AE00007000100002B21D0FF2B1FD064021DD165
:101AF000264A904245DBFF2841DC7F3B5F433B00A9
:101B00007F330020002B10DDFE2B3CDCFE23FF0585
:101B10009B05F81809E080231B06E018291CFFF735
:101B2000BDFF80231B069C466044F8BD002F10D0EB
:101B30003B002033402B0FD8002F06DAFE20311C4B
:101B40008005FFF772FD7942061C301CFFF74AFF43
:101B5000EBE7FE208005E8E7301CFFF77FFE03F08F
:101B600053FE06000F00281CFFF778FE32003B00F2
:101B700003F0C1FC03F03CFE03F0B2FDD5E7FF2704
:101B8000BBE71700B9E7FF20C005CEE700FFFFFF66
:101B90004200120E0BD0FF2A09D05218002A07DD8E
:101BA000FE2A08DDC30FFF20DB07C005184370477E
:101BB000C00FC007FBE7C9050818F8E743001B0E74
:101BC0007F3B08D41722D31A002B03DD163A9A4024
:101BD000534218407047C00FC007FBE7420010B5E2
:101BE000031C0400120E11D07F3A0AD417218A1A5E
:101BF000002A05DD01209040002B0ADB40422040F6
:101C000010BD0020002BFBDA0348F9E7C30FD8070B
:101C1000F6E7441EE418F1E7000080BF10B5C30DDD
:101C2000FF2B09D0054A934204D0FE218905FFF716
:101C300091FE10BD0248FCE70248FAE7FF010000F0
:101C4000DB0FC9BFDB0FC93FF8B5CE4647460D1CB9
:101C5000FE2180B58905041CFFF72AFD261C0028FB
:101C60002BD1EB0DFF2798463B40994643461F4238
:101C700028D05849201CFFF71BFD002825D04B46D3
:101C8000FF2B1FD04346FF2B3ED0534B984535D0FA
:101C9000504A49467F3900D578E017235B1A002B5C
:101CA00006DD012199400B00013B2B4200D06DE085
:101CB000291C201CFFF7F2FE061C301CC0BCB946D4
:101CC000B046F8BDFE26B605F7E73900E30D220061
:101CD00019401F4214D14A46002D18DB7F3A0DD41B
:101CE00017239B1A0AD401210A009A40013A2A427A
:101CF00004D1172BE1D0DD402942DED10026DCE7FC
:101D0000FF2B1AD1002DF9DBFF26F605D5E77F3A28
:101D1000FAD417239B1AF7D401210A009A40013AFA
:101D20002A42F1D1172B02D0DD402942ECD0FF2608
:101D3000E40FE407F6052643BFE7274883423BD17B
:101D40004A46002D10DB7F3ADED417239B1ADBD4E2
:101D500001229A40013A2A42D6D1172B02D0DD4007
:101D6000ED07D1D51D4EA8E77F3AC7D417239B1A9C
:101D7000C4D401229A40013A2A42BFD1172B02D083
:101D8000DD40ED07BAD58026360696E7002ABBDB94
:101D9000201CFFF763FD03F037FD06000F00281C31
:101DA000FFF75CFD32003B0003F0A5FB03F020FDD4
:101DB00003F096FC061C80E74346FF2B05D08045C8
:101DC00000D066E77E2999D89EE77E299CD8002618
:101DD00073E7C046000080BFFF010000000080FFE5
:101DE000F8B5FF24CE464746C20D031CC80D22405D
:101DF00080B50440FF2A3DD0002C3BD0D80F804650
:101E0000002A09D103000020002B01D08020000609
:101E1000C0BCB946B046F8BD181CA242F8DB80260B
:101E20005B02490236045F0A490A3743151B0E4319
:101E3000A24223D00120F111404203F0E5F81D2118
:101E400081462A000C2D00DD0C2248467B124343BC
:101E5000881A0341974001335B107343AD1AFF1A90
:101E6000002DEEDCBE4208DD002F0ADABF1908D5CE
:101E7000BF1906E0FF20C005CAE7BF1BBE4200DC59
:101E8000BF1B4346002B00D07F4296213800091B20
:101E9000FFF79CFCBCE7C046F0B546464F46D64629
:101EA000C0B5FF26C50DCB0D354088461700041C74
:101EB0001E40002A01D000231360FF2D52D0002EB7
:101EC00050D0002D55D0201CFF2E4DD03300013BAB
:101ED000B246AB4248DC802212049146E10F640214
:101EE000640A144342464E465202520A1643B14611
:101EF000AB4240D0002954D0534600216442ED1A31
:101F0000002D5ADD4B460120D911404203F07CF8E8
:101F10001D2300219C462A000C2D00DD0C22664664
:101F2000631294404343B61A334126004C46914015
:101F300001335B105C435918341BAD1A002DEADCE9
:101F4000A14538DC4B46E41AA14541DCE41A0231D4
:101F500063004B4502DC16D1CB0714D54B4601314B
:101F6000E41A10E0FF20C005E0BCBA46B146A8461E
:101F7000F0BD0020F8E7B442F6DD7300002922D15D
:101F8000AA46E41A01314346002B00DA4942002FE9
:101F900000D03960534696212000C91AFFF716FC7D
:101FA000E2E75346ED1A002DACDC0021B442D5DB4C
:101FB0000121A41BCCE7002CCADA4B46E41809D552
:101FC0004C440239C4E70121AA461C1B4942DAE706
:101FD0000131BDE70139BBE710B50022FFF75CFF17
:101FE00010BDC04607B5604601880A0A0230DF2AE4
:101FF000FAD1C9B2820804D3028840880004104391
:1020000000E00068014A5050039007BD38390020B5
:10201000002230B5002906D5CD0705434808013A0E
:1020200010E0002230B505000D430FD0CD170C167F
:10203000AC4205D1C901440E2143C0010732F6E785
:102040000500080052423D320149884730BD00007A
:10205000EF29000030B51D4CA446E0470446084671
:10206000214614461A462346E04740014901D41848
:10207000641201340AD4D41A05DA644220411C2CBB
:102080000DD3C0170BE021411C2C08D3002804DA23
:102090000F4B1868C917484014E0C81712E0002217
:1020A0000B4B002802DA404249421A680124094DCC
:1020B000A8471046064B1A68841802D2841A00D426
:1020C000A01A01380022044B18470000C129000063
:1020D000FC2C0000972B0000192B00000021C215DA
:1020E0008032803201D0024A104700207047000041
:1020F000CD2A0000002100B500F004F845E00021E1
:10210000C31518D410B58C46C3174000020E0BD06F
:10211000FF2A0DD0511E7F3A0906401A5840C01AB6
:1021200001110007054C204700200100030010BDED
:10213000D843D94310BD0020002170474121001031
:102140006244343A0CD40C2A07DA040091409040DF
:1021500052422032D440214310BDD843D94310BD50
:10216000203207D40C469440524220321141D040D4
:10217000204310BD0800C917203203D45242203238
:10218000104110BD1800190010BDCA179A4200D1A5
:1021900000BDD8430121C907414000BDC30FDB0783
:1021A00041000A0E07D0FF2A08D00909054A8918FC
:1021B0001943400770471900002070470249C918A9
:1021C000FAE70000000000380000F07F142310B58B
:1021D0000100188804331B88984710BD162310B5DA
:1021E0000100188802331B88984710BDF8B5474690
:1021F000CE4680B50F1E19D014239946043304002F
:102200000025012698464B461888434621681B88BE
:10221000984701C4431E9841013540420640AF42F1
:10222000F1D13000C0BCB946B046F8BD0126F8E790
:1022300010B504F0A9FE10BD094A10B5944640241B
:10224000830063441A68C0006240803414408022D6
:10225000520113431C60034B9C466044416010BD17
:1022600004C0014000400140024B18688007C00FC5
:102270007047C04600C0064070B5EFF3108C72B6D0
:102280000D4D2B68002BFCD0BFF35F8F0724CB08CC
:10229000C618C05C01230C40A3401C00044003424C
:1022A00007D118433070BFF35F8F2C608CF3108818
:1022B00070BD100001F03AFB2C0100D00021044B4E
:1022C000044ABFF35F8F02C39342FAD17047C046FE
:1022D000000100D0800100D0044A1078431CDBB21A
:1022E000172B00D9102313707047C0460832002006
:1022F00001238340002904D0034A1360034A13607A
:102300007047034A1360FBE780E200E000E100E071
:1023100080E100E0024B10309B688000C05870479D
:1023200000ED00E070B50D00EFF3108672B60F4AB5
:102330001368002BFCD0BFF35F8F0D4B10309B68F0
:1023400084001B590B4A934203D09D4201D001F0F7
:1023500005FB074B9B681D51BFF35F8FBFF35F8F7A
:102360000022024B1A6086F3108870BD240100D051
:1023700000ED00E0CD010010F0B5DE4657464E46B8
:102380004546E0B50C0083B0EFF3108872B65D4AA5
:102390001368002BFCD0BFF35F8F5B4B5B499A68DF
:1023A000030010339F00D5598D4239D0A5424AD041
:1023B000574EAA1B2F2A33D80122924682409146BB
:1023C0004846544A1268104001904846524A1060EC
:1023D000BFF35F8FEFF305829346002A35D0934217
:1023E00001D001F0BBFA2A0053469A439068844218
:1023F00008D175E04B005B189B00F3189868A04269
:1024000034D01A00062151560029F3DA844253D001
:10241000019B002B26D04A46404B1A603D4B1A6068
:10242000394B9B68DD51BFF35F8FBFF35F8F002295
:10243000344B1A6088F3108803B0F0BCBB46B24638
:10244000A946A046F0BD0D00EAE72A0053469A438C
:1024500090688442D6D1062010561300002809DA6D
:102460000D0031E04A462C4B1A60D9E70620185679
:10247000002822DB42001118890074188A46A168DE
:102480009960E179D971062161569971002925DB9E
:10249000A488F11A6405241554440919E024090597
:1024A000490D24022143998013181D4A9B0011787D
:1024B000F31899711070ABE713005946002914D135
:1024C000FF3191711749918015490A789A71164A1E
:1024D0009B1B5B415A43120D0A7099E71349E2E7CF
:1024E0000620105613000028C4DA114A1149D21AE6
:1024F000083A5002400D014399800F4952080A439F
:10250000DA8085E7240100D000ED00E0CD01001065
:102510000C32002000E100E080E100E080E200E019
:10252000E93A002001BDFFFFAAAA000001BD00009A
:102530004632002000F0FFFF00F8FFFF70B5EFF318
:10254000058101240443EFF3108C72B6214A13680D
:10255000002BFCD0BFF35F8F1F4B05001F4AED1A05
:102560006D416A43120D1E4D8900AE6852B2765815
:10257000A6421CD00621595691421CD01221595610
:10258000914222D01E215956914220D02A215956DB
:102590000324914210D0134B19781A708171BFF344
:1025A0005F8F00220B4B1A608CF3108870BDAB68F4
:1025B0000D4C5C50EFE700246100091989005B189D
:1025C000FF21997109499980E5E70124F4E7022484
:1025D000F2E7C046240100D00C320020AAAA000075
:1025E00000ED00E0E93A0020CD01001001BDFFFF41
:1025F000054B064A1360064A136053609360D3602C
:1026000013615361936170478080808000E400E033
:1026100004E400E0024B9C4661448900016070477D
:102620004000003410B50400FFF756FE0100200002
:10263000FFF7F0FFFF232371BFF35F8F10BDC0468C
:1026400010B50400FFF748FE01002000FFF7E2FF8D
:10265000FF23A380BFF35F8F10BDC04683680B4884
:1026600010B58446614462441201090159189B184F
:102670005C684A680120944201D802D00020C0B2B0
:1026800010BD1A680B689A42F9D8F7E7FFFFFF0FF1
:102690000A4B1968EFF3108072B60A68002AFCD062
:1026A000BFF35F8F1B68BFF35F8F00221A6080F358
:1026B000108840BF002000217047C046CC3A00205F
:1026C000F8B5574645464E46DE46E0B598460CAB53
:1026D0001C780DAB1B78070091469A460568002CC4
:1026E0005ED1AC7B002C3BD0660029683619033ED6
:1026F00089194B78AB73002B00D1EB7300238B70DF
:102700004B700B702D4BE218BB6812019B184A46A8
:102710001A6042465A600A9A9A600B9ADA6000235D
:102720008B704B700B706B7B9B46002B2BD0220069
:102730005946A8686B6898472A68002816D05B46F7
:1027400058465B005B449619033BB070D118D35CCC
:10275000002B00D073705B460C706B735C4513D01C
:10276000F0BCBB46B246A946A046F8BD5B465B003E
:102770005B44033BD3189C709119925D002A00D0F2
:102780005A705B460B706C734A464346387D00F0C6
:1027900055FB051E0AD10E9B002BE1D01D70DFE713
:1027A000660029683619033E8919ABE75346002BAA
:1027B000F1D12100386800F065FDECE7FFFFFF0F65
:1027C000F0B5DE4657464E4645460023E0B58BB091
:1027D0000893684B8200D45800239B46099000F070
:1027E000A9FA02000B006068EFF3108A72B6564631
:1027F00001680029FCD0B246BFF35F8F21684F7B90
:102800008C46002F2ED0A5685B49A946791809018E
:10281000894449460868496805000E00AD1A9E4182
:10282000002E5FDD02000B00099800F007FB00237B
:102830000022994600230692079300239846636876
:10284000BFF35F8F5A461A608AF310884346002B05
:1028500012D10028C3D10BB0F0BCBB46B246A9468A
:10286000A046F0BD0023002299460023069207935C
:10287000002300209846E2E7089B494618023843A7
:10288000C047626805000E00EFF3108A72B6136845
:10289000002BFCD0BFF35F8F002E41DB2B003343B6
:1028A00002D02369002B56D12368D97B002905D09B
:1028B0001A68480041185218033A57709A7B002A48
:1028C00000D19F73DF73E268013FD35D0133D355BD
:1028D0005B4623616368BFF35F8F5A461A608AF3D1
:1028E00010887CE7002E02D1002D00D09AE700214D
:1028F000604600F045FC4B461A685B6806920793F9
:102900004B469B6898464B46DB689946E368DB1963
:10291000013B1B7808931B020343236100208EE7D1
:102920002369002BC0D0069A079B8021521BB3411C
:1029300009068B4202D30122104B5242002104911E
:1029400001310391494601914146200002970091CF
:10295000FFF7B6FEBCE700F0EDF92A0033001218CD
:102960004B41802109068B42E8D30122034B52429E
:10297000E4E7C046B83A0020FFFFFF0FFFFFFF7FEC
:1029800010B5144C6368002B04D00A211248FFF7DD
:1029900041FE10BD2300114A1021206800F006FB03
:1029A000032000F0BBF9032000F0B0FA03200C492B
:1029B00000F0FEF9FFF790FC0A4B9C4603232375B9
:1029C000D0231B061B6860446375074B8000606062
:1029D000DC60DAE754320020CC3A00205D2600109B
:1029E000C127001040000034B83A0020F0B5574627
:1029F0004E464546DE46E0B585B0019310AB1B78E8
:102A00000600039300239A46984600927268EFF3FB
:102A1000108B72B61368002BFCD0BFF35F8F356844
:102A2000AC7B002C00D16FE067002B683F19033F9F
:102A3000DB195A78AA73002A00D1EA734B4AA1180D
:102A4000B2680901521800980199106051600E99FE
:102A500091600F99D16042469A705A701A706B7BE0
:102A60009946002B00D170E022004946A8686B68A7
:102A700098472A6800285BD04B4648465B004B4489
:102A8000D719033BB870D118D35C002B00D07B70F2
:102A90004B460C706B734C4558D0F3681B19013BC7
:102AA00018787368BFF35F8F42461A608BF3108803
:102AB0005346002B08D10002204305B0F0BCBB46B2
:102AC000B246A946A046F0BD039B002B4BD00E9BFF
:102AD00000200F999847030004000D000B4342D0DB
:102AE00000291ADA009A019B121BAB410092019354
:102AF00080221206934204D301231D4C5B420093B3
:102B00000194039B9A4681E77368BFF35F8F1C6053
:102B10008BF3108801204042CFE700F00BF98022B0
:102B200024184D411206009401959542E9D3E3E73C
:102B30004B465B004B44033BD3189C70D119D25DCC
:102B4000002A00D05A704B460B706C73307D009A8F
:102B5000019B00F073F9824600289ED02100306866
:102B600000F090FB99E70020A7E7C046FFFFFF0FAA
:102B7000FFFFFF7FF0B5EFF30583CE46474680B5F4
:102B800005000C0085B0002B0DD0324A0020536A9E
:102B90009C4203D8926A0130AA4232D305B0C0BC2D
:102BA000B946B046F0BD2C4E029301932B4B020068
:102BB000009330000B00FFF719FF031EE5DD20BF77
:102BC0007168EFF3108772B60A68002AFCD0BFF371
:102BD0005F8FDAB294463068427B624516D0FF229E
:102BE00001681A408946510088464946904441444C
:102BF0000339897800290BD13269934210D13161B0
:102C00000EE0E31A5A1E9341D8B2C7E7FF221A40DA
:102C1000F1681B0A8A18013A1278DBB29A4214D082
:102C20007368BFF35F8F00221A6087F31088094B27
:102C300000205A6A9442B1D89B6A0130AB42ADD2AF
:102C4000A41A631E9C41E0B2A8E7614600F01AFB9B
:102C5000E6E7C046004005405432002091260010AF
:102C6000F0B5EFF30582D6464F4646461000C0B594
:102C70001038EFF3108872B6214C2368002BFCD07B
:102C8000BFF35F8F0123190081401E4D1F00696350
:102C9000AA461D4D29601D4D2E78AC463500C54015
:102CA0002F402B4215D053465F6A194B8500EB58D5
:102CB0009F4218D36246174B8E43EB581670BFF3F2
:102CC0005F8F0022226088F31088002B06D098477F
:102CD00004E0BFF35F8F276088F31088E0BCBA463A
:102CE000B146A846F0BD0C4B92009C466244136866
:102CF0001360BFF35F8F0023236088F31088EDE734
:102D0000280100D0004005403C700540EA3A002010
:102D1000D03A0020543A0020D03F054010B5034B74
:102D200001001800024AFFF7A7FA10BDE83A002098
:102D300018760010034B596A0A00986A596A8A4249
:102D4000FAD170470040054070B504000D00174AE5
:102D5000536A1900966A536A8B42FAD130001900FF
:102D600024184D41AB4216D813D0104B2A005B6A91
:102D70009D4203D90D494B6A9342FCD3934207D13C
:102D80000A4A02E0516A994202D1916AA142F9D3FA
:102D900070BDA642E9D9054B5B6A1C005A1CEFD0F6
:102DA000012201246442E5175242E3E70040054056
:102DB00070B504000D00EFF3108672B61A4A13685E
:102DC000002BFCD0BFF35F8F002D1BD02000FFF73E
:102DD000A1FA164981420AD02000FFF7A3FA012187
:102DE0002000FFF785FA0123A340114A1360114B1D
:102DF000A400E550BFF35F8F00220B4B1A6086F3EF
:102E0000108870BD0121A1400A4BA200D5500A4B89
:102E100020001A788A4305491A70FFF7ADFA00219D
:102E20002000FFF765FAE5E7280100D0612C0010CB
:102E300038600540543A0020EA3A0020F0B54F4689
:102E4000D6464646C0B507002B4C616A0D00A66AFF
:102E5000616AA942FAD18B4208D805D00120E0BCB2
:102E6000BA46B146A846F0BDB242F7D9EFF3108A90
:102E700072B6224801680029FCD0BFF35F8F01259C
:102E8000BD401F491C4C8846097889462943C9B270
:102E90008C46414660460870391D890065630A51B9
:102EA0001849B8004350216A0020294219D0616AAC
:102EB0000800A66A616A8142FAD18B4219D801D111
:102EC000B24216D8CC450BD00B4B1F221D625D635E
:102ED00001233A4093400C4A136043464A461A7015
:102EE0000120BFF35F8F0022044B1A608AF3108821
:102EF000B5E70020F5E7C04600400540280100D0B6
:102F0000EA3A0020D03A002080E200E0EFF3108C93
:102F100072B60A490B68002BFCD0BFF35F8F012308
:102F20008340074A0748136202789A430270BFF34E
:102F30005F8F00230B608CF310887047280100D04E
:102F400000400540EA3A002070B505000E0014006C
:102F5000002923D0002A12D080686B68984729681E
:102F600000280ED063001B197200033B9219CB1886
:102F7000033A9E7088188A5C002A11D104703000D0
:102F800070BD73009B196200033B1219CB18033A02
:102F90009C7088188A5C002A05D106702000EFE733
:102FA0005A700470EBE75A700670F7E730B583602B
:102FB0000023CCB243730133047342608373C47340
:102FC0000D000068012C06D9421C0133DBB21370DE
:102FD00003329C42F9D1FF2129404B005B18C018F5
:102FE00000230338437030BD70B505000C1E07D0B8
:102FF000630001681B19033BCB185A78002A01D1E2
:10300000200070BD500080180338091800204E7849
:103010004870210058702800FFF796FF3100040027
:103020002800FFF7E1FF0600002C26D00028E7D09B
:1030300021003200A8686B689847296800280ED0E4
:1030400073009B196200033B1219CB18033A9C7062
:1030500088188A5C002A00D05A700670D0E7630096
:103060001B197200033B9219CB18033A9E70881803
:103070008A5C002A00D05A7004703400C0E7C04651
:10308000F0B557464546DE464E46E0B50D006F00AA
:1030900001687F19033F0400C85D83B00192CA191B
:1030A000002850D043001B18033BCB185E78B44671
:1030B000002E1AD1019E002E42D0E67B002E04D0B5
:1030C00073009B19CB18033B5D70A37B002B00D1D1
:1030D000A573E57300282FD10023537003B0F0BC13
:1030E000BB46B246A946A046F0BD72006244033A10
:1030F0008A185178884600215170894659703200EB
:1031000001002000FFF720FF43468246002B07D036
:103110005B0021684344033BCB185A78002A16D140
:10312000424651462000FFF70FFF2168019BCA1954
:10313000002BC2D10028CFD043001B18033BCB1873
:1031400000219970C8E7019B002BB6D1C4E750005D
:1031500080180338091848788346484648705870E4
:1031600041462000FFF7F0FE594680462000FFF759
:103170003BFF414602002000FFF7E6FE8046CFE716
:10318000F0B557464546DE464E46E0B583B0019160
:10319000457B04006F0000687F19033FC15DC219C1
:1031A000002952D04B005B18033BC3185E78B4462D
:1031B000002E1CD1019E002E44D0E67B002E04D0B0
:1031C00073009B19C318033B5D70A37B002B00D1D8
:1031D000A573E573002931D1002328005370617372
:1031E00003B0F0BCBB46B246A946A046F0BD720093
:1031F0006244033A8218507880460020507081461D
:10320000587032002000FFF79FFE43468246002B95
:1032100007D05B0021684344033BCB185A78002A4F
:1032200017D1424651462000FFF78EFE019B010058
:103230002068C219002BC0D10029CDD04B005B18EB
:10324000033BC31800209870C6E7019B002BB4D144
:10325000C2E750008018033809184878834648466A
:103260004870587041462000FFF76EFE5946804670
:103270002000FFF7B9FE414602002000FFF764FE80
:103280008046CEE770B5050000292CD0437B8B42E9
:103290002ED04C0000686418033C0419A278002A60
:1032A00021D053009B18033BC25CC6188A4202D14E
:1032B0001BE0002A08D053009B18033BC3185A7820
:1032C0008A42F6D162785A70002301222800A37046
:1032D0006370FFF7D5FE697B02002800FFF734FE1C
:1032E0006873012000E0002070BD63783370EBE765
:1032F00001221900FFF7C4FEF2E7C046F8B5CE463A
:103300004746040080B506200E0000F01FFA051E97
:1033100051D0524B5249E21853425A418023DB03A9
:103320009C4692054F4B62441A604F4B1A60100046
:103330008B689843FBD1494B4C4AE31859424B41A7
:1033400080215B0049000620995200F0FFF931000E
:10335000C00001F059FEC30932D14022012190463C
:103360006162A362256BEB0736D427008026E36AEF
:1033700000232C3776013E4333600620256300F09E
:10338000E5F94146800001F03FFE236B05009846B9
:10339000DB073BD46023E26A5A400E3313403360AC
:1033A00043462363802310229B013B431A60304B2A
:1033B00023630323A3642800C0BCB946B046F8BD0C
:1033C0002C4A93423FD900232B492C4A6162A362C5
:1033D000256B9046EB07C8D52200C02330329B01F5
:1033E0001343234A06201A60666AA36AB601F618D8
:1033F00000F0ACF9224901F007FEB60201003000EE
:1034000001F002FE0021FFF79FFCAEE72200C0237F
:1034100030329B011343164A06201A60636AA26A7F
:103420009B019946914400F091F94B4614499B0247
:10343000994601F0E9FD0100484601F0E5FD002153
:10344000FFF782FCA6E77F229901884602400132FD
:10345000520819009044130082E7C0460080FCBF68
:1034600000C0004000E0004000F00040E03A0020D2
:1034700001030000FEFF0000FFFF0000C0FF3F004F
:103480004E0E000010B50C2082B000F0B5F9FEF72A
:10349000EBFE002810D08B4B8B488B498B4A186071
:1034A00059609860D960186159619861D961186252
:1034B00059625A6202B010BD854CA06700F0A4F9B1
:1034C0000122844B1A60636C012BFCD10322824BD6
:1034D0001A607F4A936B012BFCD1013301217F4A93
:1034E0007F480093043300F037F905237D4A0093A9
:1034F00001217D4800F030F97C4B5A68FF2A02D840
:10350000802252005A608022734B6E4C12011A6066
:103510002169002907D0606901F076FD0130430080
:103520001B18033BFDD2E022704B714819680A401A
:10353000026002221968514001320A4004210260EF
:103540009A681142FCD080216A4A090111608022E8
:1035500052005A60684B2361684B5968FF2900D8B4
:103560005A60032201215B4B1A60644A9368194236
:10357000FCD0E02310680340614803601268032315
:103580004A40022113405D4A036093681942FCD00F
:1035900080215C4B0901196080215B4B490051601F
:1035A00063615A4B5A68FF2A00D859608022584BF1
:1035B00012011A60E169002907D0606901F024FD59
:1035C000013043001B18033BFDD2E0234F4A116832
:1035D0000B4050490B6080214F4B0901196080213D
:1035E000394B49005160E3614C4B5A68FF2A00D8BF
:1035F000596080224A4B12011A60216A002907D0C3
:10360000606901F001FD013043001B18033BFDD24E
:10361000E023424A11680B4042490B608021424B33
:103620000901196080235B0053608022264BD2027F
:1036300023623E4B5968914200D25A6080223C4B33
:1036400012011A60616A002907D0606901F0DCFC90
:10365000013043001B18033BFDD2E023334A1168BD
:103660000B4034490B608021334B090119608023E2
:10367000DB025360154B6362304B5A68FF2A02D855
:10368000802252005A6080222D4B12011A60A169DB
:10369000002907D0606901F0B7FC013043001B1816
:1036A000033BFDD2E023254A11680B4025490B60FE
:1036B0008021254B0901196080235B005360124B68
:1036C000A361F7E610370020006CDC021BB7000096
:1036D000008000403CB0004030B00040002F6859EE
:1036E00000800240008C864700C0024030800040CD
:1036F0003090004030A00040001BB7003C800040EC
:103700003C9000403CA0004040597307548000406A
:1037100054B000405490004054A0004060800040ED
:1037200060B000406090004060A000406C800040AD
:103730006CB000406C9000406CA00040488000409D
:1037400048B000404890004048A00040014B800035
:10375000C058704710370020F8B5040021481D00FC
:1037600017000E0001F050FC0100380001F04CFC85
:10377000069B29041B0319432368002B20DB1A4BEB
:103780001A4DE21853425A4180235B019C461203B2
:10379000174B62441A60174B1A601700AB689F43BF
:1037A000FBD1C022231D92011A4321232660A06071
:1037B00013602368002BFCDA0823E1601360F8BD76
:1037C0003F2322681340B342D9D1A3681B051B0DC8
:1037D0008342D4D1EE22E368D20213408B42CED191
:1037E000EDE7C046001BB7000040FDBF00C0004031
:1037F00000E0004000F000408023024A9B000343A9
:10380000D362704700800540AA23064A1B0113605B
:103810002F230549D360054B19605368002BFCDA50
:103820007047C0460040024000B0FA00006002400D
:103830002C4B2D4A70B51A602C4A2D4B2D491A601D
:1038400014008B689C43FBD12B4D2C4EB54208D203
:10385000013E761BB60808CD984723000134B342D9
:10386000F9D1FFF70FFE264A214B1A60214A9368CF
:10387000DB43DB01DD09002BF9D14022214B224C37
:10388000224E9A675A671A67DA66B44208D22368EA
:103890002000002B20D00834FEF7D2FEB442F6D32D
:1038A0001B4C1C4EC022B168200003F0C1F8B4606C
:1038B000FEF704FDFEF79CFEFFF762F8164C174E6C
:1038C000B44208D2013E361BB60808CC98472B00FC
:1038D00001359E42F9D170BD0834FEF7A3FEB44213
:1038E000D5D3DDE700E00040BFCDFBFEFE7F3C000E
:1038F00000F0004000C00040F836002008370020EB
:10390000FFFFFF0100F00140F0360020F8360020F4
:103910000000002000ED00E0083700200C370020F8
:1039200000BEFDE710B5FFF7FBFFC0460FB400B5C2
:10393000084883B003F05EF9049B002B07D005A96B
:103940001800019101F012FB034803F053F9012024
:10395000FFF7E6FF3C7600107073001010B50148C9
:10396000FFF7E4FF4C7600107047C046F8B55746A5
:103970004546DE464E46E0B598460A9B06009A4606
:103980000D9B0F00934615009B0710D10B9B0C9AC3
:1039900093420CD213005C460B9A9D1A5D442200A0
:1039A0004346013439002020B047A542F7D10B9C93
:1039B0006319002C09D01D0053462A1B013C185DD9
:1039C00039004346B047002CF6D10D9B9B070ED51E
:1039D0005B46EC1A0C9BA34209D999462A00434640
:1039E000390020200134B0470135A145F6D8280020
:1039F000F0BCBB46B246A946A046F8BDF0B54F465E
:103A00004646D646C0B584B098460EAB1B78944661
:103A10009946129B0D9C109F119E9A0724D4002E4C
:103A20006AD1BC4220D201221A409246202C00D1F9
:103A3000CBE00C9A551E302201E0202C30D001340E
:103A40002A55A742F9D85246002A0DD0B4420BD2CB
:103A50000C9A551E3022202C02D126E0202C61D059
:103A600001342A55B442F9D1DA0634D55A0562D464
:103A7000002C5CD10F9A102A00D191E0022A00D1CB
:103A8000A1E030220C9C227001244A46002A5CD11D
:103A90005A0700D47DE02B220C9D2A5501341CE0EE
:103AA0005246002A02D0202E3CD92024DA0614D512
:103AB0005A0512D4202F00D197E0202E3BD120268A
:103AC0001F2234000F9D102D00D181E0022D4CD01B
:103AD00030250C9FBD54202CD7D103930C9B6246FC
:103AE0000093029643460194FFF740FF04B0E0BC08
:103AF000BA46B146A846F0BD012215001D40AA46AF
:103B00001A4227D04A46002A33D10C321A4230D109
:103B1000BC429BD2202C00D08BE7202EC5D8DA06E1
:103B2000A4D4DAE72024DA06D7D55A0503D4A7426D
:103B300021D0B4421FD00F9A102A21D0022A10D0CF
:103B4000202CCAD022000134C2E72D220C9D2A5518
:103B50000134C2E7BC4200D386E7202C00D068E7DE
:103B6000E1E7202CB9D02200013462250C9FBD541E
:103B7000E6E7013ECCE7621E012C00D17AE7A1E71F
:103B80009A0616D4202CA8D078220C9D2A550134F0
:103B9000D6E71A07A1D520220C9D2A5501349CE7AF
:103BA0009A060ED478220C9C227030226270022475
:103BB0006BE7202C91D058250C9A121915700134FE
:103BC000BEE75822EFE76222EDE7002AA7D1AAE775
:103BD000023C9D0604D478250C9F3D551400B1E7A6
:103BE00058250C9F3D551400ACE71F226AE7C046DC
:103BF00010B5002800D110BD02F0B0FFFBE7C046B1
:103C00000B0010B5002802D049681B68984710BD0A
:103C1000F0B557464E464546DE46E0B599B0824679
:103C2000894690460993229A239B1000190001F0BF
:103C3000B8FC002800D0C8E0229823990122D54B77
:103C4000524201F0A9FC002800D0BEE0229823993E
:103C50000122D14B524201F091FC002800D0B4E087
:103C6000229823990022002301F088FC002800D02C
:103C7000E9E1229E239F8023269ADB001A400D92C1
:103C8000269A1A4201D1062324933B00334300D0E5
:103C9000B4E0269B1B0500D5BFE1002300240A9356
:103CA0000B94002304250C93259B0024AB4200D9E0
:103CB0005C1B0223269A1A400D92269A134203D0C7
:103CC0006B426B415B421C400C9B002B07D00A9A55
:103CD0000B9B3000390001F0F0FB06000F0022982A
:103CE00023990022002301F049FC002803D0802101
:103CF00009067B181F00269AA84B009601971340CF
:103D0000099E0493249B0394029342463300494640
:103D1000504600F0A7F90400002D67D02020269A15
:103D20004946024013005A4253415B42621C18400C
:103D30000A92330022004530D0470C9A6F1ED317E9
:103D4000D4185C40D30F9B46002501E0202D13D0F2
:103D500008AA94461F23200063440A2101355E19F6
:103D600001F052F93031317020000A2101F04CF994
:103D700026000400092EE9D80523069300230493A6
:103D80000A3303935B46099E029310AB0A9A009391
:103D900049463300504605970195FFF72FFE0D9ACF
:103DA0000400002A22D04246851A259AAA421DD92B
:103DB000B0465746160022004346494620200135AA
:103DC000B8470134AE42F6D810E0269B4246049331
:103DD000259B49460393249B50460293229B239C98
:103DE00000930194099B00F03DF90400200019B0F4
:103DF000F0BCBB46B246A946A046F0BD684B780071
:103E00009C46400D604401F0DFFB664A664B01F0C2
:103E100072FB664A664B01F047FB664A3B031B0B8D
:103E20001A4304000D00644B11003000002201F021
:103E300032FB624A624B01F05EFB02000B00200085
:103E4000290001F031FB01F0D7FB0C9001F0BCFB25
:103E50005C4A5D4B04000D0001F04DFB00225B4B02
:103E600001F022FB01F0C8FB594A8346594B200060
:103E7000290001F040FB040058460D0001F0A4FBAE
:103E8000554A564B01F037FB02000B002000290079
:103E900001F001FB02000B000A900B9101F02BFBDB
:103EA00004000D000A980B9902000B0001F0FCFAC7
:103EB00000220E900F914A4B2000290001F0FDFADC
:103EC0000022484B01F0F0FA02000B00200029000C
:103ED00001F0F3FA0022444B01F0E6FA02000B0075
:103EE0002000290001F0E9FA0A9A0B9B0D008021BD
:103EF0000400C905002001F0CEFA02000B002000EA
:103F0000290001F0D1FA394C02000B000E980F99EC
:103F100001F0D3FA5C440022264B01F0C5FA2305D8
:103F2000002201F0E8FA04000D0002000B0030004E
:103F300039000A940B9501F021FB00285ED1230083
:103F40002A00C6250C9963318D42AD4126996D42F8
:103F50000435090500D4A7E6134364D030003900C6
:103F6000234A244B01F010FB002807D00022300028
:103F70003900214B01F002FB002854D1249B002B77
:103F800000D191E60D9B5A1E9341249AD31A249393
:103F90008AE6C046FFFFEF7FFFFFEFFFFFF7FFFF5F
:103FA00001FCFFFFFB799F501344D33FB3C8608BE4
:103FB000288AC63F0000F03F0000F83F61436F636E
:103FC000A787D23F71A379094F930A400000E03FD1
:103FD0001655B5BBB16B0240EF39FAFE422EE63FF3
:103FE00000002C400000244000001840FF030000A7
:103FF0002D431CEBE2361A3F80842E410C9B00229D
:10400000013B0C932000164B290001F056FA0A00E0
:10401000010003000A910B9293E7002300240A9306
:104020000B9400230C93249A0C9B9A4214DDD31A10
:10403000013B24938023269ADB001A4300230025AA
:1040400026920C9330E6802212069446229B1E0094
:10405000239B63441F000EE600232493EAE7C04637
:1040600000002440F0B54546DE464E465746E0B5D2
:1040700095B08B46904699461E9A1F9B0A90190050
:104080001000209D01F08DFA002800D0B0E11E98AC
:104090001F990122C74B524201F070FA002800D04C
:1040A00037E11E981F990122C34B524201F074FA66
:1040B000002800D0A7E01E981F990022BF4B01F0F6
:1040C0006BFA002800D088E01E981F990022BC4B94
:1040D00001F054FA002800D07FE01E981F990022BA
:1040E000002301F04BFA002800D0FAE000230B93E4
:1040F0008023229C229ADB001C401A4200D102E15C
:10410000092D00D87EE106A98C462C001722002339
:104110003021093C62440133D154EF1A202B00D1E5
:1041200032E1A342F7D10022A44B069207931E98D6
:104130001F9901F061FA050001F046FA02000B0038
:104140001E981F9901F0A7F9069A079B01F0D3F971
:104150000890099101F074FA060001F031FA0200AA
:104160000B000898099901F096F90022954B0890E8
:10417000099101F011FA002800D1D2E00136300097
:1041800001F01EFA069A079B01F0FEF9002801D003
:1041900000260135AA46002F00D098E0280001F043
:1041A00013FA02000B001E981F9901F074F9854B59
:1041B000002206000F0001F0E1F90CAB9A4600283E
:1041C00045D10022300039007E4B01F0E5F900288E
:1041D0003DD1EB073BD5013539E0229B42460493A4
:1041E000219B594603930A981E9B1F9C029500939E
:1041F00001944B46FFF70CFD15B0F0BCBB46B24630
:10420000A946A046F0BD229B5B0767D403226E4BF4
:1042100022990192039121990291009342464B46C3
:1042200059460A98FFF7A2FBE6E706AA9446172329
:10423000280063440A2101341E1900F0BDFE30310C
:10424000280031700A2100F0B7FE051E76D0202C20
:10425000EBD10323229A1340012B1DD1219B002B6C
:104260001AD00B9B002B00D0BBE0229A0C331342D8
:1042700000D0B6E0219BA34200D887E006AB9C4665
:1042800017223023624404E02199013413558C42F3
:1042900059D0202CF8D12024229B01940393219BF8
:1042A00002935346B9E706AA944617230A216344AA
:1042B000300001341D1900F0A7FE303129703000A4
:1042C0000A21013F00F0A0FE092E46D90600202C4D
:1042D000E9D155460CAB20249A46B8E704223B4B63
:1042E00096E71E9A1F9B0020002101F0D4F80123BD
:1042F0000B938023229C229ADB001E901F911C406E
:104300001A4200D0FCE60022314B062706920793A2
:104310000DE7229B0393219B0293042301932D4BD2
:104320007BE7002208980999264B01F027F900281D
:1043300000D02FE7002E4FD101362BE70323229A1E
:104340001340012B68D0202CA6D00B9B002B1FD034
:104350002D235246135501349EE75546202CB9D0E3
:1043600030223B19002F4BD0172006A90134091821
:104370000A55202CAED09C42F6D10CAA92462E2291
:1043800051465C1CCA5462E72024CCE6202C83D022
:10439000229B5B0708D4229B1B0700D47CE72023C9
:1043A00052461355013477E72B23524613550134F7
:1043B00072E7C046FFFFEFFFFFFFEF7F65CDCD4106
:1043C00065CDCDC10000E03F60760010587600104A
:1043D00080842E4168760010F30700D4DAE60136B7
:1043E000D8E6219B013B2193A34200D946E7AAE7E7
:1043F000229B0393219B029303230193084B0CE719
:104400002300BAE7074BEA009B185C681B682F0083
:104410000693079400248AE6219B002B93D020E783
:104420006476001010780010F0B5DE4657464E4610
:104430004546E0B59FB01C00289B93460A93CC4AA2
:10444000CC4B8A4609901A60002900D14DE1002327
:1044500020789946002800D14FE1C74B4D4608937C
:10446000C64B0D930AE02A006E1C5B46099D51461F
:10447000A847350001342078002872D02528F2D1D1
:1044800010239946083B9846043B00219C4602278E
:104490000134207826000300203BDBB2102B03D828
:1044A000089A9B00D3589F460300303B092B6ED9D6
:1044B00000272A2800D18AE000230B932E2800D160
:1044C00076E00300683BDBB2122B1BD8AC4C9B00A0
:1044D000E3589F46012301341943DAE73943013495
:1044E000D7E7634601341943D3E74B4601341943F8
:1044F000CFE7434601341943CBE780235B00707854
:104500001943013667280AD824281FD90300253B00
:10451000DBB2422B1AD80D9A9B00D3589F4603005A
:10452000693BDBB20F2B11D801249C40954AA4466D
:10453000904614400C9462464446224200D025E244
:104540000A2B00D101E1072B00D1D8E0099C2A00F9
:104550005B465146A04770786F1C741C3D000028D4
:104560008CD1A9462C00CB4503D801235B425B4488
:1045700099465B464A4651460020099DA8472000BF
:104580001FB0F0BCBB46B246A946A046F0BD00270E
:10459000BB00DF1901367F003F183078303F030041
:1045A000303B092BF4D900230B932E2800D088E749
:1045B00080237078DB0019430300303B741C092B07
:1045C00000D82CE12A2800D138E1260079E70A9B9F
:1045D00080CB002F03DB60780A93661C6CE7022215
:1045E000607811437F420A93661C65E7672800D113
:1045F000C8E1472800D104E2452800D104E20720A1
:104600000A9B04910733834319000B9A0397029284
:104610000CC90998009201930A912A005B46514601
:10462000FFF7F6FA741C050025E770786C2800D1B6
:104630000DE280235B001943013663E780239B0072
:104640007078194301365DE77078682800D1F9E188
:1046500080230136194355E7462800D18FE1072012
:104660000A9B04910733834319000B9A0397029224
:104670000CC90998009201930A912A005B465146A1
:10468000FFF7F0FC741C0500F5E62A00099C5B4668
:10469000514625206F1CA0473D00741CEBE689079E
:1046A00000D4DEE10A9B2A0098466B1C99464346DB
:1046B00001CB51469846099C5B46C0B2A047ED1914
:1046C000012F00D893E24C46B1465646099F22007E
:1046D0005B46013431002020B847AC42F7D1B246E6
:1046E00043464E460A93741CC5E6274B207809932F
:1046F00000239946002800D0AFE6002433E70A9B48
:104700001A0008CA9046002B00D1A7E021200843D8
:104710000EA98C461F2262440F27AC468146150025
:104720000C9C02E0202C0CD0130038001840010033
:104730003731092800D80739013429551A090F2BB8
:10474000F0D8654648460C9494E00A9B1A0008CAC3
:1047500012920B9A002A7BD102241A786442002A12
:104760001DD0013418199C461C00030010E0C046FF
:1047700029440010B43A0020707600100077001031
:10478000B476001041900000693900109C4203D0BB
:10479000607801340028F9D16346E01A0C9080203B
:1047A000C0008446084080466046014204D00B9811
:1047B0000C9C844200D90C900220844608400A9048
:1047C0006046084200D189E1101E00D170E14246E6
:1047D000002A00D11BE10B9A5B1B9046A84444467B
:1047E0002A00B84699465746B246099E09E05B46FC
:1047F0003900551CB0474B46585D002800D12CE1CC
:104800002A009442F3D156462500BA4647460A9BF1
:10481000002B00D04CE1129B741C0A932BE6002263
:1048200093009B185B0001341A182078303A03007B
:10483000303B092BF4D926000B9242E60A9B023644
:1048400004CBD043C01702400B9230780A9338E66D
:104850001A78002AA3D00B98441E82E71023080080
:1048600080279843113318430B00FF003B40394227
:1048700000D14DE7082305930B9B2A0004931023D6
:104880000393002302930C9B0690019316AB0093B5
:1048900051465B460998FFF7B1F843460500741C82
:1048A0000A93E8E5622800D1A6E1582800D1B1E1D9
:1048B00080230A00DB001A409046194200D189E1AA
:1048C000112399438C46802362469B001A401000B6
:1048D00062461A4200D023E1802364465B001C40FC
:1048E0001A4200D032E263465B0600D56BE16346B4
:1048F0000A991B0600D4DBE208C91BB2DA17981824
:10490000504080B20A91DA0F0C92002B00D118E2CD
:1049100080460EAA91461F234B441395E146454617
:104920001297B0461E0001E0202C0FD028000A216B
:1049300000F06AFB013437193031397028000A2140
:1049400000F062FB2F000500092FEDD84646CC464B
:10495000129F139D634606930B9B059704930A23AE
:1049600003930C9B029316AB2A00019400935146CB
:104970005B460998FFF742F8741C05007BE520238D
:1049800019436CE680231B01194338E6782800D0D0
:104990007CE180230A00DB001A409146194200D1D5
:1049A000A5E20D239943080003330C9380230200F2
:1049B0009B001A409046184200D078E18023040002
:1049C0005B001C40184200D007E2430600D453E2CB
:1049D000FF210A9B04CB0A4090460A934346002BD2
:1049E00000D026E1103398434B46002B00D120E144
:1049F00000240B9B069004930C9B059703930023C4
:104A0000B0E780231B01194320231943F7E55B1B03
:104A100099460C9B099C98465B46B3465646BA4657
:104A20001F002A003B003100A0474B460135585D6E
:104A30000028F6D143460C933B005746B2465E46EB
:104A40009B46E4E6C023B078194302365AE5C023FA
:104A50009B00B0781943023654E55646BA4647469D
:104A6000D5E6012F00D832E26B1E9846B8442C00E0
:104A7000A9464546B8465746B246099E22005B46BF
:104A8000013439002020B047AC42F7D10A9B56468A
:104A900001CBBA464746984622005B46099C5146E0
:104AA000C0B2A0474D464346ED190A93741CE2E498
:104AB0000C9BA8469F4200D8ADE64446B0465646F9
:104AC0007D19099FED1A22005B4601343100202038
:104AD000B847AC42F7D1B24646469CE60C988742AE
:104AE00000D8F0E1424698467919B9465746B24691
:104AF000099E0C1A0C922A005B46013539002020D1
:104B0000B047A542F7D15646BA464F4643460C9A9F
:104B100090467A1C0C921A78101E00D057E67AE65E
:104B20000822072191460A9B07338B4399444A4642
:104B30000ACB0C000A921C43DA0F002C4ED0D81777
:104B4000040010904C4011900E94109811990C0094
:104B50005C400F940E9B0F9C1B1A8C410E930F947C
:104B60000EA988461F23002443441297B04627000D
:104B700013951E000E9C0F9DE1460C9201E0202F24
:104B800010D0200029000A22002300F07BFA013710
:104B900030322B00F2550D0022000400002BEED124
:104BA000092AECD84646CC460E940F950C9A3C0048
:104BB000139D129F634606930B9B059704930A234C
:104BC00002920393CFE6FF230A9904C91340180009
:104BD0000A9198E6102399438C4674E643460024D4
:104BE000002BE7D1002300240E930F94B8E743462F
:104BF0004D460A93741C3EE480230A00DB001A40F1
:104C00009146194200D140E10D2399430B3B080026
:104C10000C93CBE680230A00DB001A409146194230
:104C200000D162E10D2320209943033308430C9304
:104C3000BCE66123810600D541230EA91F228C46C4
:104C4000DBB262440A3B13971495814645460C9F9C
:104C5000B0461293160008E03033DBB2013433550E
:104C6000BD420ED3202C0CD005003900280000F0E6
:104C7000CBF9CBB20929EFD9129A94466344DBB23F
:104C8000ECE746464846139F149DB2E66F2800D0D5
:104C90003CE10C230800984380230A00DB001A4003
:104CA0009146194200D02AE108230C937EE60A9926
:104CB000FA3BFF3B0731994301339C468C446346E2
:104CC0004A680A930B6890469C461343191E06D106
:104CD0004B46103100248843002B00D089E6612127
:104CE000830600D541210EAA91461F234B449946C5
:104CF000C9B20C9B0A3913971495159645464E4632
:104D0000002467469846814612910CE03032D2B2B8
:104D1000002301343255AB4200D1BCE0202C00D13D
:104D2000BCE007000D00424600233800290000F0D7
:104D3000A9F9D2B2092AE9D9129B9C466244D2B29F
:104D4000E6E74346002B00D004E6E2E50A9C08CCE7
:104D5000DA0F1392002B00D1A5E0D9175B184B4056
:104D600098460EAA91461F234B440C95A1464546F2
:104D70001296E04606001C000A9701E0202E0FD094
:104D800028000A2100F040F90136A71930313970A6
:104D900028000A2100F038F92F000500092FEDD86E
:104DA000C4464C4630000A9F0C9D129E63460693F3
:104DB0000B9B2A0004930A230393139B01900293F5
:104DC00016AB009351465B4609980597FEF716FE11
:104DD0000A940500741CFFF74EFB0A9B10CB14933A
:104DE000002C04D1102398434B46002B2CD1612377
:104DF000810600D541230EA91F228C46DBB26244F6
:104E00000A3B12971395814645460C9FB0460A937C
:104E1000160008E03033DBB201357355BC420ED3C7
:104E2000202D0CD004003900200000F0EDF8CBB2AA
:104E30000929EFD90A9A94466344DBB2ECE7484665
:104E40004646129FA846139D0B9B2A0004930C9B79
:104E500006900393002302934346019316AB0093FD
:104E600051465B4609980597FEF7C8FD149B05005F
:104E70000A93741CFFF7FFFA03061FD50A9B02CBA7
:104E800009040A0C90460A93A8E50C2399430A3BAF
:104E900008000C938AE5B84500D83FE74846139FC1
:104EA000149D159EA5E54346002B00D07EE758E7EC
:104EB00008C9DA17981850400A9124E50A9B04CBD8
:104EC00090460A938AE5010001310C9124E60A9F7D
:104ED0006C1C01CF2A005B46099D5146C0B2A84711
:104EE00025000A97741CFFF7C6FA202319430C23E8
:104EF000994300239946103308000C9356E5082384
:104F00008C460C930D23604698434FE510230A000E
:104F10009A439446692808D180230A00DB001A408E
:104F20009046194200D1CEE4CAE41C2308009843FD
:104F300080230A00DB001A409146194202D10A235D
:104F40000C9333E50A230C93DCE7C04600B585B02B
:104F50000391012102900093034813004A4202A9E1
:104F6000FFF762FA05B000BD013C001010B5094A18
:104F70000300146884B0002C08D001220091064878
:104F8000524203A9A047012004B010BD01F032FE37
:104F90000020F9E7B43A0020F13B00100148042159
:104FA000014B184780320020ED210010014B5B6857
:104FB0001847000080320020124A936F9B0815D2D8
:104FC0009066D166002905D0FFE7FFE7FFE7516F44
:104FD000106F704704B580210906C21751400028A0
:104FE00000D0C84302F06CF8002104BDF0B5146E87
:104FF000556E576F166FFFF7E3FF146655665767D8
:105000001667F0BD000000D0114A936F9B0813D2C1
:1050100010665166002905D0FFE7FFE7FFE7516FF3
:10502000106F704704B5002801D00020C04302F083
:1050300047F8002104BDC046F0B5146E556E576F99
:10504000166FFFF7E5FF1466556657671667F0BDE4
:10505000000000D094464A4A926F9208624601D2FC
:1050600028E0C046F0B5464E346E756E776F366FE9
:1050700000F020F89446424A146655665767166752
:105080006246F0BD94463E4A926F9208624601D253
:1050900054E0C046F0B53A4E346E756E776F366F99
:1050A00000F04CF89446364A146655665767166702
:1050B0006246F0BD002B24DB11D000293EDA00B59A
:1050C000C943404200D1013100F038F8C9434042A1
:1050D00000D10131DB43524200D1013300BD002A2F
:1050E000EBD1002801D1002905D00020C90FC90744
:1050F00001D1C043410800B501F0D2FF00220023D6
:1051000000BD00B500290ADBDB43524200D1013368
:1051100000F014F8C943404200D1013100BDC94339
:10512000404200D10131DB43524200D1013300F053
:1051300005F8DB43524200D1013300BD002923D1E1
:10514000002B18D1002A0CD0BC460D4F38667A6669
:1051500000210023FFE7FFE7FFE77A6F386F67461C
:105160007047002801D00748010000B501F098FF02
:105170000022002300BD02000B0000200021704728
:10518000000000D0FFFFFFFF002B00D0BFE0130C9A
:1051900028D1002AE7D080B4114F39667A66FFE73C
:1051A000FFE730B4040C7B6F396F1B0423433B666D
:1051B0007A66FFE7FFE7FFE7C04684B27B6F3D6F8B
:1051C0001B0423433B667A66FFE7FFE7C0460023E4
:1051D0002C042D0C7A6F386F00196941B0BC7047F0
:1051E000000000D0F0B594460025140E01D1120243
:1051F0000835140F01D112010435940F01D192002A
:105200000235D40F01D152000135D40B0134254FA2
:105210007C66254C3C660E0C93B2FFE7FFE7FFE788
:105220003C6F6643360C7703BE467343DF0B5B046B
:10523000C01AB941130C7343DB18C91ACE08664370
:10524000360CB64493B273431F0F1B01C01AB94109
:10525000130C73431F0B1B05C01AB941860D8F0237
:105260003E436643360C092D24DB520A7243801AF2
:105270007703460A6643360C16235B1BDE40DF408D
:10528000BF1964466643821B70460435063301002D
:10529000D940A840C01900D30131A24206D2002350
:1052A000F0BD0000000000D0FFFFFFFF121B013027
:1052B000F3D3F1E709277F1BFE406446A2B2724395
:1052C000801A00D20139220C7243130C1204821A84
:1052D00099410B007046043513370100F940A8408E
:1052E000801900D30131002B02D1A2420AD2F0BDB5
:1052F000013000D30131121BFAD2013BF8D1A24296
:1053000000D2F0BD013000D30131121BF7E7F0B538
:105310001C0C00D080E00CB400251C0A04D11B0238
:10532000160E3343120208351C0B04D11B01160F55
:105330003343120104359C0B04D19B00960F334379
:1053400092000235DC0B02D192185B4101351C0042
:10535000971864410134464F7C66464C3C660E0CFF
:10536000FFE7FFE7FFE7C0463C6F6643360C770375
:10537000BE4697B27743C01B00D20139C01B00D292
:1053800001399FB27743C91BC91B170C77437E04B1
:10539000FF0B801BB941CE086643360C0C2D33DB66
:1053A000B644120B1F053A431B0B97B27743C01B41
:1053B00000D201399FB27743C91B170C77433E04D3
:1053C0003F0C801BB941860D8F023E43664329275F
:1053D0007F1BFE400C3D7746AF40BF1930BCA2B2E8
:1053E000ABB272437343801A9941220C7243130C7F
:1053F0001204801A994102000B000137001BA941D9
:10540000F9D2781E0021F0BD0C277F1BFE407746A5
:105410007F0BAF40FF19E0E700245D1C07D0144F5D
:105420007D663966FFE7FFE7FFE7FFE73C6F95B270
:105430009EB265436643401BB141150C1E0C65438B
:10544000664336042F0C3E432D04401BB141994264
:1054500004D202000B0020000021F0BD01D19042D7
:10546000F7D3801A994101349942F2D3F6E700004C
:10547000000000D0FFFFFFFF44464D4656465F4602
:10548000F0B47047F0BCA046A946B246BB46704790
:1054900048404140484018B41B4B5B68FC460193B0
:1054A00008BD04DF735B001018B4174B1B68FC4683
:1054B000019308BD00DF7D5B00109446134A926F94
:1054C000920809D2624618B40F4BDB68FC46019380
:1054D00008BD0CDF355E00100C4AF0B5146E556E39
:1054E000576F166F6246FFF7EEFF084A146655665F
:1054F00057671667F0BD18B4034B9B68FC460193D1
:1055000008BD08DFD95C001038380020000000D04A
:10551000FFB550404240504059404B40594000E098
:10552000FFB5154F4C00640D03D0BC4204D10C03F1
:1055300014D80020090D09055C00640D03D0BC429D
:1055400004D11C030AD800221B0D1B0501264B4069
:1055500009D44B4003D58B4200D18242FFBD994212
:10556000FCD19042FFBD0B43DB1803431343F5D03E
:10557000C9434918FFBD0000FF07000000B5FFF751
:10558000CFFF804100BDC04600B5FFF7C1FF01D984
:10559000002000BD012000BD00B5FFF7B9FF80412C
:1055A00000BD012040054A00121804D85A00121804
:1055B00001D800207047012070470020704700008C
:1055C0000021002805D17047C1174840401AFAD081
:1055D000C90713B5064B1B6898470CBC441CA24076
:1055E0001005120B0349091B09051943114310BD8E
:1055F000C83A00201F04000010B54C00620D802343
:10560000D218DB00D21A5B057E2A10DD9E3A13DA2F
:10561000CC170903490819435242D14064000134B0
:105620001532202A05DAD0400843604310BD00201F
:1056300010BD0846604310BDC80FC018013810BD2A
:1056400018B4044B5B6AFC46019308BD24DF116269
:10565000001000003838002018B4044B1B6EFC46C4
:10566000019308BD60DF1F63001000003838002080
:10567000C94211D300B549004908002200F024F8BE
:10568000002904D4002240428A41114600BD8021F5
:105690000906002000BD000018B4044BDB6EFC4678
:1056A000019308BD6CDF1F62001000003838002035
:1056B00018B4044B5B6FFC46019308BD74DF39627C
:1056C000001000003838002018B4044B9B6FFC46D3
:1056D000019308BD78DF3B620010000038380020DD
:1056E00018B4044BDB6FFC46019308BD7CDFA96254
:1056F000001000003838002018B4044B9B69FC46A9
:10570000019308BD18DF0160001000003838002048
:10571000024A034B00B500F00BFA00BD182D4454AB
:10572000FB2119408A0002D3920D092A08DA18B425
:10573000064BDB6BFC46019308BD3CDF7364001035
:1057400000B5FFF7E5FF04BC9646F0E738380020C7
:105750008A0002D3920D092A08DA18B4064B1B6C92
:10576000FC46019308BD40DF8364001000B5FFF7DD
:10577000CFFF04BC9646F0E7383800208A0002D3F9
:10578000920D092A1DDA9446114A926F920809D2A5
:10579000624618B40F4B5B6CFC46019308BD44DFB6
:1057A000536400100A4AF0B5146E556E576F166FA9
:1057B0006246FFF7EEFF064A14665566576716679E
:1057C000F0BD00B5FFF7A4FF04BC9646DBE7000080
:1057D000000000D03838002018B4044B9B6DFC4604
:1057E000019308BD58DF71650010000038380020B3
:1057F00018B4044BDB6CFC46019308BD4CDF856795
:10580000001000003838002018B4044B1B6DFC4613
:10581000019308BD50DF21680010000038380020D7
:10582000132370B51D78012D15D010DD1D48FCF730
:10583000D5FC1D4C01008022200001F0F9F8022D5A
:105840002DD01A48FCF7C2FC194B186070BD194BDB
:10585000154CA364F5E7174B134C23606360A360FA
:10586000E36023616361A361E36123626362A36216
:10587000E36223636363A363E36323646364A364F6
:10588000E36423656365A365E36523666366A366D6
:10589000E36623676367A367E367A364D1E7054B08
:1058A000A364CEE753440000383800204C33000096
:1058B000C83A0020415B0010F0B54E464546DE4632
:1058C00057461C001300E0B589B004930594129B61
:1058D0004D006400814694466D0D640D002B02D08E
:1058E0001A00002313608F4EB5426ED0002C6CD08E
:1058F000002D00D174E002000B00B44267D0661E98
:10590000B046AE4263DC8022CB0F9B460B035203B2
:105910001B0B13431F00059B4E461B031B0B9A4694
:105920006346029353461A430392A84500D18BE085
:105930005B46002B00D196E032003B002D1B002778
:1059400056429F41002D00DC9DE00120039B404218
:105950001911FFF759FB00239B461D3381469A46D8
:10596000A846079418E032009A4001923300AB40F9
:1059700020000093E117029A039B01F037F8009E84
:10598000019F5B46A346AB409B4443465B1B361AD4
:105990008F419846002B26DD45460C2D00DD0C2559
:1059A0004B46BC115C4353465B1B1C412B0001342E
:1059B0006410203BD7D5202332005B1BDA40130054
:1059C0003A00AA401A430192D0E70022564B100039
:1059D000190009B0F0BCBB46B246A946A046F0BDCE
:1059E00000220023F3E7079C029A039BBB4269DD78
:1059F000002F4ADB0298039932003B0092197B4149
:105A00008B4219DC16D002998A4254D0059B002B98
:105A100002DA5B465B429B46129B002B01D05A4642
:105A20001A60424A3000121B3900FFF715FE0200CF
:105A30000B00CCE78242E6D9029A039BB61A9F413B
:105A400001239C46E344E1E797422BDD5B46002BB4
:105A50004BD1029A039B92185B41B61A9F410123D6
:105A600044469B46D2E72D1B002D00DD6DE7029AD0
:105A7000039BBB42E0DC4CD0029A039BB61A9F41C9
:105A800001239B46B6E700239B46029A039BB61868
:105A90005F41002F41DAB6185F4102235B429C460A
:105AA000E344A7E7029B039CA74201D19E42CDD8C5
:105AB00002000B008BE7039A9342A7D15B46DB07FA
:105AC000A4D5B9E7BB4201D1B24291D8029A039B57
:105AD000B61A9F41BB4218DC14D0029A039BB61A37
