:020000041000EA
:1000000000B5324B212058609868022188439860DF
:10001000D860186158612E4B002199600221596106
:100020000121F02299502B49196001219960352056
:1000300000F044F80222904214D00621196600F024
:1000400034F8196E01211966002018661A6600F04E
:100050002CF8196E196E196E052000F02FF8012189
:100060000842F9D1002199601B49196000215960AB
:100070001A491B48016001219960EB211966A021F2
:10008000196600F012F800219960164914480160C1
:100090000121996001BC002800D000471248134993
:1000A000086003C880F30888084703B5996A0420EC
:1000B0000142FBD001200142F8D103BD02B5186610
:1000C0001866FFF7F2FF186E186E02BD00000240BE
:1000D000000000180000070000035F00212200005C
:1000E000F4000018222000A00001001008ED00E03C
:1000F00000000000000000000000000074B24E7A12
:1001000000200420F7010010C3010010C5010010F9
:10011000C1010010C1010010C1010010C101001097
:10012000C1010010C1010010C1010010C701001081
:10013000C1010010C1010010C9010010CB01001065
:10014000CD010010CD010010CD010010CD01001037
:10015000CD010010CD010010CD010010CD01001027
:10016000CD010010CD010010CD010010CD01001017
:10017000CD010010CD010010CD010010CD01001007
:10018000CD010010CD010010CD010010CD010010F7
:10019000CD010010CD010010CD010010CD010010E7
:1001A000CD010010CD010010CD010010CD010010D7
:1001B000CD010010CD010010CD010010CD010010C7
:1001C00000BE00BE00BE00BE00BE00BEEFF3058054
:1001D000103800BEF2EB887190640010B464001017
:1001E0003402001090A31AE700201F49086006C8D7
:1001F00081F3088810471D48006800282FD10DA4FE
:100200000ECC002902D000F012F8F9E71849194A7B
:10021000002000E001C19142FCD1174988471749ED
:1002200088471749884700BEFDE701C901C29A42C5
:10023000FBD37047B4640010C0000020B409002054
:10024000A86D00100000042000000420A86D00101C
:10025000001004200010042000000000704709482E
:1002600004F00EFD0047000008ED00E0000000D0A3
:10027000B8090020A40D0020ED340010111D00105D
:10028000E13500105756000006005250ABB36053E2
:10029000F063001006005250861C03020064001038
:1002A000060052505422A29D1464001005005250C2
:1002B000DE65F468A86D0010F8B5C0460448054B2B
:1002C00010B5834203D0044B002B00D0984710BDDB
:1002D000B4090020B40900200000000006480749C6
:1002E000091A8B10C90FC91810B5491003D0044B57
:1002F000002B00D0984710BDB4090020B40900209D
:100300000000000010B5074C2378002B09D1FFF73F
:10031000D5FF054B002B02D0044800E000BF0123AD
:10032000237010BDF00C002000000000F0600010F1
:10033000054B10B5002B03D00449054800E000BF71
:10034000FFF7CCFF10BDC04600000000F40C0020F9
:10035000F060001010B505F09BFE10BD10B505F063
:100360007FFE10BD10B505F0ABFE10BD10B505F059
:100370006FFE10BD10B504F0B5FC10BD10B504F053
:10038000D9FC10BD10B504F0FBFC10BD10B504F095
:100390000FFD10BD70B50478002C0FD020210D2664
:1003A000094B0A4A00255D5F0130AC4207D09369D2
:1003B0001942FCD114600478002CF5D170BD93690A
:1003C0001942FCD11660F2E7980D0020004003406E
:1003D000F0B50B0F0C140F16092B00D895E137223E
:1003E00094469C44B74B00229B5E9C4500D1A2E101
:1003F0002026B54DAA691642FCD162462A600F221A
:100400003A40092A00DC75E137321500934200D1E9
:1004100099E12027AC4EB2691742FCD135600D023C
:100420002D0F092D00DC5BE13735AB4200D192E1A5
:100430002027A54EB2691742FCD10F223560144027
:10044000092C00DC42E13734A34200D18BE12026A5
:100450009D4DAA691642FCD12C600C040E12240F8B
:10046000092C00DC23E13734A34200D183E12027AB
:10047000954DAA691742FCD10F222C603240092AFF
:1004800000DC09E137321400934200D17BE12026E1
:100490008D4DAA691642FCD12C600C06240F092C44
:1004A00000DCEFE03734A34200D174E12026864D12
:1004B000AA691642FCD10F222C601140092900DCE8
:1004C000D6E037318B4200D16DE120257E4CA26908
:1004D0001542FCD1216007160414010F092900D828
:1004E000BCE037318B4200D165E12026764DAA6908
:1004F0001642FCD10F2229603A40092A00DCA2E012
:1005000037321100934200D15DE120266E4DAA6979
:100510001642FCD129600102090F092900DC88E09C
:1005200037318B4200D156E12026674DAA69164229
:10053000FCD10F2229602240092A00DC6EE037320C
:100540001100934200D14EE120255F4CA269154273
:10055000FCD1216001040612090F092954DD37314D
:100560008B4200D147E12025574CA2691542FCD1AE
:100570000F2221603240092A3BDD373211009342BD
:1005800000D140E12025504CA2691542FCD12160E8
:100590000106090F092922DD37318B4200D13AE1EA
:1005A0002025494CA2691542FCD10F22216002404E
:1005B000092A0ADD3732934200D134E12020424932
:1005C0008B691842FCD10A60F0BD3032934200D1F1
:1005D00031E120203C498B691842FCD1F3E73031EE
:1005E0008B4200D12FE12025374CA2691542FCD166
:1005F000DBE730321100934200D12CE12025324C50
:10060000A2691542FCD1C2E730318B4200D12AE108
:1006100020252D4CA2691542FCD1A9E730321100EA
:10062000934200D127E12025274CA2691542FCD135
:100630008FE730318B4200D125E12026224DAA6977
:100640001642FCD175E730321100934200D122E10D
:1006500020261D4DAA691642FCD15BE730318B4242
:1006600000D120E12026184DAA691642FCD141E7AD
:1006700030318B4200D11EE12025134CA269154276
:10068000FCD127E73034A34200D11CE120260E4DD7
:10069000AA691642FCD10EE730321400934200D111
:1006A00019E12026084DAA691642FCD1F4E630343F
:1006B000A34200D117E12027034DAA691742FCD1BC
:1006C000DAE6C046980D0020004003403034A342D3
:1006D00000D110E12026944DAA691642FCD1BBE658
:1006E0003035AB4200D10EE120278F4EB269174260
:1006F000FCD1A2E630321500934200D10BE1202755
:10070000894EB2691742FCD188E6302294469C4457
:10071000864B00229B5E9C4505D02026824DAA690F
:100720001642FCD169E620267F4DAA691642FCD10B
:100730000D222A60F1E720267B4DAA691642FCD1E2
:100740000D222A6054E62027774EB2691742FCD169
:100750000D2232605DE62027734EB2691742FCD14C
:100760000D22326064E620266F4DAA691642FCD144
:100770000D222A606BE620276B4DAA691742FCD137
:100780000D222A6073E62026674DAA691642FCD125
:100790000D222A607BE62026634DAA691642FCD111
:1007A0000D222A6082E620255F4CA2691542FCD109
:1007B0000D22226089E620265B4DAA691642FCD1F3
:1007C0000D222A6091E62026574DAA691642FCD1D7
:1007D0000D222A6099E62026534DAA691642FCD1C3
:1007E0000D222A60A0E620254F4CA2691542FCD1BB
:1007F0000D222260A8E620254B4CA2691542FCD1AF
:100800000D222260AFE62025474CA2691542FCD19B
:100810000D222260B6E62025434CA2691542FCD188
:100820000D222260BCE620203F498B691842FCD192
:100830000D230B60C2E620203B498B691842FCD196
:100840000D230B60C5E62025374CA2691542FCD16B
:100850000D222260C7E62025334CA2691542FCD147
:100860000D222260CAE620252F4CA2691542FCD138
:100870000D222260CCE620252B4CA2691542FCD12A
:100880000D222260CFE62026274DAA691642FCD110
:100890000D222A60D1E62026234DAA691642FCD1FA
:1008A0000D222A60D4E620261F4DAA691642FCD1EB
:1008B0000D222A60D6E620251B4CA2691542FCD1E8
:1008C0000D222260D8E62026174DAA691642FCD1D7
:1008D0000D222A60DAE62026134DAA691642FCD1C1
:1008E0000D222A60DDE620270F4DAA691742FCD1B0
:1008F0000D222A60DFE620260B4DAA691642FCD1A4
:100900000D222A60E6E62027074EB2691742FCD185
:100910000D223260E8E62027034EB2691742FCD16F
:100920000D223260EBE6C04600400340980D0020E7
:10093000BB4B30B500229A5E002800DAD7E0B94BF5
:10094000984200D8E2E0B8494118994200D8DDE168
:10095000B64B32259C466044954200D157E1202495
:10096000B3498B691C42FCD1B24B0D60984200D850
:10097000CFE13023AF49B04C0133A4466044DBB231
:100980008842F8D81D00934200D1A1E12024A84953
:100990008B691C42FCD1A94B0D60984200D8C4E180
:1009A0003023A649A64D0133AC466044DBB28842F1
:1009B000F8D81D009A4200D182E120249C498B691D
:1009C0001C42FCD19F4B0D60984200D8B0E130230F
:1009D0009C499D4D0133AC466044DBB28842F8D857
:1009E0001D009A4200D163E1202491498B691C4289
:1009F000FCD1964B0D60984200D890E1302393498A
:100A0000934D0133AC466044DBB28842F8D81D00F8
:100A10009A4200D144E1202485498B691C42FCD1D3
:100A20008C4B0D60984200D87CE1302389498A4D77
:100A30000133AC466044DBB28842F8D81D009342D3
:100A400000D125E120247A498B691C42FCD1FA238C
:100A50000D609B00984200D25EE1FA2130238900AC
:100A60007E4D0133AC466044DBB28842F8D21D00B3
:100A70009A4200D104E120246D498B691C42FCD1CB
:100A80000D60632800D82EE1302301336438DBB2D7
:100A90006328FAD81D00934200D1E9E0202464497C
:100AA0008B691C42FCD10D60092800D818E1302365
:100AB00001330A38DBB20928FAD81D009A4200D166
:100AC000CEE020245A498B691C42FCD10D600028DD
:100AD00000D18FE03030C0B20400904200D18EE0EF
:100AE0002021534A93691942FCD1146030BD2D2A4C
:100AF00000D1FBE020244E498B691C42FCD12D2300
:100B00000B60484B4042984200D91CE7202A00D194
:100B1000F4E0202446498B691C42FCD1454B0C6013
:100B2000984200D925E7202A00D104E12024404939
:100B30008B691C42FCD1414B0C600124984200D9C6
:100B40002EE7202A00D12EE1202439498B691C424E
:100B5000FCD13C4B0C60984200D938E7202A00D1E8
:100B600019E1202432498B691C42FCD1374B0C60BF
:100B7000984200D942E7202A00D104E120242C49E0
:100B80008B691C42FCD1334B0C60984200D94CE776
:100B9000202A00D1EFE0202425498B691C42FCD19A
:100BA000FA230C609B00984200D356E7202A00D11C
:100BB000D9E020241E498B691C42FCD10C606328BB
:100BC00000D961E7202A00D1C5E0202418498B69AB
:100BD0001C42FCD10C60092800D968E7202A00D10A
:100BE000B1E0202412498B691C42FCD10C60002822
:100BF00000D06FE730203024904200D070E72021F1
:100C00000B4A93691942FCD10D23136068E7202435
:100C100007498B691C42FCD10D230B609FE6C0463F
:100C2000980D0020FFC99A3B003665C4006CCA8845
:100C300000400340FFE0F505001F0AFA7F96980088
:100C4000806967FF3F420F00C0BDF0FF9F86010033
:100C50006079FEFF0F270000F0D8FFFF18FCFFFFB0
:100C6000202455498B691C42FCD10D230B6028E7D9
:100C7000202451498B691C42FCD10D230B600DE7E8
:100C800020244D498B691C42FCD10D230B60F2E6F8
:100C9000202449498B691C42FCD10D230B60D1E60D
:100CA000202445498B691C42FCD10D230B60B2E620
:100CB000202441498B691C42FCD10D230B6093E633
:100CC00020243D498B691C42FCD10D230B6074E646
:100CD000202439498B691C42FCD10D230B6055E659
:100CE00030253023EAE630253023D4E6202432496B
:100CF0008B691C42FCD10D230B60FBE620242E499E
:100D00008B691C42FCD10D230B6002E708003125E2
:100D100022E63025302336E630253023A8E630257C
:100D2000302375E63025302389E63025302341E62F
:100D30003025302355E620241F498B691C42FCD105
:100D40000D230B60F2E620241B498B691C42FCD169
:100D50000D230B6045E7202417498B691C42FCD109
:100D60000D230B6031E7202413498B691C42FCD111
:100D70000D230B601DE720240F498B691C42FCD119
:100D80000D230B6007E720240B498B691C42FCD123
:100D90000D230B60F2E6202407498B691C42FCD12D
:100DA0000D230B60DDE604491F348B691C42FCD126
:100DB0000D230B60C8E6C04600400340F0B5DE4698
:100DC00057464E464546E0B51E008BB008AB009333
:100DD000330081468846170004F0EAF93A0006918C
:100DE00083460C0033004846414605F031F98246FF
:100DF000079102920493834500D095E0A14200D070
:100E000092E0099A089B0392029A05939A4200D1B4
:100E1000AFE00D2455212022A446594B5948002506
:100E20005D5F594B0130A9426ED09C692242FCD1D2
:100E3000196001780029F5D148464146FFF7C8FA04
:100E4000202D00D17DE020214F4A93691942FCD129
:100E5000116038003100FFF7BBFA202D00D180E08F
:100E60002021494A93691942FCD1116058460699DC
:100E7000FFF7AEFA202D6CD02021434A9369194226
:100E8000FCD1116005980399FFF7A2FA0D262020E6
:100E900020213E4C3C4A013485423BD093691942A3
:100EA000FCD1106020780028F5D150460799FFF753
:100EB0008FFA202D3DD02021334A93691942FCD16D
:100EC000116002980499FFF783FA0D260D20202166
:100ED0002F4C2D4A0134854221D093691942FCD10F
:100EE000106020780028F5D10124002529490A68DE
:100EF0004B6812196B410A604B600BB0F0BCBB46EB
:100F0000B246A946A046F0BD9C692242FCD1644687
:100F10001C608AE793691942FCD11660BEE79369A9
:100F20001942FCD11660D8E7089B0593099B0393EF
:100F30006FE72021144A93691942FCD10D231360F5
:100F4000B9E72021104A93691942FCD10D2313609F
:100F500079E720210C4A93691942FCD10D231360D3
:100F60008AE72021084A93691942FCD10D231360B6
:100F700076E7049B039A934200D04AE7B4E7C04661
:100F8000980D0020F460001000400340F86000104D
:100F9000F0600010E00A0020F0B5DE4657464E46ED
:100FA0004546E0B51E008BB008AB00933300814688
:100FB0008846170004F0F6F83A00069183460C00C4
:100FC00033004846414605F07BF88246079102927D
:100FD0000493834500D095E0A14200D092E0099AA5
:100FE000089B0392029A05939A4200D1AFE00D2428
:100FF00053212022A446594B594800255D5F594B87
:101000000130A9426ED09C692242FCD1196001785E
:101010000029F5D148464146FFF7DAF9202D00D1E5
:101020007DE020214F4A93691942FCD111603800BC
:101030003100FFF7CDF9202D00D180E02021494A71
:1010400093691942FCD1116058460699FFF7C0F91F
:10105000202D6CD02021434A93691942FCD11160A4
:1010600005980399FFF7B4F90D26202020213E4C66
:101070003C4A013485423BD093691942FCD110604F
:1010800020780028F5D150460799FFF7A1F9202DC7
:101090003DD02021334A93691942FCD11160029856
:1010A0000499FFF795F90D260D2020212F4C2D4A8C
:1010B0000134854221D093691942FCD11060207817
:1010C0000028F5D10124002529490A684B68121926
:1010D0006B410A604B600BB0F0BCBB46B246A94600
:1010E000A046F0BD9C692242FCD164461C608AE7A0
:1010F00093691942FCD11660BEE793691942FCD18D
:101100001660D8E7089B0593099B03936FE720219E
:10111000144A93691942FCD10D231360B9E72021C9
:10112000104A93691942FCD10D23136079E72021FD
:101130000C4A93691942FCD10D2313608AE72021E0
:10114000084A93691942FCD10D23136076E7049B8A
:10115000039A934200D04AE7B4E7C046980D0020B6
:10116000FC60001000400340F8600010F0600010C8
:10117000E00A0020C64BF0B557464E464546994614
:10118000DE46C44BE0B500241D004F4693B000235B
:1011900000220E920F932B00A0462500B9469A46D6
:1011A0000E9A0F9B02204042C11712184B41002497
:1011B000AB460C920D9300220023032000210A92DB
:1011C0000B930E9A0F9B12184B410892099310949F
:1011D000119402256D42EE170C9B0D9C0093019417
:1011E0000A9B0B9C1900220049197241009E019F25
:1011F00006910792032100225B1854410493059441
:1012000000247342BC4100930194069C079D220078
:101210002B0030003900FFF7D1FD22002B003000F9
:101220003900FFF7B9FE00236242AB4130003900BC
:1012300002920393FFF7B0FE0098019922002B0061
:10124000FFF7AAFE029A039B00980199FFF7A4FEFC
:1012500000230122A4185D41049BA342D7D1059B22
:10126000AB42D4D101230024F6186741089BB34256
:10127000C6D1099BBB42C3D1109A203A00D5B4E035
:10128000012393400A9C0B9D01210A001098824083
:1012900022432C001C43431C0A920B941093412BB5
:1012A00097D1119C0134402C00D084E75D462B007F
:1012B000203B00D5A7E099400E9E0F9F01233A00E6
:1012C000AB400A43334301350E930F92412D00D0BA
:1012D00066E744464F4601342000FFF729FB002211
:1012E000BB5E5546202B00D185E020216A4A9069DB
:1012F0000142FCD11160202B00D188E02021664AF8
:1013000090690142FCD11160202B00D187E020219F
:10131000614A90690142FCD11160202B00D186E026
:1013200020215D4A90690142FCD11160202B00D13F
:1013300085E02021584A90690142FCD11160202BA0
:1013400000D184E02021544A90690142FCD111600F
:10135000202B00D183E020214F4A90690142FCD12B
:101360001160202B00D182E020214B4A906901427C
:10137000FCD11160202B00D181E02021464A9069E8
:101380000142FCD11160362B00D187E02021424A76
:1013900090690142FCD136211160362B00D18BE0DF
:1013A00020213D4A90690142FCD136211160202262
:1013B000904629398C462800414620269846364AD0
:1013C0000130414500D171E093691E42FCD11160AA
:1013D00001780029F4D1402C00D0D8E613B0F0BC3D
:1013E000BB46B246A946A046F0BD2022109BD21AA9
:1013F0000123D34046E72021274A90690142FCD1CE
:101400000D21116071E720235B1BD94054E7202197
:10141000214A90690142FCD10D2111606EE7202123
:101420001D4A90690142FCD10D2111606FE7202116
:10143000194A90690142FCD10D21116070E7202109
:10144000154A90690142FCD10D21116071E72021FC
:10145000114A90690142FCD10D21116072E72021EF
:101460000D4A90690142FCD10D21116073E72021E2
:10147000094A90690142FCD10D21116074E72021D5
:10148000054A90690142FCD10D21116075E7C04603
:10149000980D0020006100100040034020210A4AFE
:1014A00090690142FCD10D2111606FE793691E42E2
:1014B000FCD16346136087E7034A163990690142FD
:1014C000FCD10D2111606BE700400340F0B5574699
:1014D0004E464546DE46E0B5824A8DB00A92824AC3
:1014E00000239146012209939046804B0132924697
:1014F0004A4699460B927E4B9B469CE0EB0764085C
:101500001C430D235C4080231B069C463021200099
:101510006D08654404F0E4FD0B000F33113900D56C
:101520009CE052468A40039252469A400120404233
:10153000C1170292029A039B12184B4141460C427A
:1015400000D1A9E0E90764080C430D214C4080213B
:1015500009068C466D0865442B4021001F00434658
:1015600011400E001C4200D183E0EB0764081C43CD
:101570000D235C4080231B069C46302120006D0813
:10158000654404F0ADFD0B000F33113900D57DE04B
:1015900052468A40059252469A4001204042C11765
:1015A0000492049A059B12184B4141460C425BD0B1
:1015B000E90764080C430D214C40802109068C4644
:1015C0006D086544494630C114401D4000940195A2
:1015D000009C019D300022002B003900FFF7EEFB3C
:1015E00022002B0030003900FFF7D6FC23000094C6
:1015F00001952C0000225942A24100257442BD41B0
:1016000013000691079230000A003900FFF7C4FC6E
:10161000009A019B20002900FFF7BEFC069A079B59
:1016200020002900FFF7B8FC01235B429C46E344FD
:101630005B46002B35D04B4630CB43461C4200D096
:101640005CE7EB0764081C433021200004F048FDF0
:101650000B006D080F33113900D462E72022514688
:10166000D21AD14003915FE7E90764080C436D0883
:10167000A8E7EB0764081C433021200004F030FD8C
:101680000B006D080F33113900D481E72022514639
:10169000D21AD14005917EE7E90764080C436D0832
:1016A0005AE7099B013318000993FFF741F94D20D0
:1016B0000A9B0B9C00255D5F20210E4A0134A84245
:1016C0000AD093691942FCD110602078002800D11B
:1016D00011E70134A842F4D193691942FCD10D23DA
:1016E0001360EEE7980D00200C610010E80B00205D
:1016F000400D03000040034030B5044C256890477E
:1017000020682D1A2802001230BD000018E000E009
:1017100070B5049E034C2568B04720682D1A280236
:10172000001270BD18E000E0F0B54E46DE465746A8
:1017300045460522E0B5E44B95B01A60E34B1E2503
:101740000793E34BE34E06930D23AA469B46B1460F
:10175000E14C0894802753463F06DF40FA239B0064
:1017600098460023059304935346012609934B465C
:1017700030CBEB07344200D1A1E164081C435B4647
:101780005C4080231B069C466D086544A246EB071F
:10179000344200D18BE164081C435B465C408023EB
:1017A0001B069C466D0820006544A742EFD839000F
:1017B00004F056FC4B46010030C3079A0400504623
:1017C000FFF79AFF049B21009C46844463465046E1
:1017D000069A0493FFF790FF059B9C46844463465A
:1017E000059301235B429C46E0444346002BBED157
:1017F000099B04989A4603F07DFD0022B74B03F045
:10180000F2FC040005980D0003F074FD0022B34BB8
:1018100003F0E9FC2B00009001912200514608984A
:1018200004F0EAFA5346013B9A4693D2AC4B1E258C
:101830000693AC4BAA4607930D239B46AA4C0894EB
:10184000802753463F06DF40FA239B00984600233B
:10185000059304935346012609934B4630CBEB077F
:10186000344200D156E164081C435B465C4080234F
:101870001B069C466D086544A246EB07344200D126
:1018800040E164081C435B465C4080231B069C4689
:101890006D0820006544A742EFD8390004F0E0FB52
:1018A0004B46010030C3069A04005046FFF724FF60
:1018B000049B21009C46844463465046079A049347
:1018C000FFF71AFF059B9C4684446346059301235A
:1018D0005B429C46E0444346002BBED1099B0498E2
:1018E0009A4603F007FD00227C4B03F07CFC0400C9
:1018F00005980D0003F0FEFC0022784B03F073FC0A
:101900002B000090019122005146089804F074FACF
:101910005346013B9A4693D200230B93734B4E469A
:101920000D93734B734C0E93734BB2460F93734BE3
:1019300026001093724B99460123C8469B463E24CD
:101940000B9B2700203B0C934346544611933E23A8
:10195000DB1B1A00203A00D592E1594691400491D0
:101960005A469A40FA239B0008930023A246059208
:1019700007930693129713965EE05D080D23D10737
:101980000D435D40802352081B06D7180C9B002B8B
:1019900000DAC3E03A00DA400A923B000B9AD340E7
:1019A00009935B461D4217D0FB076D081D430D23AD
:1019B0005D4080231B069C467F086744059A049B74
:1019C0002800390004F07CFB0A000300014300D02A
:1019D000CAE05B461D42E7D1FB076D081D437F0847
:1019E000059A049B2800390004F06AFB814688466A
:1019F0005346099CA0C30D9B0A9D4A4621000093B3
:101A000028004346FFF784FE069B4A469C468444D2
:101A1000634606930E9B2800009321004346FFF780
:101A200077FE079B9C46844463460793089B013BD3
:101A30000893002B00D19AE05346524659461B6842
:101A400052680B4299D1D1075D080D430C99570894
:101A500000296EDB3800C84039000A900B98C1405D
:101A6000099159460D4275D12E00FD0773081D439B
:101A7000059B3C001A0099467F08049B280039000A
:101A8000984604F01DFB0A00030001436CD159463F
:101A90000D42E9D00D21A307B5081D434D4080211B
:101AA00009068C46A7084A46434667449AE76408F5
:101AB0001C4320006D08A74200D968E677E6640859
:101AC0001C436D0862E6C04610E000E055030010BC
:101AD00075030010E80B00201061001000408F40DB
:101AE0005D0300107D0300102061001065030010ED
:101AF00085030010306100106D0300108D0300108D
:101B00004461001064081C4320006D08A74200D9FE
:101B1000B3E6C2E664081C436D08ADE620233A0034
:101B20000B995B1A9A4013002A00CA401A430A9282
:101B300033E7202138000B9C091B88400100280056
:101B4000E040084339000A900B98C140099159467A
:101B50000D4289D09D080D2391070D435D408023E0
:101B600092081B06D7183BE79946904640E7604627
:101B700003F0C0FB0022654B03F035FB029003919C
:101B8000069803F0B7FB0022604B03F02CFB129F7A
:101B9000139E009001913A0030000B99544604F0D6
:101BA0002BF9013F00D3D2E6119B3E2598460896BB
:101BB0003E235F1BFA239B002024079300230693F8
:101BC0000593E31B3E0004934346203E09950A9388
:101BD00031E0D1075B080B430D214B408021090602
:101BE0008C4652086244002E50DB1500F54014006C
:101BF000FC4051460B600F9B4A6048462A00414614
:101C000000932300FFF784FD059B2A009C46844433
:101C100063460593109B4846009341462300FFF717
:101C200077FD069B9C46844463460693079B013BD5
:101C30000793002B3FD05346524659461B685268C3
:101C40000B4231D0D1075B080B430D215940802353
:101C50001B0698468946520890444B4642465946D0
:101C60000B42B6D1D1075B08540822000B43002E6B
:101C700013DB2500F540FC4029002143EFD0B8E7F5
:101C800020225946D21AD140049169E61D00110064
:101C90000498FD4081400D43A9E71D0021000498F0
:101CA000FD4081400D43E6E7D1075B080B439946B1
:101CB00053089846D1E70A9B6046984603F01AFB02
:101CC0000022124B03F08FFA02900391059803F063
:101CD00011FB00220D4B03F086FA099D0090019143
:101CE0002A0040460B9904F087F8013D00D35FE7D6
:101CF0000B9B089E10330B93402B00D01FE615B0B2
:101D0000F0BCBB46B246A946A046F0BD00408F409D
:101D1000F8B506246442E51726267642F71700F048
:101D2000E5F8614B6149624818605960FFF7FCFCB7
:101D30006048FEF72FFB0622002326200021FFF734
:101D40003DF80622002326200021FFF725F9220076
:101D50002B0026200021FFF71FF930003900062252
:101D60000023FFF719F922002B0030003900FFF79C
:101D700013F9202100260127062200234E48FF31B7
:101D8000FFF71CF80622002330003900FFF716F891
:101D90000622002301204042C117FFF70FF8FFF78A
:101DA000E9F9464B464C474D18685968FEF710FB59
:101DB0004548FEF7EFFA32003B0020002900FEF70D
:101DC000FDFF01220123200029005242FEF7F6FF09
:101DD00001220323200029005242FEF7EFFF0122D7
:101DE0000723200029005242FEF7E8FF01220F23BB
:101DF000200029005242FEF7E1FF01221F232000AC
:101E000029005242FEF7DAFF01223F232000290079
:101E10005242FEF7D3FF01227F23200029005242C5
:101E2000FEF7CCFF0122FF23200029005242FEF7DB
:101E3000C5FF012220002900244B5242FEF7BEFFBD
:101E4000012220002900224B5242FEF7B7FF012257
:101E5000200029001F4B5242FEF7B0FF0122200054
:101E600029001D4B5242FEF7A9FF01222000290044
:101E70001A4B5242FEF7A2FF012220002900184B04
:101E80005242FEF79BFF012220002900154B5242CF
:101E9000FEF794FF012220002900134B5242FEF767
:101EA0008DFFFFF713FBC046E80B00208635C6A95F
:101EB000957BF41458610010CB04FB71E00A0020FC
:101EC000EFCDAB89674523F160610010FF01000091
:101ED000FF030000FF070000FF0F0000FF1F0000CE
:101EE000FF3F0000FF7F0000FFFF000010B504F07F
:101EF0005BF810BD094A10B5944640248300634442
:101F00001A68C0006240803414408022520113439A
:101F10001C60034B9C466044416010BD04C00140FE
:101F200000400140024B18688007C00F7047C04650
:101F300000C0064070B5EFF3108C72B60D4D2B68E3
:101F4000002BFCD0BFF35F8F0724CB08C618C05C02
:101F500001230C40A3401C000440034207D1184356
:101F60003070BFF35F8F2C608CF3108870BD100051
:101F700001F03AFB2C0100D00021044B044ABFF3CE
:101F80005F8F02C39342FAD17047C046000100D070
:101F9000800100D0044A1078431CDBB2172B00D913
:101FA000102313707047C046E008002001238340CF
:101FB000002904D0034A1360034A13607047034AA0
:101FC0001360FBE780E200E000E100E080E100E078
:101FD000024B10309B688000C058704700ED00E055
:101FE00070B50D00EFF3108672B60F4A1368002B20
:101FF000FCD0BFF35F8F0D4B10309B6884001B59E2
:102000000B4A934203D09D4201D001F005FB074BE0
:102010009B681D51BFF35F8FBFF35F8F0022024BA0
:102020001A6086F3108870BD240100D000ED00E036
:10203000CD010010F0B5DE4657464E464546E0B5A8
:102040000C0083B0EFF3108872B65D4A1368002B62
:10205000FCD0BFF35F8F5B4B5B499A680300103382
:102060009F00D5598D4239D0A5424AD0574EAA1B60
:102070002F2A33D801229246824091464846544A3C
:102080001268104001904846524A1060BFF35F8FBB
:10209000EFF305829346002A35D0934201D001F038
:1020A000BBFA2A0053469A439068844208D175E0EF
:1020B0004B005B189B00F3189868A04234D01A00BC
:1020C000062151560029F3DA844253D0019B002B9C
:1020D00026D04A46404B1A603D4B1A60394B9B68EC
:1020E000DD51BFF35F8FBFF35F8F0022344B1A6067
:1020F00088F3108803B0F0BCBB46B246A946A046A0
:10210000F0BD0D00EAE72A0053469A4390688442E6
:10211000D6D1062010561300002809DA0D0031E050
:102120004A462C4B1A60D9E706201856002822DBB5
:1021300042001118890074188A46A1689960E179F3
:10214000D971062161569971002925DBA488F11AFD
:102150006405241554440919E0240905490D240295
:102160002143998013181D4A9B001178F318997127
:102170001070ABE713005946002914D1FF3191715B
:102180001749918015490A789A71164A9B1B5B4141
:102190005A43120D0A7099E71349E2E706201056D8
:1021A00013000028C4DA114A1149D21A083A500221
:1021B000400D014399800F4952080A43DA8085E7B0
:1021C000240100D000ED00E0CD010010E408002063
:1021D00000E100E080E100E080E200E0A10D0020ED
:1021E00001BDFFFFAAAA000001BD00001E090020DA
:1021F00000F0FFFF00F8FFFF70B5EFF30581012449
:102200000443EFF3108C72B6214A1368002BFCD004
:10221000BFF35F8F1F4B05001F4AED1A6D416A43E4
:10222000120D1E4D8900AE6852B27658A6421CD0DF
:102230000621595691421CD012215956914222D062
:102240001E215956914220D02A21595603249142E9
:1022500010D0134B19781A708171BFF35F8F002271
:102260000B4B1A608CF3108870BDAB680D4C5C5042
:10227000EFE700246100091989005B18FF219971BB
:1022800009499980E5E70124F4E70224F2E7C04612
:10229000240100D0E4080020AAAA000000ED00E01C
:1022A000A10D0020CD01001001BDFFFF054B064A26
:1022B0001360064A136053609360D36013615361E7
:1022C000936170478080808000E400E004E400E0D7
:1022D000024B9C4661448900016070474000003415
:1022E00010B50400FFF756FE01002000FFF7F0FFD5
:1022F000FF232371BFF35F8F10BDC04610B50400EC
:10230000FFF748FE01002000FFF7E2FFFF23A38054
:10231000BFF35F8F10BDC04683680B4810B584467D
:10232000614462441201090159189B185C684A68AB
:102330000120944201D802D00020C0B210BD1A681A
:102340000B689A42F9D8F7E7FFFFFF0F0A4B1968AD
:10235000EFF3108072B60A68002AFCD0BFF35F8FDB
:102360001B68BFF35F8F00221A6080F3108840BFA4
:10237000002000217047C046840D0020F8B5574664
:1023800045464E46DE46E0B598460CAB1C780DAB94
:102390001B78070091469A460568002C5ED1AC7BFD
:1023A000002C3BD0660029683619033E89194B780A
:1023B000AB73002B00D1EB7300238B704B700B7051
:1023C0002D4BE218BB6812019B184A461A60424620
:1023D0005A600A9A9A600B9ADA6000238B704B70ED
:1023E0000B706B7B9B46002B2BD022005946A868B4
:1023F0006B6898472A68002816D05B4658465B00F1
:102400005B449619033BB070D118D35C002B00D00D
:1024100073705B460C706B735C4513D0F0BCBB46AD
:10242000B246A946A046F8BD5B465B005B44033B51
:10243000D3189C709119925D002A00D05A705B46A7
:102440000B706C734A464346387D00F055FB051E01
:102450000AD10E9B002BE1D01D70DFE766002968D2
:102460003619033E8919ABE75346002BF1D1210001
:10247000386800F065FDECE7FFFFFF0FF0B5DE46C2
:1024800057464E4645460023E0B58BB00893684B4F
:102490008200D45800239B46099000F0A9FA02005C
:1024A0000B006068EFF3108A72B656460168002987
:1024B000FCD0B246BFF35F8F21684F7B8C46002F64
:1024C0002ED0A5685B49A946791809018944494677
:1024D0000868496805000E00AD1A9E41002E5FDDB8
:1024E00002000B00099800F007FB00230022994628
:1024F000002306920793002398466368BFF35F8F1B
:102500005A461A608AF310884346002B12D10028DD
:10251000C3D10BB0F0BCBB46B246A946A046F0BD45
:1025200000230022994600230692079300230020EF
:102530009846E2E7089B494618023843C04762685C
:1025400005000E00EFF3108A72B61368002BFCD062
:10255000BFF35F8F002E41DB2B00334302D0236992
:10256000002B56D12368D97B002905D01A68480072
:1025700041185218033A57709A7B002A00D19F7372
:10258000DF73E268013FD35D0133D3555B462361BE
:102590006368BFF35F8F5A461A608AF310887CE73E
:1025A000002E02D1002D00D09AE70021604600F0F5
:1025B00045FC4B461A685B68069207934B469B683E
:1025C00098464B46DB689946E368DB19013B1B786C
:1025D00008931B020343236100208EE72369002B2D
:1025E000C0D0069A079B8021521BB34109068B423B
:1025F00002D30122104B5242002104910131039178
:10260000494601914146200002970091FFF7B6FE2E
:10261000BCE700F0EDF92A00330012184B4180218D
:1026200009068B42E8D30122034B5242E4E7C0463D
:10263000700D0020FFFFFF0FFFFFFF7F10B5144C50
:102640006368002B04D00A211248FFF741FE10BD39
:102650002300114A1021206800F006FB032000F03F
:10266000BBF9032000F0B0FA03200C4900F0FEF99A
:10267000FFF790FC0A4B9C4603232375D0231B06CF
:102680001B6860446375074B80006060DC60DAE7BC
:102690002C090020840D0020192300107D24001037
:1026A00040000034700D0020F0B557464E464546B8
:1026B000DE46E0B585B0019310AB1B7806000393AE
:1026C00000239A46984600927268EFF3108B72B618
:1026D0001368002BFCD0BFF35F8F3568AC7B002CF8
:1026E00000D16FE067002B683F19033FDB195A7870
:1026F000AA73002A00D1EA734B4AA118B2680901F3
:10270000521800980199106051600E9991600F99CC
:10271000D16042469A705A701A706B7B9946002BB2
:1027200000D170E022004946A8686B6898472A6883
:1027300000285BD04B4648465B004B44D719033B0F
:10274000B870D118D35C002B00D07B704B460C7056
:102750006B734C4558D0F3681B19013B18787368AC
:10276000BFF35F8F42461A608BF310885346002BED
:1027700008D10002204305B0F0BCBB46B246A946D2
:10278000A046F0BD039B002B4BD00E9B00200F9961
:102790009847030004000D000B4342D000291ADAC9
:1027A000009A019B121BAB410092019380221206FA
:1027B000934204D301231D4C5B4200930194039B7D
:1027C0009A4681E77368BFF35F8F1C608BF31088B4
:1027D00001204042CFE700F00BF9802224184D4140
:1027E0001206009401959542E9D3E3E74B465B005E
:1027F0004B44033BD3189C70D119D25D002A00D002
:102800005A704B460B706C73307D009A019B00F040
:1028100073F9824600289ED02100306800F090FBBA
:1028200099E70020A7E7C046FFFFFF0FFFFFFF7FEC
:10283000F0B5EFF30583CE46474680B505000C00A2
:1028400085B0002B0DD0324A0020536A9C4203D839
:10285000926A0130AA4232D305B0C0BCB946B04634
:10286000F0BD2C4E029301932B4B020000933000DD
:102870000B00FFF719FF031EE5DD20BF7168EFF3C2
:10288000108772B60A68002AFCD0BFF35F8FDAB2F5
:1028900094463068427B624516D0FF2201681A4098
:1028A0008946510088464946904441440339897815
:1028B00000290BD13269934210D131610EE0E31A45
:1028C0005A1E9341D8B2C7E7FF221A40F1681B0A8B
:1028D0008A18013A1278DBB29A4214D07368BFF3B7
:1028E0005F8F00221A6087F31088094B00205A6A14
:1028F0009442B1D89B6A0130AB42ADD2A41A631E98
:102900009C41E0B2A8E7614600F01AFBE6E7C0464A
:10291000004005402C0900204D230010F0B5EFF3D6
:102920000582D6464F4646461000C0B51038EFF334
:10293000108872B6214C2368002BFCD0BFF35F8F48
:102940000123190081401E4D1F006963AA461D4DD9
:1029500029601D4D2E78AC463500C5402F402B42D6
:1029600015D053465F6A194B8500EB589F4218D328
:102970006246174B8E43EB581670BFF35F8F0022F1
:10298000226088F31088002B06D0984704E0BFF33C
:102990005F8F276088F31088E0BCBA46B146A8462E
:1029A000F0BD0C4B92009C46624413681360BFF369
:1029B0005F8F0023236088F31088EDE7280100D0A3
:1029C000004005403C700540A20D0020880D00200D
:1029D0000C0D0020D03F054010B5034B010018003E
:1029E000024AFFF7A7FA10BDA00D00208C6100106D
:1029F000034B596A0A00986A596A8A42FAD17047A9
:102A00000040054070B504000D00174A536A1900D4
:102A1000966A536A8B42FAD13000190024184D414E
:102A2000AB4216D813D0104B2A005B6A9D4203D9E3
:102A30000D494B6A9342FCD3934207D10A4A02E004
:102A4000516A994202D1916AA142F9D370BDA6425E
:102A5000E9D9054B5B6A1C005A1CEFD00122012406
:102A60006442E5175242E3E70040054070B50400B8
:102A70000D00EFF3108672B61A4A1368002BFCD0D3
:102A8000BFF35F8F002D1BD02000FFF7A1FA16497E
:102A900081420AD02000FFF7A3FA01212000FFF7AE
:102AA00085FA0123A340114A1360114BA400E5509D
:102AB000BFF35F8F00220B4B1A6086F3108870BD46
:102AC0000121A1400A4BA200D5500A4B20001A78E0
:102AD0008A4305491A70FFF7ADFA00212000FFF77D
:102AE00065FAE5E7280100D01D290010386005408F
:102AF0000C0D0020A20D0020F0B54F46D6464646EC
:102B0000C0B507002B4C616A0D00A66A616AA94234
:102B1000FAD18B4208D805D00120E0BCBA46B146B4
:102B2000A846F0BDB242F7D9EFF3108A72B6224838
:102B300001680029FCD0BFF35F8F0125BD401F490C
:102B40001C4C8846097889462943C9B28C464146BF
:102B500060460870391D890065630A511849B8003C
:102B60004350216A0020294219D0616A0800A66AF0
:102B7000616A8142FAD18B4219D801D1B24216D88A
:102B8000CC450BD00B4B1F221D625D6301233A40E5
:102B900093400C4A136043464A461A700120BFF323
:102BA0005F8F0022044B1A608AF31088B5E700207B
:102BB000F5E7C04600400540280100D0A20D0020E6
:102BC000880D002080E200E0EFF3108C72B60A4915
:102BD0000B68002BFCD0BFF35F8F01238340074AB3
:102BE0000748136202789A430270BFF35F8F002395
:102BF0000B608CF310887047280100D0004005401E
:102C0000A20D002070B505000E001400002923D08D
:102C1000002A12D080686B689847296800280ED077
:102C200063001B197200033B9219CB18033A9E7084
:102C300088188A5C002A11D10470300070BD7300BE
:102C40009B196200033B1219CB18033A9C70881839
:102C50008A5C002A05D106702000EFE75A700470E4
:102C6000EBE75A700670F7E730B583600023CCB20B
:102C700043730133047342608373C4730D000068AF
:102C8000012C06D9421C0133DBB2137003329C4283
:102C9000F9D1FF2129404B005B18C01800230338ED
:102CA000437030BD70B505000C1E07D0630001688D
:102CB0001B19033BCB185A78002A01D1200070BDA4
:102CC000500080180338091800204E784870210001
:102CD00058702800FFF796FF310004002800FFF726
:102CE000E1FF0600002C26D00028E7D021003200AA
:102CF000A8686B689847296800280ED073009B1954
:102D00006200033B1219CB18033A9C7088188A5C46
:102D1000002A00D05A700670D0E763001B197200B9
:102D2000033B9219CB18033A9E7088188A5C002ADC
:102D300000D05A7004703400C0E7C046F0B5574662
:102D40004546DE464E46E0B50D006F0001687F192E
:102D5000033F0400C85D83B00192CA19002850D017
:102D600043001B18033BCB185E78B446002E1AD1E3
:102D7000019E002E42D0E67B002E04D073009B19EA
:102D8000CB18033B5D70A37B002B00D1A573E573CB
:102D900000282FD10023537003B0F0BCBB46B246CD
:102DA000A946A046F0BD72006244033A8A185178E1
:102DB0008846002151708946597032000100200078
:102DC000FFF720FF43468246002B07D05B002168B7
:102DD0004344033BCB185A78002A16D14246514649
:102DE0002000FFF70FFF2168019BCA19002BC2D1F9
:102DF0000028CFD043001B18033BCB18002199704B
:102E0000C8E7019B002BB6D1C4E7500080180338F7
:102E10000918487883464846487058704146200053
:102E2000FFF7F0FE594680462000FFF73BFF414682
:102E300002002000FFF7E6FE8046CFE7F0B55746D8
:102E40004546DE464E46E0B583B00191457B040021
:102E50006F0000687F19033FC15DC219002952D07D
:102E60004B005B18033BC3185E78B446002E1CD1A0
:102E7000019E002E44D0E67B002E04D073009B19E7
:102E8000C318033B5D70A37B002B00D1A573E573D2
:102E9000002931D1002328005370617303B0F0BCC6
:102EA000BB46B246A946A046F0BD72006244033A52
:102EB0008218507880460020507081465870320049
:102EC0002000FFF79FFE43468246002B07D05B00A1
:102ED00021684344033BCB185A78002A17D1424655
:102EE00051462000FFF78EFE019B01002068C219A9
:102EF000002BC0D10029CDD04B005B18033BC31879
:102F000000209870C6E7019B002BB4D1C2E75000A7
:102F10008018033809184878834648464870587026
:102F200041462000FFF76EFE594680462000FFF71D
:102F3000B9FE414602002000FFF764FE8046CEE75E
:102F400070B5050000292CD0437B8B422ED04C005D
:102F500000686418033C0419A278002A21D05300A9
:102F60009B18033BC25CC6188A4202D11BE0002AB0
:102F700008D053009B18033BC3185A788A42F6D1F5
:102F800062785A70002301222800A3706370FFF753
:102F9000D5FE697B02002800FFF734FE687301202C
:102FA00000E0002070BD63783370EBE70122190068
:102FB000FFF7C4FEF2E7C046F8B5CE464746040028
:102FC00080B506200E0000F01FFA051E51D0524BAE
:102FD0005249E21853425A418023DB039C46920532
:102FE0004F4B62441A604F4B1A6010008B68984335
:102FF000FBD1494B4C4AE31859424B4180215B00BD
:1030000049000620995200F0FFF93100C00003F09A
:1030100027F8C30932D14022012190466162A362A0
:10302000256BEB0736D427008026E36A00232C3774
:1030300076013E4333600620256300F0E5F9414602
:10304000800003F00DF8236B05009846DB073BD4A6
:103050006023E26A5A400E331340336043462363D1
:10306000802310229B013B431A60304B23630323D0
:10307000A3642800C0BCB946B046F8BD2C4A9342B0
:103080003FD900232B492C4A6162A362256B9046ED
:10309000EB07C8D52200C02330329B011343234ADB
:1030A00006201A60666AA36AB601F61800F0ACF949
:1030B000224902F0D5FFB6020100300002F0D0FF35
:1030C0000021FFF79FFCAEE72200C02330329B01B6
:1030D0001343164A06201A60636AA26A9B01994646
:1030E000914400F091F94B4614499B02994602F035
:1030F000B7FF0100484602F0B3FF0021FFF782FC52
:10310000A6E77F2299018846024001325208190041
:103110009044130082E7C0460080FCBF00C000401E
:1031200000E0004000F00040980D00200103000086
:10313000FEFF0000FFFF0000C0FF3F004E0E00003A
:1031400010B50C2082B000F0B5F9FEF7EBFE0028B8
:1031500010D08B4B8B488B498B4A18605960986014
:10316000D960186159619861D961186259625A62CF
:1031700002B010BD854CA06700F0A4F90122844B79
:103180001A60636C012BFCD10322824B1A607F4AC8
:10319000936B012BFCD1013301217F4A7F480093BF
:1031A000043300F037F905237D4A009301217D485F
:1031B00000F030F97C4B5A68FF2A02D88022520076
:1031C0005A608022734B6E4C12011A6021690029EB
:1031D00007D0606902F044FF013043001B18033B35
:1031E000FDD2E022704B714819680A400260022249
:1031F0001968514001320A40042102609A68114264
:10320000FCD080216A4A09011160802252005A6074
:10321000684B2361684B5968FF2900D85A60032224
:1032200001215B4B1A60644A93681942FCD0E02389
:103230001068034061480360126803234A4002217A
:1032400013405D4A036093681942FCD080215C4BB7
:103250000901196080215B4B4900516063615A4B41
:103260005A68FF2A00D859608022584B12011A6010
:10327000E169002907D0606902F0F2FE01304300E5
:103280001B18033BFDD2E0234F4A11680B40504905
:103290000B6080214F4B090119608021394B490097
:1032A0005160E3614C4B5A68FF2A00D85960802274
:1032B0004A4B12011A60216A002907D0606902F0A6
:1032C000CFFE013043001B18033BFDD2E023424AEE
:1032D00011680B4042490B608021424B0901196083
:1032E00080235B0053608022264BD20223623E4B38
:1032F0005968914200D25A6080223C4B12011A60F8
:10330000616A002907D0606902F0AAFE013043001B
:103310001B18033BFDD2E023334A11680B403449AC
:103320000B608021334B090119608023DB0253605D
:10333000154B6362304B5A68FF2A02D88022520034
:103340005A6080222D4B12011A60A169002907D012
:10335000606902F085FE013043001B18033BFDD27B
:10336000E023254A11680B4025490B608021254B3D
:103370000901196080235B005360124BA361F7E6DB
:10338000B8090020006CDC021BB700000080004080
:103390003CB0004030B00040002F6859008002402F
:1033A000008C864700C002403080004030900040D2
:1033B00030A00040001BB7003C8000403C90004023
:1033C0003CA00040405973075480004054B0004076
:1033D0005490004054A000406080004060B0004025
:1033E0006090004060A000406C8000406CB00040E5
:1033F0006C9000406CA000404880004048B0004005
:103400004890004048A00040014B8000C0587047E1
:10341000B8090020F8B5040021481D0017000E006F
:1034200002F01EFE0100380002F01AFE069B29047D
:103430001B0319432368002B20DB1A4B1A4DE2189B
:1034400053425A4180235B019C461203174B62444E
:103450001A60174B1A601700AB689F43FBD1C0225C
:10346000231D92011A4321232660A0601360236864
:10347000002BFCDA0823E1601360F8BD3F232268CB
:103480001340B342D9D1A3681B051B0D8342D4D18D
:10349000EE22E368D20213408B42CED1EDE7C04664
:1034A000001BB7000040FDBF00C0004000E000402E
:1034B00000F000408023024A9B000343D362704720
:1034C00000800540AA23064A1B0113602F230549EB
:1034D000D360054B19605368002BFCDA7047C04677
:1034E0000040024000B0FA00006002402C4B2D4A20
:1034F00070B51A602C4A2D4B2D491A6014008B6848
:103500009C43FBD12B4D2C4EB54208D2013E761B7D
:10351000B60808CD984723000134B342F9D1FFF72C
:103520000FFE264A214B1A60214A9368DB43DB01D8
:10353000DD09002BF9D14022214B224C224E9A6703
:103540005A671A67DA66B44208D223682000002B53
:1035500020D00834FEF7D2FEB442F6D31B4C1C4EEA
:10356000C022B168200002F073FAB460FEF704FDD7
:10357000FEF79CFEFFF762F8164C174EB44208D2D5
:10358000013E361BB60808CC98472B0001359E42F9
:10359000F9D170BD0834FEF7A3FEB442D5D3DDE700
:1035A00000E00040BFCDFBFEFE7F3C0000F000408D
:1035B00000C00040A0090020B0090020FFFFFF016B
:1035C00000F0014098090020A00900200000002020
:1035D00000ED00E0B0090020B409002000BEFDE7C6
:1035E00010B5FFF7FBFFC0460FB400B5084883B025
:1035F00002F010FB049B002B07D005A918000191D5
:1036000001F012FB034802F005FB0120FFF7E6FF83
:10361000B0610010C061001010B50148FFF7E4FF71
:10362000C46100107047C046F8B557464546DE46AF
:103630004E46E0B598460A9B06009A460D9B0F0041
:10364000934615009B0710D10B9B0C9A93420CD20A
:1036500013005C460B9A9D1A5D44220043460134D8
:1036600039002020B047A542F7D10B9C6319002CEC
:1036700009D01D0053462A1B013C185D3900434602
:10368000B047002CF6D10D9B9B070ED55B46EC1A7C
:103690000C9BA34209D999462A00434639002020B1
:1036A0000134B0470135A145F6D82800F0BCBB462F
:1036B000B246A946A046F8BDF0B54F464646D646A6
:1036C000C0B584B098460EAB1B7894469946129BC1
:1036D0000D9C109F119E9A0724D4002E6AD1BC42E3
:1036E00020D201221A409246202C00D1CBE00C9A25
:1036F000551E302201E0202C30D001342A55A7423B
:10370000F9D85246002A0DD0B4420BD20C9A551E5D
:103710003022202C02D126E0202C61D001342A5501
:10372000B442F9D1DA0634D55A0562D4002C5CD102
:103730000F9A102A00D191E0022A00D1A1E0302294
:103740000C9C227001244A46002A5CD15A0700D4FE
:103750007DE02B220C9D2A5501341CE05246002AA4
:1037600002D0202E3CD92024DA0614D55A0512D4D2
:10377000202F00D197E0202E3BD120261F2234009D
:103780000F9D102D00D181E0022D4CD030250C9FD3
:10379000BD54202CD7D103930C9B62460093029614
:1037A00043460194FFF740FF04B0E0BCBA46B1467F
:1037B000A846F0BD012215001D40AA461A4227D096
:1037C0004A46002A33D10C321A4230D1BC429BD235
:1037D000202C00D08BE7202EC5D8DA06A4D4DAE757
:1037E0002024DA06D7D55A0503D4A74221D0B44203
:1037F0001FD00F9A102A21D0022A10D0202CCAD014
:1038000022000134C2E72D220C9D2A550134C2E763
:10381000BC4200D386E7202C00D068E7E1E7202CEB
:10382000B9D02200013462250C9FBD54E6E7013E69
:10383000CCE7621E012C00D17AE7A1E79A0616D4E4
:10384000202CA8D078220C9D2A550134D6E71A07DF
:10385000A1D520220C9D2A5501349CE79A060ED44E
:1038600078220C9C22703022627002246BE7202C9C
:1038700091D058250C9A121915700134BEE75822C0
:10388000EFE76222EDE7002AA7D1AAE7023C9D06F6
:1038900004D478250C9F3D551400B1E758250C9FA2
:1038A0003D551400ACE71F226AE7C04610B500285A
:1038B00000D110BD02F062F9FBE7C0460B0010B565
:1038C000002802D049681B68984710BDF0B55746DC
:1038D0004E464546DE46E0B599B08246894690465A
:1038E0000993229A239B1000190001F0F0FC002894
:1038F00000D0C8E0229823990122D54B524201F012
:10390000E1FC002800D0BEE0229823990122D14B8F
:10391000524201F0C9FC002800D0B4E0229823995B
:103920000022002301F0C0FC002800D0E9E1229E23
:10393000239F8023269ADB001A400D92269A1A4272
:1039400001D1062324933B00334300D0B4E0269BEF
:103950001B0500D5BFE1002300240A930B9400232C
:1039600004250C93259B0024AB4200D95C1B022349
:10397000269A1A400D92269A134203D06B426B414D
:103980005B421C400C9B002B07D00A9A0B9B30001B
:10399000390001F028FC06000F002298239900222C
:1039A000002301F081FC002803D0802109067B1848
:1039B0001F00269AA84B009601971340099E049376
:1039C000249B03940293424633004946504600F03C
:1039D000A7F90400002D67D02020269A494602400E
:1039E00013005A4253415B42621C18400A92330052
:1039F00022004530D0470C9A6F1ED317D4185C4074
:103A0000D30F9B46002501E0202D13D008AA944631
:103A10001F23200063440A2101355E1902F060FB78
:103A20003031317020000A2102F01AFB2600040018
:103A3000092EE9D805230693002304930A33039340
:103A40005B46099E029310AB0A9A009349463300E5
:103A5000504605970195FFF72FFE0D9A0400002AA6
:103A600022D04246851A259AAA421DD9B046574609
:103A7000160022004346494620200135B84701344C
:103A8000AE42F6D810E0269B42460493259B494659
:103A90000393249B50460293229B239C0093019402
:103AA000099B00F03DF90400200019B0F0BCBB46B2
:103AB000B246A946A046F0BD684B78009C46400D32
:103AC000604401F017FC664A664B01F0AAFB664AA7
:103AD000664B01F07FFB664A3B031B0B1A43040055
:103AE0000D00644B11003000002201F06AFB624AB5
:103AF000624B01F096FB02000B002000290001F050
:103B000069FB01F00FFC0C9001F0F4FB5C4A5D4B8B
:103B100004000D0001F085FB00225B4B01F05AFB15
:103B200001F000FC594A8346594B2000290001F05E
:103B300078FB040058460D0001F0DCFB554A564B5B
:103B400001F06FFB02000B002000290001F039FB9F
:103B500002000B000A900B9101F063FB04000D00C2
:103B60000A980B9902000B0001F034FB00220E9022
:103B70000F914A4B2000290001F035FB0022484BF1
:103B800001F028FB02000B002000290001F02BFBB4
:103B90000022444B01F01EFB02000B002000290014
:103BA00001F021FB0A9A0B9B0D0080210400C9053E
:103BB000002001F006FB02000B002000290001F0AC
:103BC00009FB394C02000B000E980F9901F00BFB1A
:103BD0005C440022264B01F0FDFA2305002201F08F
:103BE00020FB04000D0002000B00300039000A9495
:103BF0000B9501F059FB00285ED123002A00C62551
:103C00000C9963318D42AD4126996D420435090509
:103C100000D4A7E6134364D030003900234A244B74
:103C200001F048FB002807D0002230003900214B6A
:103C300001F03AFB002854D1249B002B00D191E6DF
:103C40000D9B5A1E9341249AD31A24938AE6C046A8
:103C5000FFFFEF7FFFFFEFFFFFF7FFFF01FCFFFF1D
:103C6000FB799F501344D33FB3C8608B288AC63F6B
:103C70000000F03F0000F83F61436F63A787D23F29
:103C800071A379094F930A400000E03F1655B5BB78
:103C9000B16B0240EF39FAFE422EE63F00002C40A5
:103CA0000000244000001840FF0300002D431CEBDF
:103CB000E2361A3F80842E410C9B0022013B0C937C
:103CC0002000164B290001F08EFA0A0001000300C3
:103CD0000A910B9293E7002300240A930B9400238C
:103CE0000C93249A0C9B9A4214DDD31A013B249323
:103CF0008023269ADB001A430023002526920C938A
:103D000030E6802212069446229B1E00239B6344C9
:103D10001F000EE600232493EAE7C046000024407B
:103D2000F0B54546DE464E465746E0B595B08B4663
:103D3000904699461E9A1F9B0A9019001000209DDC
:103D400001F0C5FA002800D0B0E11E981F990122A9
:103D5000C74B524201F0A8FA002800D037E11E9864
:103D60001F990122C34B524201F0ACFA002800D047
:103D7000A7E01E981F990022BF4B01F0A3FA00286C
:103D800000D088E01E981F990022BC4B01F08CFAED
:103D9000002800D07FE01E981F990022002301F028
:103DA00083FA002800D0FAE000230B938023229CA2
:103DB000229ADB001C401A4200D102E1092D00D8F2
:103DC0007EE106A98C462C00172200233021093CF5
:103DD00062440133D154EF1A202B00D132E1A342C7
:103DE000F7D10022A44B069207931E981F9901F069
:103DF00099FA050001F07EFA02000B001E981F9947
:103E000001F0DFF9069A079B01F00BFA089009917F
:103E100001F0ACFA060001F069FA02000B00089804
:103E2000099901F0CEF90022954B0890099101F013
:103E300049FA002800D1D2E00136300001F056FAEC
:103E4000069A079B01F036FA002801D000260135BA
:103E5000AA46002F00D098E0280001F04BFA02009B
:103E60000B001E981F9901F0ACF9854B002206004B
:103E70000F0001F019FA0CAB9A46002845D1002238
:103E8000300039007E4B01F01DFA00283DD1EB07D0
:103E90003BD5013539E0229B42460493219B59468C
:103EA00003930A981E9B1F9C0295009301944B4616
:103EB000FFF70CFD15B0F0BCBB46B246A946A046C4
:103EC000F0BD229B5B0767D403226E4B22990192BF
:103ED000039121990291009342464B4659460A9814
:103EE000FFF7A2FBE6E706AA9446172328006344DF
:103EF0000A2101341E1902F0DBF83031280031703C
:103F00000A2102F0C5F8051E76D0202CEBD1032340
:103F1000229A1340012B1DD1219B002B1AD00B9B01
:103F2000002B00D0BBE0229A0C33134200D0B6E045
:103F3000219BA34200D887E006AB9C461722302382
:103F4000624404E02199013413558C4259D0202C4D
:103F5000F8D12024229B01940393219B0293534682
:103F6000B9E706AA944617230A21634430000134B6
:103F70001D1902F0B5F83031297030000A21013FD7
:103F800002F06EF8092E46D90600202CE9D15546DC
:103F90000CAB20249A46B8E704223B4B96E71E9AC6
:103FA0001F9B0020002101F00CF901230B938023BB
:103FB000229C229ADB001E901F911C401A4200D0C6
:103FC000FCE60022314B0627069207930DE7229B61
:103FD0000393219B0293042301932D4B7BE7002243
:103FE00008980999264B01F05FF9002800D02FE7C7
:103FF000002E4FD101362BE70323229A1340012BC9
:1040000068D0202CA6D00B9B002B1FD02D2352460E
:10401000135501349EE75546202CB9D030223B1968
:10402000002F4BD0172006A9013409180A55202C5F
:10403000AED09C42F6D10CAA92462E2251465C1C70
:10404000CA5462E72024CCE6202C83D0229B5B0755
:1040500008D4229B1B0700D47CE72023524613552B
:10406000013477E72B2352461355013472E7C046DB
:10407000FFFFEFFFFFFFEF7F65CDCD4165CDCDC1E8
:104080000000E03FD8610010D061001080842E4114
:10409000E0610010F30700D4DAE60136D8E6219B90
:1040A000013B2193A34200D946E7AAE7229B039351
:1040B000219B029303230193084B0CE72300BAE7EB
:1040C000074BEA009B185C681B682F000693079457
:1040D00000248AE6219B002B93D020E7DC610010AE
:1040E00088630010F0B5DE4657464E464546E0B5BB
:1040F0009FB01C00289B93460A93CC4ACC4B8A461F
:1041000009901A60002900D14DE1002320789946DA
:10411000002800D14FE1C74B4D460893C64B0D9385
:104120000AE02A006E1C5B46099D5146A8473500EF
:1041300001342078002872D02528F2D11023994626
:10414000083B9846043B00219C4602270134207816
:1041500026000300203BDBB2102B03D8089A9B00FB
:10416000D3589F460300303B092B6ED900272A28DD
:1041700000D18AE000230B932E2800D176E00300C3
:10418000683BDBB2122B1BD8AC4C9B00E3589F461C
:10419000012301341943DAE739430134D7E7634691
:1041A00001341943D3E74B4601341943CFE7434663
:1041B00001341943CBE780235B0070781943013643
:1041C00067280AD824281FD90300253BDBB2422BDD
:1041D0001AD80D9A9B00D3589F460300693BDBB267
:1041E0000F2B11D801249C40954AA44690461440B8
:1041F0000C9462464446224200D025E20A2B00D1AC
:1042000001E1072B00D1D8E0099C2A005B4651460A
:10421000A04770786F1C741C3D0000288CD1A94603
:104220002C00CB4503D801235B425B4499465B4697
:104230004A4651460020099DA84720001FB0F0BC07
:10424000BB46B246A946A046F0BD0027BB00DF1919
:1042500001367F003F183078303F0300303B092B98
:10426000F4D900230B932E2800D088E780237078A0
:10427000DB0019430300303B741C092B00D82CE1F0
:104280002A2800D138E1260079E70A9B80CB002F4D
:1042900003DB60780A93661C6CE7022260781143A6
:1042A0007F420A93661C65E7672800D1C8E147286A
:1042B00000D104E2452800D104E207200A9B0491C2
:1042C0000733834319000B9A039702920CC909988C
:1042D000009201930A912A005B465146FFF7F6FAD5
:1042E000741C050025E770786C2800D10DE280234E
:1042F0005B001943013663E780239B007078194304
:1043000001365DE77078682800D1F9E18023013635
:10431000194355E7462800D18FE107200A9B0491F5
:104320000733834319000B9A039702920CC909982B
:10433000009201930A912A005B465146FFF7F0FC78
:10434000741C0500F5E62A00099C5B4651462520B1
:104350006F1CA0473D00741CEBE6890700D4DEE12A
:104360000A9B2A0098466B1C9946434601CB51464E
:104370009846099C5B46C0B2A047ED19012F00D8B2
:1043800093E24C46B1465646099F22005B460134F3
:1043900031002020B847AC42F7D1B24643464E46E2
:1043A0000A93741CC5E6274B20780993002399468D
:1043B000002800D0AFE6002433E70A9B1A0008CAA1
:1043C0009046002B00D1A7E0212008430EA98C467F
:1043D0001F2262440F27AC46814615000C9C02E068
:1043E000202C0CD013003800184001003731092868
:1043F00000D80739013429551A090F2BF0D8654622
:1044000048460C9494E00A9B1A0008CA12920B9A30
:10441000002A7BD102241A786442002A1DD001347C
:1044200018199C461C00030010E0C046E54000102F
:104430006C0D0020E8610010786200102C62001002
:1044400041900000253600109C4203D06078013472
:104450000028F9D16346E01A0C908020C000844601
:10446000084080466046014204D00B980C9C844270
:1044700000D90C900220844608400A906046084209
:1044800000D189E1101E00D170E14246002A00D11E
:104490001BE10B9A5B1B9046A84444462A00B84691
:1044A00099465746B246099E09E05B463900551CBD
:1044B000B0474B46585D002800D12CE12A009442B9
:1044C000F3D156462500BA4647460A9B002B00D03A
:1044D0004CE1129B741C0A932BE6002293009B185C
:1044E0005B0001341A182078303A0300303B092B66
:1044F000F4D926000B9242E60A9B023604CBD04345
:10450000C01702400B9230780A9338E61A78002AD6
:10451000A3D00B98441E82E71023080080279843FD
:10452000113318430B00FF003B40394200D14DE7E7
:10453000082305930B9B2A00049310230393002365
:1045400002930C9B0690019316AB009351465B4679
:104550000998FFF7B1F843460500741C0A93E8E593
:10456000622800D1A6E1582800D1B1E180230A00D9
:10457000DB001A409046194200D189E1112399438A
:104580008C46802362469B001A40100062461A4205
:1045900000D023E1802364465B001C401A4200D017
:1045A00032E263465B0600D56BE163460A991B065F
:1045B00000D4DBE208C91BB2DA179818504080B269
:1045C0000A91DA0F0C92002B00D118E280460EAA55
:1045D00091461F234B441395E14645461297B0463A
:1045E0001E0001E0202C0FD028000A2101F078FDE8
:1045F000013437193031397028000A2101F030FDBB
:104600002F000500092FEDD84646CC46129F139D7A
:10461000634606930B9B059704930A2303930C9B15
:10462000029316AB2A000194009351465B46099809
:10463000FFF742F8741C05007BE5202319436CE664
:1046400080231B01194338E6782800D07CE18023C1
:104650000A00DB001A409146194200D1A5E20D2361
:104660009943080003330C93802302009B001A40F7
:104670009046184200D078E1802304005B001C4083
:10468000184200D007E2430600D453E2FF210A9B00
:1046900004CB0A4090460A934346002B00D026E103
:1046A000103398434B46002B00D120E100240B9B94
:1046B000069004930C9B059703930023B0E7802397
:1046C0001B01194320231943F7E55B1B99460C9BFB
:1046D000099C98465B46B3465646BA461F002A00D8
:1046E0003B003100A0474B460135585D0028F6D10C
:1046F00043460C933B005746B2465E469B46E4E673
:10470000C023B078194302365AE5C0239B00B07825
:104710001943023654E55646BA464746D5E6012FB8
:1047200000D832E26B1E9846B8442C00A946454694
:10473000B8465746B246099E22005B46013439000E
:104740002020B047AC42F7D10A9B564601CBBA466F
:104750004746984622005B46099C5146C0B2A04796
:104760004D464346ED190A93741CE2E40C9BA8469F
:104770009F4200D8ADE64446B04656467D19099F93
:10478000ED1A22005B46013431002020B847AC42CC
:10479000F7D1B24646469CE60C98874200D8F0E135
:1047A000424698467919B9465746B246099E0C1AB0
:1047B0000C922A005B46013539002020B047A54203
:1047C000F7D15646BA464F4643460C9A90467A1C55
:1047D0000C921A78101E00D057E67AE608220721BC
:1047E00091460A9B07338B4399444A460ACB0C00F7
:1047F0000A921C43DA0F002C4ED0D81704001090F8
:104800004C4011900E94109811990C005C400F943C
:104810000E9B0F9C1B1A8C410E930F940EA9884679
:104820001F23002443441297B046270013951E000F
:104830000E9C0F9DE1460C9201E0202F10D020002D
:1048400029000A22002301F003FC013730322B003B
:10485000F2550D0022000400002BEED1092AECD8FD
:104860004646CC460E940F950C9A3C00139D129F21
:10487000634606930B9B059704930A2302920393C6
:10488000CFE6FF230A9904C9134018000A9198E65D
:10489000102399438C4674E643460024002BE7D14D
:1048A000002300240E930F94B8E743464D460A9325
:1048B000741C3EE480230A00DB001A409146194232
:1048C00000D140E10D2399430B3B08000C93CBE64C
:1048D00080230A00DB001A409146194200D162E1B0
:1048E0000D2320209943033308430C93BCE6612336
:1048F000810600D541230EA91F228C46DBB26244FB
:104900000A3B13971495814645460C9FB046129377
:10491000160008E03033DBB201343355BD420ED30C
:10492000202C0CD005003900280001F0D9FBCBB2B7
:104930000929EFD9129A94466344DBB2ECE7464664
:104940004846139F149DB2E66F2800D03CE10C232B
:104950000800984380230A00DB001A409146194260
:1049600000D02AE108230C937EE60A99FA3BFF3B2C
:104970000731994301339C468C4463464A680A9345
:104980000B6890469C461343191E06D14B461031C6
:1049900000248843002B00D089E66121830600D5DE
:1049A00041210EAA91461F234B449946C9B20C9B44
:1049B0000A3913971495159645464E4600246746C6
:1049C0009846814612910CE03032D2B20023013475
:1049D0003255AB4200D1BCE0202C00D1BCE0070036
:1049E0000D00424600233800290001F031FBD2B20D
:1049F000092AE9D9129B9C466244D2B2E6E74346B3
:104A0000002B00D004E6E2E50A9C08CCDA0F1392F2
:104A1000002B00D1A5E0D9175B184B4098460EAA91
:104A200091461F234B440C95A14645461296E046FD
:104A300006001C000A9701E0202E0FD028000A2152
:104A400001F04EFB0136A7193031397028000A21D8
:104A500001F006FB2F000500092FEDD8C4464C4697
:104A600030000A9F0C9D129E634606930B9B2A0002
:104A700004930A230393139B0190029316AB0093B4
:104A800051465B4609980597FEF716FE0A94050005
:104A9000741CFFF74EFB0A9B10CB1493002C04D11F
:104AA000102398434B46002B2CD16123810600D55F
:104AB00041230EA91F228C46DBB262440A3B1297A7
:104AC0001395814645460C9FB0460A93160008E0B0
:104AD0003033DBB201357355BC420ED3202D0CD0E0
:104AE00004003900200001F0FBFACBB20929EFD90C
:104AF0000A9A94466344DBB2ECE748464646129F66
:104B0000A846139D0B9B2A0004930C9B06900393CD
:104B1000002302934346019316AB009351465B4634
:104B200009980597FEF7C8FD149B05000A93741CAD
:104B3000FFF7FFFA03061FD50A9B02CB09040A0CF4
:104B400090460A93A8E50C2399430A3B08000C936E
:104B50008AE5B84500D83FE74846139F149D159E47
:104B6000A5E54346002B00D07EE758E708C9DA17D1
:104B7000981850400A9124E50A9B04CB90460A936A
:104B80008AE5010001310C9124E60A9F6C1C01CFDB
:104B90002A005B46099D5146C0B2A84725000A97E6
:104BA000741CFFF7C6FA202319430C2399430023F2
:104BB0009946103308000C9356E508238C460C9355
:104BC0000D23604698434FE510230A009A4394460C
:104BD000692808D180230A00DB001A409046194258
:104BE00000D1CEE4CAE41C230800984380230A00C5
:104BF000DB001A409146194202D10A230C9333E597
:104C00000A230C93DCE7C04600B585B0039101216F
:104C100002900093034813004A4202A9FFF762FA88
:104C200005B000BDBD38001010B5094A0300146876
:104C300084B0002C08D0012200910648524203A9FA
:104C4000A047012004B010BD00F0E4FF0020F9E708
:104C50006C0D0020AD38001001480421014B1847AD
:104C600060090020A14C0010044B5B68002903D1AF
:104C700000B59847203000BD08461847600900205D
:104C8000142310B50100188804331B88984710BD01
:104C9000162310B50100188802331B88984710BDF1
:104CA000F8B54746CE4680B50F1E19D01423994655
:104CB000043304000025012698464B4618884346D5
:104CC00021681B88984701C4431E98410135404222
:104CD0000640AF42F1D13000C0BCB946B046F8BD85
:104CE0000126F8E7124A936F9B0815D29066D166A9
:104CF000002905D0FFE7FFE7FFE7516F106F70470E
:104D000004B580210906C2175140002800D0C843CD
:104D100001F0C6F9002104BDF0B5146E556E576F51
:104D2000166FFFF7E3FF1466556657671667F0BD09
:104D3000000000D0114A936F9B0813D21066516691
:104D4000002905D0FFE7FFE7FFE7516F106F7047BD
:104D500004B5002801D00020C04301F0A1F90021D2
:104D600004BDC046F0B5146E556E576F166FFFF751
:104D7000E5FF1466556657671667F0BD000000D062
:104D800094464A4A926F9208624601D228E0C04691
:104D9000F0B5464E346E756E776F366F00F020F8C2
:104DA0009446424A14665566576716676246F0BDD8
:104DB00094463E4A926F9208624601D254E0C04641
:104DC000F0B53A4E346E756E776F366F00F04CF872
:104DD0009446364A14665566576716676246F0BDB4
:104DE000002B24DB11D000293EDA00B5C943404234
:104DF00000D1013100F038F8C943404200D10131FF
:104E0000DB43524200D1013300BD002AEBD1002820
:104E100001D1002905D00020C90FC90701D1C04325
:104E2000410800B501F02CF90022002300BD00B5B7
:104E300000290ADBDB43524200D1013300F014F8B1
:104E4000C943404200D1013100BDC943404200D1B5
:104E50000131DB43524200D1013300F005F8DB435E
:104E6000524200D1013300BD002923D1002B18D1BB
:104E7000002A0CD0BC460D4F38667A66002100230C
:104E8000FFE7FFE7FFE77A6F386F67467047002854
:104E900001D00748010000B501F0F2F8002200231C
:104EA00000BD02000B00002000217047000000D070
:104EB000FFFFFFFF002B00D0BFE0130C28D1002A1A
:104EC000E7D080B4114F39667A66FFE7FFE730B468
:104ED000040C7B6F396F1B0423433B667A66FFE744
:104EE000FFE7FFE7C04684B27B6F3D6F1B0423439F
:104EF0003B667A66FFE7FFE7C04600232C042D0CD3
:104F00007A6F386F00196941B0BC7047000000D05B
:104F1000F0B594460025140E01D112020835140F85
:104F200001D112010435940F01D192000235D40F42
:104F300001D152000135D40B0134254F7C66254C3C
:104F40003C660E0C93B2FFE7FFE7FFE73C6F66435A
:104F5000360C7703BE467343DF0B5B04C01AB941BE
:104F6000130C7343DB18C91ACE086643360CB644DB
:104F700093B273431F0F1B01C01AB941130C734343
:104F80001F0B1B05C01AB941860D8F023E436643B5
:104F9000360C092D24DB520A7243801A7703460A25
:104FA0006643360C16235B1BDE40DF40BF196446A8
:104FB0006643821B7046043506330100D940A84081
:104FC000C01900D30131A24206D20023F0BD000077
:104FD000000000D0FFFFFFFF121B0130F3D3F1E709
:104FE00009277F1BFE406446A2B27243801A00D29A
:104FF0000139220C7243130C1204821A99410B00DE
:105000007046043513370100F940A840801900D3D9
:105010000131002B02D1A2420AD2F0BD013000D3EF
:105020000131121BFAD2013BF8D1A24200D2F0BDED
:10503000013000D30131121BF7E7F0B51C0C00D092
:1050400080E00CB400251C0A04D11B02160E334369
:10505000120208351C0B04D11B01160F3343120139
:1050600004359C0B04D19B00960F3343920002350C
:10507000DC0B02D192185B4101351C00971864418A
:105080000134464F7C66464C3C660E0CFFE7FFE75A
:10509000FFE7C0463C6F6643360C7703BE4697B2C7
:1050A0007743C01B00D20139C01B00D201399FB227
:1050B0007743C91BC91B170C77437E04FF0B801B6A
:1050C000B941CE086643360C0C2D33DBB644120BC7
:1050D0001F053A431B0B97B27743C01B00D201391F
:1050E0009FB27743C91B170C77433E043F0C801BCC
:1050F000B941860D8F023E43664329277F1BFE4040
:105100000C3D7746AF40BF1930BCA2B2ABB2724380
:105110007343801A9941220C7243130C1204801AB3
:10512000994102000B000137001BA941F9D2781EFA
:105130000021F0BD0C277F1BFE4077467F0BAF4060
:10514000FF19E0E700245D1C07D0144F7D66396627
:10515000FFE7FFE7FFE7FFE73C6F95B29EB26543CD
:105160006643401BB141150C1E0C65436643360473
:105170002F0C3E432D04401BB141994204D2020042
:105180000B0020000021F0BD01D19042F7D3801A1E
:10519000994101349942F2D3F6E70000000000D0B3
:1051A000FFFFFFFF10B5FFF7EBFD029C0CC410BD25
:1051B00010B5FFF7FDFD029C0CC410BD48404140F6
:1051C000484018B41B4B5B68FC46019308BD04DFE4
:1051D0004F54001018B4174B1B68FC46019308BDD0
:1051E00000DF595400109446134A926F920809D276
:1051F000624618B40F4BDB68FC46019308BD0CDF18
:10520000115700100C4AF0B5146E556E576F166F9B
:105210006246FFF7EEFF084A146655665767166741
:10522000F0BD18B4034B9B68FC46019308BD08DF32
:10523000B5550010E80A0020000000D0FFB550402E
:105240004240504059404B40594000E0FFB5154F97
:105250004C00640D03D0BC4204D10C0314D80020D0
:10526000090D09055C00640D03D0BC4204D11C0388
:105270000AD800221B0D1B0501264B4009D44B40C8
:1052800003D58B4200D18242FFBD9942FCD19042AE
:10529000FFBD0B43DB1803431343F5D0C943491843
:1052A000FFBD0000FF07000000B5FFF7CFFF804102
:1052B00000BDC04600B5FFF7C1FF01D9002000BD09
:1052C000012000BD00B5FFF7B9FF804100BD0120FE
:1052D00040054A00121804D85A00121801D80020BC
:1052E000704701207047002070470000002100280F
:1052F00005D17047C1174840401AFAD0C90713B505
:10530000064B1B6898470CBC441CA2401005120BAE
:105310000349091B09051943114310BD800D0020E5
:105320001F04000010B54C00620D8023D218DB0072
:10533000D21A5B057E2A10DD9E3A13DACC170903D8
:10534000490819435242D140640001341532202AE1
:1053500005DAD0400843604310BD002010BD084668
:10536000604310BDC80FC018013810BD18B4044BFD
:105370005B6AFC46019308BD24DFC15800100000A1
:10538000E80A0020132370B51D78012D15D010DD1B
:105390001D48FFF77DFC1D4C01008022200000F01D
:1053A00057FB022D2DD01A48FFF76AFC194B1860E5
:1053B00070BD194B154CA364F5E7174B134C2360D4
:1053C0006360A360E36023616361A361E3612362BF
:1053D0006362A362E36223636363A363E36323649F
:1053E0006364A364E36423656365A365E36523667F
:1053F0006366A366E36623676367A367E367A364E3
:10540000D1E7054BA364CEE753440000E80A00202F
:105410004C330000800D00201D54001007B560467D
:1054200001880A0A0230DF2AFAD1C9B2820804D3FD
:10543000028840880004104300E00068014A505090
:10544000039007BDE80A00200FB403BC0CBCF0B504
:105450000124E407634000E0F0B50C0DCF0F661E99
:105460003605891B640503D3C943404200D301318B
:10547000640D03D0661CF60A07D0E41B00207F00F1
:10548000791C89078912803C24031D0DDF0F6E1ED5
:1054900036059B1B6D0503D3DB43524200D301331A
:1054A0006D0D03D06E1CF60A07D0ED1B00227F00A5
:1054B0007B1C9B079B12803D2D032F1B661B58D422
:1054C000A446202E46DA20371400BC401D00BD4003
:1054D000F24033412A4380185941CB0F05D0C943CC
:1054E000C043002264425041514162464D0D28D1D3
:1054F0000D0D07D100281FD0241940414941013A20
:105500000D0DF9D0640006D3013000D30131002C19
:1055100001D140084000013A0BD4941CE40A04D1A4
:1055200012051144DB071944F0BDD907204B19437C
:1055300000E0D9070020F0BD0029DDD1002CDBD12F
:10554000F0BD0132C6074008CD0728434908002EA8
:10555000E1D0D9E73C2E29DA203E40371400BC4088
:1055600000D00124F24014431A00BB401C43D3175F
:10557000ACE7AC46202F08DA20360400B4400D001A
:10558000B540F84039412843A5E73C2F0CDA203FCD
:1055900040360400B44000D00124F8400443080021
:1055A000B1400C43C117EAE710001900002494E74A
:1055B0000000F07FF0B50C0D661E3605891BE60A6B
:1055C0006405640D02D0651CED0A04D000200121A1
:1055D0000905803C2403A4461C0D671E3F05DB1B08
:1055E000E70A6405640D02D0651CED0A04D00022B0
:1055F00001231B05803C24037740644497B484B2A4
:1056000096B27443070C7E43150C6F4380B2684317
:10561000361802D3012000043F183004350C00195D
:105620007D41844688B29AB250430C0C62431F0CF1
:105630007C438EB27E43921902D301263604A4190C
:105640001604170C3618674101BC81B29AB2514357
:10565000040C62431B0C5C4380B25843121802D303
:105660000120000424181004130C401863412D1865
:105670005E410020474106BC88B293B258430C0CEF
:105680006343120C544389B251435B1802D3012186
:105690000904641819041A0C091862416D1856415E
:1056A0000020474118BCF902720D1143F0026A0D47
:1056B0001043ED020A0D03D16D1940414941013BF0
:1056C000124E9B1B7600B3420ED26D0007D3013001
:1056D000002671416646354301D1400840001B0554
:1056E000C918E4072144F0BD0BDA013306D10130BB
:1056F00004D101314F0D01D04908F2E7E107002044
:10570000F0BD013631050020EBE70000FF0300008B
:10571000F0B51C0D671E3F05DB1BE70A6405640D31
:1057200002D0661CF60A04D0002201231B05803C2F
:105730002403D0252D060026F6432E661E096E662C
:10574000CE0FF619B44649004F0D02D07E1CF60A62
:1057500003D000200021403F3F033E1BB600B4446D
:10576000013F7F05C91B49082E6F013676089C0250
:10577000950D25437543ED137543AD1301356D103C
:10578000F603761B0CB4CC02450D2C43A2B2B3B287
:105790005A43270C7B43350C6F43A4B26C431B194F
:1057A00002D3012424043F191C041D0CA4187D41BC
:1057B00024196D41009A91B2ACB26143170C7C433D
:1057C0002B0C5F4392B25A43A41802D30122120455
:1057D000BF182204230C52187B41019C6C431B19F7
:1057E000520ED9010A434401A01A81B2B2B2514308
:1057F00003145A43360C734387B27743D617D21932
:1058000000277E4136049B191704160C7F185E4151
:105810007316ED18F301002680337541A90F06D1E8
:105820006400690AE8055B0A184309D22FE00422E4
:10583000944480337541A90AA8059B0A184326D3CE
:10584000404149412404009A019B0D005543641BCB
:105850004343E41A95B286B27543170C7E43030C9A
:105860005F4392B25A43B61802D301221204BF1802
:105870003204330C52197B4152429C41002C02D419
:105880000022013051414008CA071043490802B0C4
:105890006246D7079210084BD218084B9A4203D29F
:1058A00012058918C919F0BD0020002A01DC390051
:1058B000F0BD01331905F5E7FD030000FE07000008
:1058C000002200B5203200F004F8080000BD0000FE
:1058D00000220B150AD410B5944600F031F81414C8
:1058E000013400DA0021CB17144C2047002000219E
:1058F00070476244343A0CD40C2A07DA0400914011
:10590000904052422032D440214310BDD843D94365
:1059100010BD203207D40C4694405242203211412F
:10592000D040204310BD0800C917203203D4524292
:105930002032104110BD1800190010BDF35800109E
:105940000A0DCC0F531E1B05C91A520503D3C943B8
:10595000404200D30131520D03D0531CDB0A07D063
:10596000121B00206400611C89078912803A12030F
:10597000014BD21A70470000FF030000514343431C
:10598000C9188C46110C83B24B4310B4040C61430C
:1059900092B280B2504362431C041B0C001910BC2D
:1059A00059411304120CC018514161447047000062
:1059B000132310B512481C78FFF76AF90100012C77
:1059C0000AD003DD80220F4800F042F80E48FFF7AE
:1059D00057F90E4B186010BD0A4C5422200000F0FD
:1059E00037F80B4B6365A365E36523666366A366BF
:1059F000E36623676367A367E3672362E361E5E721
:105A000053460000F00B00204C330000800D0020B6
:105A1000155A001007B5604601880A0A0230DF2ACD
:105A2000FAD1C9B2820804D3028840880004104326
:105A300000E00068014A5050039007BDF00B0020C1
:105A400001480421014B184770090020A14C0010A7
:105A5000014B5B681847000070090020F0B546460E
:105A60004F46D646C0B5437D80460E001700002B3A
:105A70004BD0002A32DD274B01259A464B1E0024CD
:105A80000020994607E0335D0A2B2CD02B0001340F
:105A90000135BB4213DA002CF5D133780A2BF5D14E
:105AA00043461B7D002BF1D14346504602211B6823
:105AB000984728002B0001340135BB42EBDB8742BD
:105AC00004DD4346391A1B6830189847F619013E21
:105AD00033780D3B5A42534142461375E0BCBA46F7
