:020000041000EA
:1000000000B5324B212058609868022188439860DF
:10001000D860186158612E4B002199600221596106
:100020000121F02299502B49196001219960352056
:1000300000F044F80222904214D00621196600F024
:1000400034F8196E01211966002018661A6600F04E
:100050002CF8196E196E196E052000F02FF8012189
:100060000842F9D1002199601B49196000215960AB
:100070001A491B48016001219960EB211966A021F2
:10008000196600F012F800219960164914480160C1
:100090000121996001BC002800D000471248134993
:1000A000086003C880F30888084703B5996A0420EC
:1000B0000142FBD001200142F8D103BD02B5186610
:1000C0001866FFF7F2FF186E186E02BD00000240BE
:1000D000000000180000070000035F00212200005C
:1000E000F4000018222000A00001001008ED00E03C
:1000F00000000000000000000000000074B24E7A12
:1001000000200420F7010010C3010010C5010010F9
:10011000C1010010C1010010C1010010C101001097
:10012000C1010010C1010010C1010010C701001081
:10013000C1010010C1010010C9010010CB01001065
:10014000CD010010CD010010CD010010CD01001037
:10015000CD010010CD010010CD010010CD01001027
:10016000CD010010CD010010CD010010CD01001017
:10017000CD010010CD010010CD010010CD01001007
:10018000CD010010CD010010CD010010CD010010F7
:10019000CD010010CD010010CD010010CD010010E7
:1001A000CD010010CD010010CD010010CD010010D7
:1001B000CD010010CD010010CD010010CD010010C7
:1001C00000BE00BE00BE00BE00BE00BEEFF3058054
:1001D000103800BEF2EB8871A44E0010C84E00101B
:1001E0003402001090A31AE700201F49086006C8D7
:1001F00081F3088810471D48006800282FD10DA4FE
:100200000ECC002902D000F012F8F9E71849194A7B
:10021000002000E001C19142FCD1174988471749ED
:1002200088471749884700BEFDE701C901C29A42C5
:10023000FBD37047C84E0010C00000207C02002095
:10024000845000100000042000000420845000109E
:10025000001004200010042000000000704709482E
:1002600003F028F90047000008ED00E0000000D08E
:100270008002002068060020391D0010B503001020
:100280002D1E00105756000006005250ABB36053AD
:10029000084E001006005250861C0302184E001033
:1002A000060052505422A29D304E001005005250BC
:1002B000DE65F46884500010F8B5C0460448054B6C
:1002C00010B5834203D0044B002B00D0984710BDDB
:1002D0007C0200207C020020000000000648074944
:1002E000091A8B10C90FC91810B5491003D0044B57
:1002F000002B00D0984710BD7C0200207C0200201B
:100300000000000010B5074C2378002B09D1FFF73F
:10031000D5FF054B002B02D0044800E000BF0123AD
:10032000237010BDA805002000000000404A001006
:10033000054B10B5002B03D00449054800E000BF71
:10034000FFF7CCFF10BDC04600000000AC05002048
:10035000404A0010064B10B5196806480131196073
:1003600004F058F90122044B642000211A7010BDDA
:1003700024060020404A001062060020F8B5FA2644
:10038000FA2000F03DFF0024084D094FB60009E0B7
:100390002100380004F03EF90134172000F030FF4E
:1003A000B44202D02B78002BF2D0F8BD61060020B9
:1003B000644A0010F0B5002485B004F037F9394DD7
:1003C00021002800013404F025F90A2CF8D1364820
:1003D00004F02EF8354D3648296804F01BF9002347
:1003E000344C3548236004F0ADFA00F06BFC060095
:1003F00000F0C8FE0023314A12184B418021090643
:100400008B4202D301222E4B5242002102910191D4
:100410002C493000009100F059FC06002A4804F0F5
:100420000BF92A4F002807DB294A2A48396804F0CB
:10043000F1F801235B4223600122274B1A7000F080
:1004400041FC310000F006FD642000F09FFD234BCD
:100450001B78002B11D02368002B16D1204A396855
:10046000204804F0D7F82468002C16D129681E48CB
:1004700004F0D0F8200005B0F0BD1C4A15483968DA
:1004800004F0C8F801235B422360154A1848396814
:1004900004F0C0F801246442ECE72968154804F030
:1004A000B9F8F7E77C4A0010884A0010980100204C
:1004B000A04A00102C0600207D03001020A1070098
:1004C000FFFFFF7F5503001080841E009C01002069
:1004D000BC4A0010D44A00106106002062060020C9
:1004E000084B0010444B0010704B0010E44A001001
:1004F0001C4B0010644B0010094A10B59446402470
:10050000830063441A68C000624080341440802233
:10051000520113431C60034B9C466044416010BD74
:1005200004C0014000400140024B18688007C00F22
:100530007047C04600C0064070B5EFF3108C72B62D
:100540000D4D2B68002BFCD0BFF35F8F0724CB0829
:10055000C618C05C01230C40A3401C0004400342A9
:1005600007D118433070BFF35F8F2C608CF3108875
:1005700070BD100001F05EFC2C0100D00021044B86
:10058000044ABFF35F8F02C39342FAD17047C0465B
:10059000000100D0800100D0044A1078431CDBB277
:1005A000172B00D9102313707047C046A0010020FC
:1005B00001238340002904D0034A1360034A1360D7
:1005C0007047034A1360FBE780E200E000E100E0CF
:1005D00080E100E001228240034B1B6813405A1E59
:1005E0009341D8B27047C04600E100E0024B1030A2
:1005F0009B688000C058704700ED00E070B50D00AA
:10060000EFF3108672B60F4A1368002BFCD0BFF3CD
:100610005F8F0D4B10309B6884001B590B4A93422F
:1006200003D09D4201D001F01DFC074B9B681D517A
:10063000BFF35F8FBFF35F8F0022024B1A6086F318
:10064000108870BD240100D000ED00E0CD01001045
:10065000F0B5DE4657464E464546E0B50C0083B041
:10066000EFF3108872B65D4A1368002BFCD0BFF31D
:100670005F8F5B4B5B499A68030010339F00D5592D
:100680008D4239D0A5424AD0574EAA1B2F2A33D8C3
:1006900001229246824091464846544A12681040D0
:1006A00001904846524A1060BFF35F8FEFF3058216
:1006B0009346002A35D0934201D001F0D3FB2A00A3
:1006C00053469A439068844208D175E04B005B180A
:1006D0009B00F3189868A04234D01A0006215156A6
:1006E0000029F3DA844253D0019B002B26D04A46DE
:1006F000404B1A603D4B1A60394B9B68DD51BFF38C
:100700005F8FBFF35F8F0022344B1A6088F310882D
:1007100003B0F0BCBB46B246A946A046F0BD0D00F2
:10072000EAE72A0053469A4390688442D6D10620CD
:1007300010561300002809DA0D0031E04A462C4B10
:100740001A60D9E706201856002822DB420011184B
:10075000890074188A46A1689960E179D9710621E7
:1007600061569971002925DBA488F11A64052415C6
:1007700054440919E0240905490D240221439980B4
:1007800013181D4A9B001178F31899711070ABE78C
:1007900013005946002914D1FF31917117499180F6
:1007A00015490A789A71164A9B1B5B415A43120DF0
:1007B0000A7099E71349E2E7062010561300002853
:1007C000C4DA114A1149D21A083A5002400D0143C5
:1007D00099800F4952080A43DA8085E7240100D046
:1007E00000ED00E0CD010010A401002000E100E0D8
:1007F00080E100E080E200E06306002001BDFFFF31
:10080000AAAA000001BD0000DE01002000F0FFFFE9
:1008100000F8FFFF70B5EFF3058101240443EFF307
:10082000108C72B6214A1368002BFCD0BFF35F8F87
:100830001F4B05001F4AED1A6D416A43120D1E4DF4
:100840008900AE6852B27658A6421CD0062159568D
:1008500091421CD012215956914222D01E21595644
:10086000914220D02A2159560324914210D0134B93
:1008700019781A708171BFF35F8F00220B4B1A60D9
:100880008CF3108870BDAB680D4C5C50EFE7002412
:100890006100091989005B18FF2199710949998044
:1008A000E5E70124F4E70224F2E7C046240100D082
:1008B000A4010020AAAA000000ED00E063060020C9
:1008C000CD01001001BDFFFF054B064A1360064A2B
:1008D000136053609360D3601361536193617047F9
:1008E0008080808000E400E004E400E0024B9C464D
:1008F00061448900016070474000003410B5040075
:10090000FFF74AFE01002000FFF7F0FFFF232371ED
:10091000BFF35F8F10BDC04610B50400FFF73CFE6B
:1009200001002000FFF7E2FFFF23A380BFF35F8FEA
:1009300010BDC04683680B4810B5844661446244CC
:100940001201090159189B185C684A6801209442F9
:1009500001D802D00020C0B210BD1A680B689A42BC
:10096000F9D8F7E7FFFFFF0F0A4B1968EFF3108084
:1009700072B60A68002AFCD0BFF35F8F1B68BFF312
:100980005F8F00221A6080F3108840BF0020002192
:100990007047C04644060020F8B5574645464E46C7
:1009A000DE46E0B598460CAB1C780DAB1B78070013
:1009B00091469A460568002C5ED1AC7B002C3BD05A
:1009C000660029683619033E89194B78AB73002BF2
:1009D00000D1EB7300238B704B700B702D4BE21822
:1009E000BB6812019B184A461A6042465A600A9A2E
:1009F0009A600B9ADA6000238B704B700B706B7BE4
:100A00009B46002B2BD022005946A8686B6898475C
:100A10002A68002816D05B4658465B005B4496194E
:100A2000033BB070D118D35C002B00D073705B46D1
:100A30000C706B735C4513D0F0BCBB46B246A94644
:100A4000A046F8BD5B465B005B44033BD3189C703B
:100A50009119925D002A00D05A705B460B706C733E
:100A60004A464346387D00F06DFC051E0AD10E9BB8
:100A7000002BE1D01D70DFE7660029683619033EC0
:100A80008919ABE75346002BF1D12100386800F0FB
:100A90007DFEECE7FFFFFF0FF0B5DE4657464E4602
:100AA00045460023E0B58BB00893684B8200D458CC
:100AB00000239B46099000F065FB02000B00606874
:100AC000EFF3108A72B6564601680029FCD0B24690
:100AD000BFF35F8F21684F7B8C46002F2ED0A56817
:100AE0005B49A9467918090189444946086849685B
:100AF00005000E00AD1A9E41002E5FDD02000B00C6
:100B0000099800F01FFC002300229946002306925A
:100B10000793002398466368BFF35F8F5A461A60B5
:100B20008AF310884346002B12D10028C3D10BB0A2
:100B3000F0BCBB46B246A946A046F0BD0023002249
:100B40009946002306920793002300209846E2E787
:100B5000089B494618023843C047626805000E00EA
:100B6000EFF3108A72B61368002BFCD0BFF35F8FCF
:100B7000002E41DB2B00334302D02369002B56D1DA
:100B80002368D97B002905D01A68480041185218FB
:100B9000033A57709A7B002A00D19F73DF73E26893
:100BA000013FD35D0133D3555B4623616368BFF3D7
:100BB0005F8F5A461A608AF310887CE7002E02D1B4
:100BC000002D00D09AE70021604600F05DFD4B4605
:100BD0001A685B68069207934B469B6898464B469B
:100BE000DB689946E368DB19013B1B7808931B021D
:100BF0000343236100208EE72369002BC0D0069AAF
:100C0000079B8021521BB34109068B4202D301226C
:100C1000104B524200210491013103914946019148
:100C20004146200002970091FFF7B6FEBCE700F0B6
:100C3000A9FA2A00330012184B41802109068B4281
:100C4000E8D30122034B5242E4E7C04630060020BD
:100C5000FFFFFF0FFFFFFF7F10B5144C6368002BF1
:100C600004D00A211248FFF741FE10BD2300114AAB
:100C70001021206800F01EFC032000F077FA03200A
:100C800000F0C8FB03200C4900F016FBFFF784FCC2
:100C90000A4B9C4603232375D0231B061B68604424
:100CA0006375074B80006060DC60DAE7EC010020D0
:100CB0004406002035090010990A00104000003455
:100CC0003006002000487047EC010020F0B5574680
:100CD0004E464546DE46E0B585B0019310AB1B7825
:100CE0000600039300239A46984600927268EFF339
:100CF000108B72B61368002BFCD0BFF35F8F356882
:100D0000AC7B002C00D16FE067002B683F19033FDC
:100D1000DB195A78AA73002A00D1EA734B4AA1184A
:100D2000B2680901521800980199106051600E993B
:100D300091600F99D16042469A705A701A706B7B1D
:100D40009946002B00D170E022004946A8686B68E4
:100D500098472A6800285BD04B4648465B004B44C6
:100D6000D719033BB870D118D35C002B00D07B702F
:100D70004B460C706B734C4558D0F3681B19013B04
:100D800018787368BFF35F8F42461A608BF3108840
:100D90005346002B08D10002204305B0F0BCBB46EF
:100DA000B246A946A046F0BD039B002B4BD00E9B3C
:100DB00000200F999847030004000D000B4342D018
:100DC00000291ADA009A019B121BAB410092019391
:100DD00080221206934204D301231D4C5B420093F0
:100DE0000194039B9A4681E77368BFF35F8F1C6091
:100DF0008BF3108801204042CFE700F0C3F9802236
:100E000024184D411206009401959542E9D3E3E779
:100E10004B465B004B44033BD3189C70D119D25D09
:100E2000002A00D05A704B460B706C73307D009ACC
:100E3000019B00F087FA824600289ED0210030688E
:100E400000F0A4FC99E70020A7E7C046FFFFFF0FD2
:100E5000FFFFFF7FF8B50400002931D04268EFF3AF
:100E6000108572B61368002BFCD0BFF35F8F20682B
:100E7000CEB2437BB34215D0FF220A40036857002D
:100E8000BA189B18033B9B78002B0BD12269914227
:100E900018D000206368BFF35F8F00221A6085F3CB
:100EA00010880EE0FF230A0A1940E368D2B25B18EB
:100EB000013B19789142ECD1310000F067FCE9E781
:100EC0000020F8BD2361E4E7F0B504000D0006261C
:100ED0007642F717C64636196F4100B584B08F4287
:100EE00014D811D000F04EF932003B00121A8B4199
:100EF000002B15DC002B3ED02000290000F0CCF99F
:100F000004B080BCB846F0BD8642EBD9002600276D
:100F100000F038F932003B00121A8B41002BE9DD5A
:100F2000002302930193154B3200009314483B00B9
:100F3000FFF7CCFE0028DFDB00239846BC46114AB1
:100F4000114F7B6A9C4504D8B96AB142D4D29C4502
:100F5000D2D11168EFF3108072B60B68002BFCD071
:100F6000BFF35F8F1368BFF35F8F4146196080F353
:100F7000108820BFE5E7002ABED0D1E7690900103C
:100F8000EC010020440600200040054070B506003A
:100F900000F0F8F8FA2204000D00002330000021D0
:100FA000920003F0F9F88023001969411B06994269
:100FB00002D3012002494042FFF786FF70BDC046C0
:100FC000FFFFFF7FF0B5EFF30583CE46474680B5C0
:100FD00005000C0085B0002B0DD0324A0020536A6A
:100FE0009C4203D8926A0130AA4232D305B0C0BCF9
:100FF000B946B046F0BD2C4E029301932B4B020034
:10100000009330000B00FFF761FE031EE5DD20BFFB
:101010007168EFF3108772B60A68002AFCD0BFF33C
:101020005F8FDAB294463068427B624516D0FF2269
:1010300001681A4089465100884649469044414417
:101040000339897800290BD13269934210D131617B
:101050000EE0E31A5A1E9341D8B2C7E7FF221A40A6
:10106000F1681B0A8A18013A1278DBB29A4214D04E
:101070007368BFF35F8F00221A6087F31088094BF3
:1010800000205A6A9442B1D89B6A0130AB42ADD27B
:10109000A41A631E9C41E0B2A8E7614600F076FB0B
:1010A000E6E7C04600400540EC0100206909001059
:1010B000F0B5EFF30582D6464F4646461000C0B560
:1010C0001038EFF3108872B6214C2368002BFCD047
:1010D000BFF35F8F0123190081401E4D1F0069631C
:1010E000AA461D4D29601D4D2E78AC463500C540E1
:1010F0002F402B4215D053465F6A194B8500EB58A1
:101100009F4218D36246174B8E43EB581670BFF3BD
:101110005F8F0022226088F31088002B06D098474A
:1011200004E0BFF35F8F276088F31088E0BCBA4605
:10113000B146A846F0BD0C4B92009C466244136831
:101140001360BFF35F8F0023236088F31088EDE7FF
:10115000280100D0004005403C7005406406002096
:1011600048060020C4050020D03F054010B5034BC1
:1011700001001800024AFFF7DFF910BD60060020E9
:10118000A84B0010034B596A0A00986A596A8A42B0
:10119000FAD170470040054070B504000D00174AB1
:1011A000536A1900966A536A8B42FAD130001900CB
:1011B00024184D41AB4216D813D0104B2A005B6A5D
:1011C0009D4203D90D494B6A9342FCD3934207D108
:1011D0000A4A02E0516A994202D1916AA142F9D3C6
:1011E00070BDA642E9D9054B5B6A1C005A1CEFD0C2
:1011F000012201246442E5175242E3E70040054022
:10120000234B70B598420BD84201121A2149920023
:101210001218886AD2008B6A1B1A9A42FBD870BDDA
:10122000FA2200239200002102F0B6FF04000D0014
:10123000184A536A1900966A536A8B42FAD13000F1
:10124000190024184D41AB4218D9124B5B6A1C009F
:101250005A1C0AD0012301246442E5175B420D4960
:101260004A6A9A42FCD39A42D9D10A4A02E0516AA8
:101270009942D4D1916AA142F9D3D0E7AB4201D1CE
:10128000A642E2D8034A2B00526A9542E7D8EAE721
:101290009BC4200000400540064A536A9942FCD88E
:1012A00007D1044B02E05A6A914202D19A6A824203
:1012B000F9D370470040054070B504000D00EFF30E
:1012C000108672B61A4A1368002BFCD0BFF35F8FEA
:1012D000002D1BD02000FFF789F9164981420AD062
:1012E0002000FFF78BF901212000FFF761F90123AE
:1012F000A340114A1360114BA400E550BFF35F8F68
:1013000000220B4B1A6086F3108870BD0121A140AA
:101310000A4BA200D5500A4B20001A788A4305498F
:101320001A70FFF795F900212000FFF741F9E5E772
:10133000280100D0B110001038600540C40500201D
:1013400064060020F0B54F46D6464646C0B50700B5
:101350002B4C616A0D00A66A616AA942FAD18B42E0
:1013600008D805D00120E0BCBA46B146A846F0BD79
:10137000B242F7D9EFF3108A72B622480168002909
:10138000FCD0BFF35F8F0125BD401F491C4C884630
:10139000097889462943C9B28C464146604608709F
:1013A000391D890065630A511849B8004350216A04
:1013B0000020294219D0616A0800A66A616A814248
:1013C000FAD18B4219D801D1B24216D8CC450BD0F4
:1013D0000B4B1F221D625D6301233A4093400C4A70
:1013E000136043464A461A700120BFF35F8F002204
:1013F000044B1A608AF31088B5E70020F5E7C04671
:1014000000400540280100D0640600204806002066
:1014100080E200E0EFF3108C72B60A490B68002BF3
:10142000FCD0BFF35F8F01238340074A0748136254
:1014300002789A430270BFF35F8F00230B608CF336
:1014400010887047280100D0004005406406002045
:1014500070B505000E001400002923D0002A12D018
:1014600080686B689847296800280ED063001B19B4
:101470007200033B9219CB18033A9E7088188A5C5D
:10148000002A11D10470300070BD73009B196200F6
:10149000033B1219CB18033A9C7088188A5C002A07
:1014A00005D106702000EFE75A700470EBE75A7020
:1014B0000670F7E730B583600023CCB24373013385
:1014C000047342608373C4730D000068012C06D955
:1014D000421C0133DBB2137003329C42F9D1FF216D
:1014E00029404B005B18C01800230338437030BDFF
:1014F00070B505000C1E07D0630001681B19033B83
:10150000CB185A78002A01D1200070BD50008018F5
:101510000338091800204E784870210058702800C0
:10152000FFF796FF310004002800FFF7E1FF0600F7
:10153000002C26D00028E7D021003200A8686B6874
:101540009847296800280ED073009B196200033B5E
:101550001219CB18033A9C7088188A5C002A00D0B4
:101560005A700670D0E763001B197200033B921992
:10157000CB18033A9E7088188A5C002A00D05A70F3
:1015800004703400C0E7C046F0B557464546DE4615
:101590004E46E0B50D006F0001687F19033F04005F
:1015A000C85D83B00192CA19002850D043001B18AF
:1015B000033BCB185E78B446002E1AD1019E002E54
:1015C00042D0E67B002E04D073009B19CB18033B5E
:1015D0005D70A37B002B00D1A573E57300282FD18C
:1015E0000023537003B0F0BCBB46B246A946A046E8
:1015F000F0BD72006244033A8A185178884600218F
:10160000517089465970320001002000FFF720FF19
:1016100043468246002B07D05B0021684344033BCE
:10162000CB185A78002A16D1424651462000FFF7BF
:101630000FFF2168019BCA19002BC2D10028CFD00F
:1016400043001B18033BCB1800219970C8E7019B8E
:10165000002BB6D1C4E75000801803380918487829
:10166000834648464870587041462000FFF7F0FE18
:10167000594680462000FFF73BFF4146020020000C
:10168000FFF7E6FE8046CFE7F0B557464546DE4613
:101690004E46E0B583B00191457B04006F000068C1
:1016A0007F19033FC15DC219002952D04B005B185E
:1016B000033BC3185E78B446002E1CD1019E002E59
:1016C00044D0E67B002E04D073009B19C318033B63
:1016D0005D70A37B002B00D1A573E573002931D188
:1016E000002328005370617303B0F0BCBB46B246C0
:1016F000A946A046F0BD72006244033A82185078B1
:101700008046002050708146587032002000FFF75C
:101710009FFE43468246002B07D05B00216843446E
:10172000033BCB185A78002A17D142465146200075
:10173000FFF78EFE019B01002068C219002BC0D16B
:101740000029CDD04B005B18033BC31800209870D4
:10175000C6E7019B002BB4D1C2E7500080180338C4
:10176000091848788346484648705870414620001A
:10177000FFF76EFE594680462000FFF7B9FE41464E
:1017800002002000FFF764FE8046CEE770B505003A
:1017900000292CD0437B8B422ED04C00006864186B
:1017A000033C0419A278002A21D053009B18033B64
:1017B000C25CC6188A4202D11BE0002A08D053003E
:1017C0009B18033BC3185A788A42F6D162785A7044
:1017D000002301222800A3706370FFF7D5FE697B08
:1017E00002002800FFF734FE6873012000E00020AB
:1017F00070BD63783370EBE701221900FFF7C4FE78
:10180000F2E7C046F8B5CE464746040080B506204C
:101810000E0000F01FFA051E51D0524B5249E2183B
:1018200053425A418023DB039C4692054F4B62444E
:101830001A604F4B1A6010008B689843FBD1494BDC
:101840004C4AE31859424B4180215B004900062075
:10185000995200F0FFF93100C00001F085FEC30984
:1018600032D14022012190466162A362256BEB07D1
:1018700036D427008026E36A00232C3776013E43C6
:1018800033600620256300F0E5F94146800001F051
:101890006BFE236B05009846DB073BD46023E26AAE
:1018A0005A400E3313403360434623638023102293
:1018B0009B013B431A60304B23630323A36428003E
:1018C000C0BCB946B046F8BD2C4A93423FD900236C
:1018D0002B492C4A6162A362256B9046EB07C8D561
:1018E0002200C02330329B011343234A06201A6092
:1018F000666AA36AB601F61800F0ACF9224901F055
:1019000033FEB6020100300001F02EFE0021FFF789
:1019100043FCAEE72200C02330329B011343164A3A
:1019200006201A60636AA26A9B019946914400F0FE
:1019300091F94B4614499B02994601F015FE0100AE
:10194000484601F011FE0021FFF726FCA6E77F22A2
:101950009901884602400132520819009044130050
:1019600082E7C0460080FCBF00C0004000E00040AD
:1019700000F000405806002001030000FEFF0000B8
:10198000FFFF0000C0FF3F004E0E000010B50C200E
:1019900082B000F0B5F9FEF7C7FD002810D08B4BE0
:1019A0008B488B498B4A186059609860D9601861E0
:1019B00059619861D961186259625A6202B010BDCA
:1019C000854CA06700F0A4F90122844B1A60636C77
:1019D000012BFCD10322824B1A607F4A936B012BAF
:1019E000FCD1013301217F4A7F480093043300F08A
:1019F00037F905237D4A009301217D4800F030F935
:101A00007C4B5A68FF2A02D8802252005A608022FA
:101A1000734B6E4C12011A602169002907D060696E
:101A200001F0A2FD013043001B18033BFDD2E02270
:101A3000704B714819680A400260022219685140CF
:101A400001320A40042102609A681142FCD08021D0
:101A50006A4A09011160802252005A60684B236172
:101A6000684B5968FF2900D85A60032201215B4B5B
:101A70001A60644A93681942FCD0E023106803405E
:101A800061480360126803234A40022113405D4A03
:101A9000036093681942FCD080215C4B09011960F6
:101AA00080215B4B4900516063615A4B5A68FF2AA1
:101AB00000D859608022584B12011A60E169002950
:101AC00007D0606901F050FD013043001B18033B53
:101AD000FDD2E0234F4A11680B4050490B60802132
:101AE0004F4B090119608021394B49005160E36176
:101AF0004C4B5A68FF2A00D8596080224A4B120189
:101B00001A60216A002907D0606901F02DFD0130BB
:101B100043001B18033BFDD2E023424A11680B40EF
:101B200042490B608021424B0901196080235B0010
:101B300053608022264BD20223623E4B5968914269
:101B400000D25A6080223C4B12011A60616A00295F
:101B500007D0606901F008FD013043001B18033B0A
:101B6000FDD2E023334A11680B4034490B608021D9
:101B7000334B090119608023DB025360154B63620C
:101B8000304B5A68FF2A02D8802252005A608022C5
:101B90002D4B12011A60A169002907D0606901F07C
:101BA000E3FC013043001B18033BFDD2E023254A30
:101BB00011680B4025490B608021254B09011960F4
:101BC00080235B005360124BA361F7E68002002084
:101BD000006CDC021BB70000008000403CB00040FD
:101BE00030B00040002F685900800240008C8647CA
:101BF00000C00240308000403090004030A00040E3
:101C0000001BB7003C8000403C9000403CA00040DE
:101C1000405973075480004054B000405490004035
:101C200054A000406080004060B0004060900040E0
:101C300060A000406C8000406CB000406C900040A0
:101C40006CA000404880004048B0004048900040F0
:101C500048A00040014B8000C0587047800200201F
:101C6000F8B5040021481D0017000E0001F07CFCAF
:101C70000100380001F078FC069B29041B0319437E
:101C80002368002B20DB1A4B1A4DE21853425A41AD
:101C900080235B019C461203174B62441A60174B6A
:101CA0001A601700AB689F43FBD1C022231D92012D
:101CB0001A4321232660A06013602368002BFCDAFE
:101CC0000823E1601360F8BD3F2322681340B3424C
:101CD000D9D1A3681B051B0D8342D4D1EE22E36842
:101CE000D20213408B42CED1EDE7C046001BB700B5
:101CF0000040FDBF00C0004000E0004000F0004098
:101D00008023024A9B000343D36270470080054052
:101D1000AA23064A1B0113602F230549D360054BF4
:101D200019605368002BFCDA7047C046004002403F
:101D300000B0FA00006002402C4B2D4A70B51A60CA
:101D40002C4A2D4B2D491A6014008B689C43FBD103
:101D50002B4D2C4EB54208D2013E761BB60808CD5D
:101D6000984723000134B342F9D1FFF70FFE264A0A
:101D7000214B1A60214A9368DB43DB01DD09002B0C
:101D8000F9D14022214B224C224E9A675A671A679A
:101D9000DA66B44208D223682000002B20D0083431
:101DA000FEF7BAFDB442F6D31B4C1C4EC022B168FC
:101DB000200002F05BFAB460FEF7E0FBFEF784FD62
:101DC000FEF74AFF164C174EB44208D2013E361BAE
:101DD000B60808CC98472B0001359E42F9D170BD5A
:101DE0000834FEF78BFDB442D5D3DDE700E00040B8
:101DF000BFCDFBFEFE7F3C0000F0004000C0004075
:101E00006802002078020020FFFFFF0100F001407F
:101E100058020020680200200000002000ED00E0D1
:101E2000780200207C02002000BEFDE710B5FFF71D
:101E3000FBFFC0460FB400B5084883B002F0F8FAC3
:101E4000049B002B07D005A91800019101F012FB9B
:101E5000034802F0EDFA0120FFF7E6FFCC4B00103B
:101E6000604A001010B50148FFF7E4FFDC4B00109A
:101E70007047C046F8B557464546DE464E46E0B583
:101E800098460A9B06009A460D9B0F009346150044
:101E90009B0710D10B9B0C9A93420CD213005C460B
:101EA0000B9A9D1A5D4422004346013439002020DC
:101EB000B047A542F7D10B9C6319002C09D01D0037
:101EC00053462A1B013C185D39004346B047002C9D
:101ED000F6D10D9B9B070ED55B46EC1A0C9BA342DB
:101EE00009D999462A004346390020200134B047D9
:101EF0000135A145F6D82800F0BCBB46B246A9463C
:101F0000A046F8BDF0B54F464646D646C0B584B0AB
:101F100098460EAB1B7894469946129B0D9C109FD9
:101F2000119E9A0724D4002E6AD1BC4220D20122ED
:101F30001A409246202C00D1CBE00C9A551E30223C
:101F400001E0202C30D001342A55A742F9D852465E
:101F5000002A0DD0B4420BD20C9A551E3022202CF0
:101F600002D126E0202C61D001342A55B442F9D1A7
:101F7000DA0634D55A0562D4002C5CD10F9A102AA7
:101F800000D191E0022A00D1A1E030220C9C227005
:101F900001244A46002A5CD15A0700D47DE02B2256
:101FA0000C9D2A5501341CE05246002A02D0202EF6
:101FB0003CD92024DA0614D55A0512D4202F00D19A
:101FC00097E0202E3BD120261F2234000F9D102D9C
:101FD00000D181E0022D4CD030250C9FBD54202C27
:101FE000D7D103930C9B624600930296434601941B
:101FF000FFF740FF04B0E0BCBA46B146A846F0BDCA
:10200000012215001D40AA461A4227D04A46002A3E
:1020100033D10C321A4230D1BC429BD2202C00D09A
:102020008BE7202EC5D8DA06A4D4DAE72024DA0616
:10203000D7D55A0503D4A74221D0B4421FD00F9A56
:10204000102A21D0022A10D0202CCAD0220001341C
:10205000C2E72D220C9D2A550134C2E7BC4200D3B1
:1020600086E7202C00D068E7E1E7202CB9D02200D9
:10207000013462250C9FBD54E6E7013ECCE7621EA9
:10208000012C00D17AE7A1E79A0616D4202CA8D01B
:1020900078220C9D2A550134D6E71A07A1D52022B3
:1020A0000C9D2A5501349CE79A060ED478220C9C8C
:1020B00022703022627002246BE7202C91D05825C8
:1020C0000C9A121915700134BEE75822EFE762220C
:1020D000EDE7002AA7D1AAE7023C9D0604D47825A3
:1020E0000C9F3D551400B1E758250C9F3D55140039
:1020F000ACE71F226AE7C04610B5002800D110BD2A
:1021000002F04AF9FBE7C0460B0010B5002802D0E8
:1021100049681B68984710BDF0B557464E4645467E
:10212000DE46E0B599B08246894690460993229AE8
:10213000239B1000190001F0D8FC002800D0C8E053
:10214000229823990122D54B524201F0C9FC002864
:1021500000D0BEE0229823990122D14B524201F0D7
:10216000B1FC002800D0B4E022982399002200237B
:1021700001F0A8FC002800D0E9E1229E239F8023E3
:10218000269ADB001A400D92269A1A4201D10623A4
:1021900024933B00334300D0B4E0269B1B0500D5BD
:1021A000BFE1002300240A930B94002304250C9321
:1021B000259B0024AB4200D95C1B0223269A1A40BF
:1021C0000D92269A134203D06B426B415B421C4036
:1021D0000C9B002B07D00A9A0B9B3000390001F0B2
:1021E00010FC06000F00229823990022002301F022
:1021F00069FC002803D0802109067B181F00269A5D
:10220000A84B009601971340099E0493249B0394C6
:102210000293424633004946504600F0A7F90400B5
:10222000002D67D02020269A4946024013005A42CA
:1022300053415B42621C18400A9233002200453031
:10224000D0470C9A6F1ED317D4185C40D30F9B460F
:10225000002501E0202D13D008AA94461F2320005A
:1022600063440A2101355E1901F07EF93031317085
:1022700020000A2101F078F926000400092EE9D88F
:1022800005230693002304930A3303935B46099EB8
:10229000029310AB0A9A00934946330050460597C3
:1022A0000195FFF72FFE0D9A0400002A22D0424626
:1022B000851A259AAA421DD9B04657461600220013
:1022C0004346494620200135B8470134AE42F6D88E
:1022D00010E0269B42460493259B49460393249B8A
:1022E00050460293229B239C00930194099B00F08B
:1022F0003DF90400200019B0F0BCBB46B246A94627
:10230000A046F0BD684B78009C46400D604401F04B
:10231000FFFB664A664B01F092FB664A664B01F092
:1023200067FB664A3B031B0B1A4304000D00644B1A
:1023300011003000002201F052FB624A624B01F0B2
:102340007EFB02000B002000290001F051FB01F090
:10235000F7FB0C9001F0DCFB5C4A5D4B04000D00C8
:1023600001F06DFB00225B4B01F042FB01F0E8FB4A
:10237000594A8346594B2000290001F060FB0400B4
:1023800058460D0001F0C4FB554A564B01F057FB6F
:1023900002000B002000290001F021FB02000B00CD
:1023A0000A900B9101F04BFB04000D000A980B9969
:1023B00002000B0001F01CFB00220E900F914A4B13
:1023C0002000290001F01DFB0022484B01F010FB0A
:1023D00002000B002000290001F013FB0022444BF7
:1023E00001F006FB02000B002000290001F009FBB0
:1023F0000A9A0B9B0D0080210400C905002001F002
:10240000EEFA02000B002000290001F0F1FA394C2D
:1024100002000B000E980F9901F0F3FA5C440022C1
:10242000264B01F0E5FA2305002201F008FB040029
:102430000D0002000B00300039000A940B9501F0EA
:1024400041FB00285ED123002A00C6250C99633188
:102450008D42AD4126996D420435090500D4A7E6A9
:10246000134364D030003900234A244B01F030FB81
:10247000002807D0002230003900214B01F022FB58
:10248000002854D1249B002B00D191E60D9B5A1EAD
:102490009341249AD31A24938AE6C046FFFFEF7F24
:1024A000FFFFEFFFFFF7FFFF01FCFFFFFB799F50EE
:1024B0001344D33FB3C8608B288AC63F0000F03F67
:1024C0000000F83F61436F63A787D23F71A379098A
:1024D0004F930A400000E03F1655B5BBB16B024078
:1024E000EF39FAFE422EE63F00002C400000244067
:1024F00000001840FF0300002D431CEBE2361A3F9A
:1025000080842E410C9B0022013B0C932000164B33
:10251000290001F076FA0A00010003000A910B92EB
:1025200093E7002300240A930B9400230C93249A2E
:102530000C9B9A4214DDD31A013B24938023269AE4
:10254000DB001A430023002526920C9330E68022FC
:1025500012069446229B1E00239B63441F000EE636
:1025600000232493EAE7C04600002440F0B5454626
:10257000DE464E465746E0B595B08B4690469946A6
:102580001E9A1F9B0A9019001000209D01F0ADFAC1
:10259000002800D0B0E11E981F990122C74B52427B
:1025A00001F090FA002800D037E11E981F9901220F
:1025B000C34B524201F094FA002800D0A7E01E98C5
:1025C0001F990022BF4B01F08BFA002800D088E051
:1025D0001E981F990022BC4B01F074FA002800D00D
:1025E0007FE01E981F990022002301F06BFA00285B
:1025F00000D0FAE000230B938023229C229ADB0078
:102600001C401A4200D102E1092D00D87EE106A942
:102610008C462C00172200233021093C62440133F0
:10262000D154EF1A202B00D132E1A342F7D100227E
:10263000A44B069207931E981F9901F081FA05009A
:1026400001F066FA02000B001E981F9901F0C7F90D
:10265000069A079B01F0F3F90890099101F094FAAA
:10266000060001F051FA02000B000898099901F0E8
:10267000B6F90022954B0890099101F031FA002833
:1026800000D1D2E00136300001F03EFA069A079BF5
:1026900001F01EFA002801D000260135AA46002FBD
:1026A00000D098E0280001F033FA02000B001E98D9
:1026B0001F9901F094F9854B002206000F0001F0EC
:1026C00001FA0CAB9A46002845D1002230003900AF
:1026D0007E4B01F005FA00283DD1EB073BD50135D3
:1026E00039E0229B42460493219B594603930A9862
:1026F0001E9B1F9C0295009301944B46FFF70CFD17
:1027000015B0F0BCBB46B246A946A046F0BD229B20
:102710005B0767D403226E4B2299019203912199A2
:102720000291009342464B4659460A98FFF7A2FB96
:10273000E6E706AA94461723280063440A210134D9
:102740001E1900F0E9FE3031280031700A2100F036
:10275000E3FE051E76D0202CEBD10323229A1340F2
:10276000012B1DD1219B002B1AD00B9B002B00D0DD
:10277000BBE0229A0C33134200D0B6E0219BA34267
:1027800000D887E006AB9C4617223023624404E061
:102790002199013413558C4259D0202CF8D1202492
:1027A000229B01940393219B02935346B9E706AA07
:1027B000944617230A216344300001341D1900F0A8
:1027C000D3FE3031297030000A21013F00F0CCFEE9
:1027D000092E46D90600202CE9D155460CAB202401
:1027E0009A46B8E704223B4B96E71E9A1F9B0020AF
:1027F000002101F0F4F801230B938023229C229AFC
:10280000DB001E901F911C401A4200D0FCE6002203
:10281000314B0627069207930DE7229B0393219BDA
:102820000293042301932D4B7BE70022089809991A
:10283000264B01F047F9002800D02FE7002E4FD19A
:1028400001362BE70323229A1340012B68D0202C5A
:10285000A6D00B9B002B1FD02D23524613550134BD
:102860009EE75546202CB9D030223B19002F4BD083
:10287000172006A9013409180A55202CAED09C4215
:10288000F6D10CAA92462E2251465C1CCA5462E72D
:102890002024CCE6202C83D0229B5B0708D4229BEB
:1028A0001B0700D47CE7202352461355013477E7F9
:1028B0002B2352461355013472E7C046FFFFEFFF4A
:1028C000FFFFEF7F65CDCD4165CDCDC10000E03F7D
:1028D000F04B0010E84B001080842E41F84B0010A4
:1028E000F30700D4DAE60136D8E6219B013B2193B9
:1028F000A34200D946E7AAE7229B0393219B0293B8
:1029000003230193084B0CE72300BAE7074BEA00C7
:102910009B185C681B682F000693079400248AE6C6
:10292000219B002B93D020E7F44B0010A04D00100A
:10293000F0B5DE4657464E464546E0B59FB01C0012
:10294000289B93460A93CC4ACC4B8A4609901A603E
:10295000002900D14DE1002320789946002800D1BC
:102960004FE1C74B4D460893C64B0D930AE02A0032
:102970006E1C5B46099D5146A847350001342078FE
:10298000002872D02528F2D110239946083B98469A
:10299000043B00219C4602270134207826000300D6
:1029A000203BDBB2102B03D8089A9B00D3589F46DC
:1029B0000300303B092B6ED900272A2800D18AE07A
:1029C00000230B932E2800D176E00300683BDBB296
:1029D000122B1BD8AC4C9B00E3589F4601230134BB
:1029E0001943DAE739430134D7E763460134194321
:1029F000D3E74B4601341943CFE74346013419432B
:102A0000CBE780235B0070781943013667280AD82A
:102A100024281FD90300253BDBB2422B1AD80D9A7C
:102A20009B00D3589F460300693BDBB20F2B11D8A4
:102A300001249C40954AA446904614400C9462465A
:102A40004446224200D025E20A2B00D101E1072BA7
:102A500000D1D8E0099C2A005B465146A047707817
:102A60006F1C741C3D0000288CD1A9462C00CB455E
:102A700003D801235B425B4499465B464A46514674
:102A80000020099DA84720001FB0F0BCBB46B246FD
:102A9000A946A046F0BD0027BB00DF1901367F0024
:102AA0003F183078303F0300303B092BF4D9002326
:102AB0000B932E2800D088E780237078DB00194321
:102AC0000300303B741C092B00D82CE12A2800D1CC
:102AD00038E1260079E70A9B80CB002F03DB607882
:102AE0000A93661C6CE70222607811437F420A93C6
:102AF000661C65E7672800D1C8E1472800D104E2D9
:102B0000452800D104E207200A9B04910733834340
:102B100019000B9A039702920CC90998009201932D
:102B20000A912A005B465146FFF7F6FA741C05002D
:102B300025E770786C2800D10DE280235B001943F3
:102B4000013663E780239B007078194301365DE707
:102B50007078682800D1F9E180230136194355E7E0
:102B6000462800D18FE107200A9B04910733834355
:102B700019000B9A039702920CC9099800920193CD
:102B80000A912A005B465146FFF7F0FC741C0500D1
:102B9000F5E62A00099C5B46514625206F1CA0479C
:102BA0003D00741CEBE6890700D4DEE10A9B2A0095
:102BB00098466B1C9946434601CB51469846099C62
:102BC0005B46C0B2A047ED19012F00D893E24C46F6
:102BD000B1465646099F22005B4601343100202051
:102BE000B847AC42F7D1B24643464E460A93741CEE
:102BF000C5E6274B2078099300239946002800D08A
:102C0000AFE6002433E70A9B1A0008CA9046002B5F
:102C100000D1A7E0212008430EA98C461F22624460
:102C20000F27AC46814615000C9C02E0202C0CD0EE
:102C300013003800184001003731092800D807393F
:102C4000013429551A090F2BF0D8654648460C94D3
:102C500094E00A9B1A0008CA12920B9A002A7BD1B0
:102C600002241A786442002A1DD0013418199C46A7
:102C70001C00030010E0C046312900102806002087
:102C8000004C0010904C0010444C0010419000008B
:102C9000711E00109C4203D0607801340028F9D1E5
:102CA0006346E01A0C908020C000844608408046AD
:102CB0006046014204D00B980C9C844200D90C90D1
:102CC0000220844608400A906046084200D189E10B
:102CD000101E00D170E14246002A00D11BE10B9A80
:102CE0005B1B9046A84444462A00B846994657467E
:102CF000B246099E09E05B463900551CB0474B4679
:102D0000585D002800D12CE12A009442F3D15646A8
:102D10002500BA4647460A9B002B00D04CE1129B87
:102D2000741C0A932BE6002293009B185B0001346D
:102D30001A182078303A0300303B092BF4D92600CA
:102D40000B9242E60A9B023604CBD043C0170240E6
:102D50000B9230780A9338E61A78002AA3D00B98A1
:102D6000441E82E71023080080279843113318433C
:102D70000B00FF003B40394200D14DE7082305938B
:102D80000B9B2A00049310230393002302930C9BB4
:102D90000690019316AB009351465B460998FFF7E6
:102DA000B1F843460500741C0A93E8E5622800D197
:102DB000A6E1582800D1B1E180230A00DB001A40C7
:102DC0009046194200D189E1112399438C46802312
:102DD00062469B001A40100062461A4200D023E16E
:102DE000802364465B001C401A4200D032E26346F6
:102DF0005B0600D56BE163460A991B0600D4DBE253
:102E000008C91BB2DA179818504080B20A91DA0F3D
:102E10000C92002B00D118E280460EAA91461F2387
:102E20004B441395E14645461297B0461E0001E01B
:102E3000202C0FD028000A2100F096FB013437190E
:102E40003031397028000A2100F08EFB2F00050078
:102E5000092FEDD84646CC46129F139D6346069334
:102E60000B9B059704930A2303930C9B029316ABC9
:102E70002A000194009351465B460998FFF742F8F7
:102E8000741C05007BE5202319436CE680231B019D
:102E9000194338E6782800D07CE180230A00DB0063
:102EA0001A409146194200D1A5E20D23994308002A
:102EB00003330C93802302009B001A409046184273
:102EC00000D078E1802304005B001C40184200D051
:102ED00007E2430600D453E2FF210A9B04CB0A40D9
:102EE00090460A934346002B00D026E110339843C6
:102EF0004B46002B00D120E100240B9B069004934D
:102F00000C9B059703930023B0E780231B01194313
:102F100020231943F7E55B1B99460C9B099C9846B7
:102F20005B46B3465646BA461F002A003B003100B6
:102F3000A0474B460135585D0028F6D143460C9317
:102F40003B005746B2465E469B46E4E6C023B07857
:102F5000194302365AE5C0239B00B0781943023664
:102F600054E55646BA464746D5E6012F00D832E228
:102F70006B1E9846B8442C00A9464546B8465746AD
:102F8000B246099E22005B46013439002020B0473A
:102F9000AC42F7D10A9B564601CBBA464746984603
:102FA00022005B46099C5146C0B2A0474D464346AD
:102FB000ED190A93741CE2E40C9BA8469F4200D8CA
:102FC000ADE64446B04656467D19099FED1A2200EB
:102FD0005B46013431002020B847AC42F7D1B246FD
:102FE00046469CE60C98874200D8F0E14246984657
:102FF0007919B9465746B246099E0C1A0C922A0016
:103000005B46013539002020B047A542F7D156462E
:10301000BA464F4643460C9A90467A1C0C921A7850
:10302000101E00D057E67AE60822072191460A9B37
:1030300007338B4399444A460ACB0C000A921C433F
:10304000DA0F002C4ED0D817040010904C4011908D
:103050000E94109811990C005C400F940E9B0F9CDD
:103060001B1A8C410E930F940EA988461F2300242F
:1030700043441297B046270013951E000E9C0F9DE7
:10308000E1460C9201E0202F10D0200029000A22F6
:10309000002300F0A7FA013730322B00F2550D0063
:1030A00022000400002BEED1092AECD84646CC467B
:1030B0000E940F950C9A3C00139D129F6346069345
:1030C0000B9B059704930A2302920393CFE6FF23F9
:1030D0000A9904C9134018000A9198E610239943ED
:1030E0008C4674E643460024002BE7D100230024DD
:1030F0000E930F94B8E743464D460A93741C3EE482
:1031000080230A00DB001A409146194200D140E1B9
:103110000D2399430B3B08000C93CBE680230A0058
:10312000DB001A409146194200D162E10D232020B4
:103130009943033308430C93BCE66123810600D511
:1031400041230EA91F228C46DBB262440A3B13972F
:103150001495814645460C9FB0461293160008E030
:103160003033DBB201343355BD420ED3202C0CD0AA
:1031700005003900280000F0F7F9CBB20929EFD992
:10318000129A94466344DBB2ECE746464846139FE6
:10319000149DB2E66F2800D03CE10C230800984350
:1031A00080230A00DB001A409146194200D02AE130
:1031B00008230C937EE60A99FA3BFF3B07319943BB
:1031C00001339C468C4463464A680A930B689046D8
:1031D0009C461343191E06D14B46103100248843E8
:1031E000002B00D089E66121830600D541210EAA7B
:1031F00091461F234B449946C9B20C9B0A39139739
:103200001495159645464E460024674698468146D5
:1032100012910CE03032D2B2002301343255AB426D
:1032200000D1BCE0202C00D1BCE007000D004246DC
:1032300000233800290000F0D5F9D2B2092AE9D9D3
:10324000129B9C466244D2B2E6E74346002B00D074
:1032500004E6E2E50A9C08CCDA0F1392002B00D1B9
:10326000A5E0D9175B184B4098460EAA91461F233C
:103270004B440C95A14645461296E04606001C00BC
:103280000A9701E0202E0FD028000A2100F06CF9E7
:103290000136A7193031397028000A2100F064F98D
:1032A0002F000500092FEDD8C4464C4630000A9F78
:1032B0000C9D129E634606930B9B2A0004930A23DF
:1032C0000393139B0190029316AB009351465B4608
:1032D00009980597FEF716FE0A940500741CFFF77F
:1032E0004EFB0A9B10CB1493002C04D1102398435F
:1032F0004B46002B2CD16123810600D541230EA91A
:103300001F228C46DBB262440A3B1297139581461A
:1033100045460C9FB0460A93160008E03033DBB2F6
:1033200001357355BC420ED3202D0CD0040039005A
:10333000200000F019F9CBB20929EFD90A9A944676
:103340006344DBB2ECE748464646129FA846139D0D
:103350000B9B2A0004930C9B06900393002302937B
:103360004346019316AB009351465B460998059777
:10337000FEF7C8FD149B05000A93741CFFF7FFFAC3
:1033800003061FD50A9B02CB09040A0C90460A9338
:10339000A8E50C2399430A3B08000C938AE5B8453D
:1033A00000D83FE74846139F149D159EA5E5434668
:1033B000002B00D07EE758E708C9DA17981850406C
:1033C0000A9124E50A9B04CB90460A938AE5010002
:1033D00001310C9124E60A9F6C1C01CF2A005B4648
:1033E000099D5146C0B2A84725000A97741CFFF7F3
:1033F000C6FA202319430C2399430023994610331E
:1034000008000C9356E508238C460C930D23604668
:1034100098434FE510230A009A439446692808D13F
:1034200080230A00DB001A409046194200D1CEE406
:10343000CAE41C230800984380230A00DB001A40DA
:103440009146194202D10A230C9333E50A230C93C7
:10345000DCE7C04600B585B00391012102900093DE
:10346000034813004A4202A9FFF762FA05B000BD03
:103470000921001010B5094A0300146884B0002C1B
:1034800008D0012200910648524203A9A04701201A
:1034900004B010BD00F0CCFF0020F9E728060020A2
:1034A000F920001001480421014B18472002002098
:1034B000D5340010142310B50100188804331B887C
:1034C000984710BD162310B50100188802331B88D9
:1034D000984710BDF8B54746CE4680B50F1E19D0A7
:1034E00014239946043304000025012698464B46D0
:1034F0001888434621681B88984701C4431E984199
:10350000013540420640AF42F1D13000C0BCB9465F
:10351000B046F8BD0126F8E7124A936F9B0815D212
:103520009066D166002905D0FFE7FFE7FFE7516FFE
:10353000106F704704B580210906C217514000285A
:1035400000D0C84301F06CFA002104BDF0B5146E40
:10355000556E576F166FFFF7E3FF14665566576792
:103560001667F0BD000000D0114A936F9B0813D27C
:1035700010665166002905D0FFE7FFE7FFE7516FAE
:10358000106F704704B5002801D00020C04301F03F
:1035900047FA002104BDC046F0B5146E556E576F52
:1035A000166FFFF7E5FF1466556657671667F0BD9F
:1035B000000000D094464A4A926F9208624601D2B7
:1035C00028E0C046F0B5464E346E756E776F366FA4
:1035D00000F020F89446424A14665566576716670D
:1035E0006246F0BD94463E4A926F9208624601D20E
:1035F00054E0C046F0B53A4E346E756E776F366F54
:1036000000F04CF89446364A1466556657671667BC
:103610006246F0BD002B24DB11D000293EDA00B554
:10362000C943404200D1013100F038F8C94340425B
:1036300000D10131DB43524200D1013300BD002AE9
:10364000EBD1002801D1002905D00020C90FC907FE
:1036500001D1C043410800B501F0DAF9002200238E
:1036600000BD00B500290ADBDB43524200D1013323
:1036700000F014F8C943404200D1013100BDC943F4
:10368000404200D10131DB43524200D1013300F00E
:1036900005F8DB43524200D1013300BD002923D19C
:1036A000002B18D1002A0CD0BC460D4F38667A6624
:1036B00000210023FFE7FFE7FFE77A6F386F6746D7
:1036C0007047002801D00748010000B501F0A0F9BB
:1036D0000022002300BD02000B00002000217047E3
:1036E000000000D0FFFFFFFF002B00D0BFE0130C55
:1036F00028D1002AE7D080B4114F39667A66FFE7F7
:10370000FFE730B4040C7B6F396F1B0423433B6627
:103710007A66FFE7FFE7FFE7C04684B27B6F3D6F45
:103720001B0423433B667A66FFE7FFE7C04600239E
:103730002C042D0C7A6F386F00196941B0BC7047AA
:10374000000000D0F0B594460025140E01D11202FD
:103750000835140F01D112010435940F01D19200E4
:103760000235D40F01D152000135D40B0134254F5D
:103770007C66254C3C660E0C93B2FFE7FFE7FFE743
:103780003C6F6643360C7703BE467343DF0B5B0426
:10379000C01AB941130C7343DB18C91ACE0866432B
:1037A000360CB64493B273431F0F1B01C01AB941C4
:1037B000130C73431F0B1B05C01AB941860D8F02F2
:1037C0003E436643360C092D24DB520A7243801AAD
:1037D0007703460A6643360C16235B1BDE40DF4048
:1037E000BF1964466643821B7046043506330100E8
:1037F000D940A840C01900D30131A24206D200230B
:10380000F0BD0000000000D0FFFFFFFF121B0130E1
:10381000F3D3F1E709277F1BFE406446A2B272434F
:10382000801A00D20139220C7243130C1204821A3E
:1038300099410B007046043513370100F940A84048
:10384000801900D30131002B02D1A2420AD2F0BD6F
:10385000013000D30131121BFAD2013BF8D1A24250
:1038600000D2F0BD013000D30131121BF7E7F0B5F3
:103870001C0C00D080E00CB400251C0A04D11B02F3
:10388000160E3343120208351C0B04D11B01160F10
:103890003343120104359C0B04D19B00960F334334
:1038A00092000235DC0B02D192185B4101351C00FD
:1038B000971864410134464F7C66464C3C660E0CBA
:1038C000FFE7FFE7FFE7C0463C6F6643360C770330
:1038D000BE4697B27743C01B00D20139C01B00D24D
:1038E00001399FB27743C91BC91B170C77437E046C
:1038F000FF0B801BB941CE086643360C0C2D33DB21
:10390000B644120B1F053A431B0B97B27743C01BFB
:1039100000D201399FB27743C91B170C77433E048D
:103920003F0C801BB941860D8F023E436643292719
:103930007F1BFE400C3D7746AF40BF1930BCA2B2A2
:10394000ABB272437343801A9941220C7243130C39
:103950001204801A994102000B000137001BA94193
:10396000F9D2781E0021F0BD0C277F1BFE40774660
:103970007F0BAF40FF19E0E700245D1C07D0144F18
:103980007D663966FFE7FFE7FFE7FFE73C6F95B22B
:103990009EB265436643401BB141150C1E0C654346
:1039A000664336042F0C3E432D04401BB14199421F
:1039B00004D202000B0020000021F0BD01D1904292
:1039C000F7D3801A994101349942F2D3F6E7000007
:1039D000000000D0FFFFFFFF48404140484018B4BE
:1039E0001B4B5B68FC46019308BD04DF6B3C001079
:1039F00018B4174B1B68FC46019308BD00DF753CEB
:103A000000109446134A926F920809D2624618B485
:103A10000F4BDB68FC46019308BD0CDF2D3F001007
:103A20000C4AF0B5146E556E576F166F6246FFF76D
:103A3000EEFF084A1466556657671667F0BD18B45E
:103A4000034B9B68FC46019308BD08DFD13D001085
:103A5000A8030020000000D0FFB550404240504075
:103A600059404B40594000E0FFB5154F4C00640DE4
:103A700003D0BC4204D10C0314D80020090D090561
:103A80005C00640D03D0BC4204D11C030AD80022A0
:103A90001B0D1B0501264B4009D44B4003D58B421F
:103AA00000D18242FFBD9942FCD19042FFBD0B4341
:103AB000DB1803431343F5D0C9434918FFBD000089
:103AC000FF07000000B5FFF7CFFF804100BDC046F3
:103AD00000B5FFF7C1FF01D9002000BD012000BDE6
:103AE00000B5FFF7B9FF804100BD012040054A0045
:103AF000121804D85A00121801D80020704701206B
:103B000070470020704700000021002805D1704751
:103B1000C1174840401AFAD0C90713B5064B1B68B5
:103B200098470CBC441CA2401005120B0349091B0A
:103B300009051943114310BD400600201F04000071
:103B400010B54C00620D8023D218DB00D21A5B0541
:103B50007E2A10DD9E3A13DACC170903490819436F
:103B60005242D140640001341532202A05DAD04097
:103B70000843604310BD002010BD0846604310BDDF
:103B8000C80FC018013810BD18B4044B5B6AFC465E
:103B9000019308BD24DFDD4000100000A8030020D1
:103BA000132370B51D78012D15D010DD1D48FFF7CA
:103BB00089FC1D4C01008022200000F057FB022DE3
:103BC0002DD01A48FFF776FC194B186070BD194BC1
:103BD000154CA364F5E7174B134C23606360A36097
:103BE000E36023616361A361E36123626362A362B3
:103BF000E36223636363A363E36323646364A36493
:103C0000E36423656365A365E36523666366A36672
:103C1000E36623676367A367E367A364D1E7054BA4
:103C2000A364CEE753440000A80300204C330000F7
:103C300040060020393C001007B5604601880A0A9A
:103C40000230DF2AFAD1C9B2820804D30288408840
:103C50000004104300E00068014A5050039007BD83
:103C6000A80300200FB403BC0CBCF0B50124E4078A
:103C7000634000E0F0B50C0DCF0F661E3605891BC2
:103C8000640503D3C943404200D30131640D03D01E
:103C9000661CF60A07D0E41B00207F00791C890708
:103CA0008912803C24031D0DDF0F6E1E36059B1B01
:103CB0006D0503D3DB43524200D301336D0D03D0B6
:103CC0006E1CF60A07D0ED1B00227F007B1C9B07B1
:103CD0009B12803D2D032F1B661B58D4A446202E1B
:103CE00046DA20371400BC401D00BD40F24033418D
:103CF0002A4380185941CB0F05D0C943C043002245
:103D000064425041514162464D0D28D10D0D07D1FD
:103D100000281FD0241940414941013A0D0DF9D026
:103D2000640006D3013000D30131002C01D14008DA
:103D30004000013A0BD4941CE40A04D1120511444A
:103D4000DB071944F0BDD907204B194300E0D90720
:103D50000020F0BD0029DDD1002CDBD1F0BD013207
:103D6000C6074008CD0728434908002EE1D0D9E70F
:103D70003C2E29DA203E40371400BC4000D00124FC
:103D8000F24014431A00BB401C43D317ACE7AC46C7
:103D9000202F08DA20360400B4400D00B540F8406A
:103DA00039412843A5E73C2F0CDA203F4036040078
:103DB000B44000D00124F84004430800B1400C4353
:103DC000C117EAE710001900002494E70000F07F13
:103DD000F0B50C0D661E3605891BE60A6405640DF8
:103DE00002D0651CED0A04D0002001210905803CA9
:103DF0002403A4461C0D671E3F05DB1BE70A640570
:103E0000640D02D0651CED0A04D0002201231B05BD
:103E1000803C24037740644497B484B296B27443E0
:103E2000070C7E43150C6F4380B26843361802D3EB
:103E3000012000043F183004350C00197D418446F0
:103E400088B29AB250430C0C62431F0C7C438EB272
:103E50007E43921902D301263604A4191604170CC6
:103E60003618674101BC81B29AB25143040C6243D7
:103E70001B0C5C4380B25843121802D3012000048B
:103E800024181004130C401863412D185E410020C3
:103E9000474106BC88B293B258430C0C6343120CE2
:103EA000544389B251435B1802D3012109046418B9
:103EB00019041A0C091862416D1856410020474137
:103EC00018BCF902720D1143F0026A0D1043ED02A5
:103ED0000A0D03D16D1940414941013B124E9B1B14
:103EE0007600B3420ED26D0007D301300026714137
:103EF0006646354301D1400840001B05C918E40758
:103F00002144F0BD0BDA013306D1013004D1013177
:103F10004F0D01D04908F2E7E1070020F0BD01365E
:103F200031050020EBE70000FF030000F0B51C0D99
:103F3000671E3F05DB1BE70A6405640D02D0661CA3
:103F4000F60A04D0002201231B05803C2403D0255F
:103F50002D060026F6432E661E096E66CE0FF61954
:103F6000B44649004F0D02D07E1CF60A03D0002053
:103F70000021403F3F033E1BB600B444013F7F0594
:103F8000C91B49082E6F013676089C02950D254302
:103F90007543ED137543AD1301356D10F603761BB4
:103FA0000CB4CC02450D2C43A2B2B3B25A43270C39
:103FB0007B43350C6F43A4B26C431B1902D301241D
:103FC00024043F191C041D0CA4187D4124196D41C3
:103FD000009A91B2ACB26143170C7C432B0C5F4347
:103FE00092B25A43A41802D301221204BF18220429
:103FF000230C52187B41019C6C431B19520ED901B2
:104000000A434401A01A81B2B2B2514303145A4385
:10401000360C734387B27743D617D21900277E41F7
:1040200036049B191704160C7F185E417316ED18A1
:10403000F301002680337541A90F06D16400690A97
:10404000E8055B0A184309D22FE004229444803328
:104050007541A90AA8059B0A184326D34041494146
:104060002404009A019B0D005543641B4343E41A4A
:1040700095B286B27543170C7E43030C5F4392B230
:104080005A43B61802D301221204BF183204330C6B
:1040900052197B4152429C41002C02D40022013033
:1040A00051414008CA071043490802B06246D70789
:1040B0009210084BD218084B9A4203D21205891865
:1040C000C919F0BD0020002A01DC3900F0BD013320
:1040D0001905F5E7FD030000FE070000002200B50A
:1040E000203200F004F8080000BD000000220B158B
:1040F0000AD410B5944600F031F81414013400DAF3
:104100000021CB17144C2047002000217047624447
:10411000343A0CD40C2A07DA040091409040524201
:104120002032D440214310BDD843D94310BD2032A2
:1041300007D40C469440524220321141D0402043D3
:1041400010BD0800C917203203D45242203210415A
:1041500010BD1800190010BD0F4100100A0DCC0F42
:10416000531E1B05C91A520503D3C943404200D34D
:104170000131520D03D0531CDB0A07D0121B002063
:104180006400611C89078912803A1203014BD21A1C
:1041900070470000FF03000051434343C9188C4699
:1041A000110C83B24B4310B4040C614392B280B241
:1041B000504362431C041B0C001910BC59411304EA
:1041C000120CC0185141614470470000132310B510
:1041D00012481C78FFF776F90100012C0AD003DDA4
:1041E00080220F4800F042F80E48FFF763F90E4BAB
:1041F000186010BD0A4C5422200000F037F80B4B19
:104200006365A365E36523666366A366E366236768
:104210006367A367E3672362E361E5E75346000052
:10422000A80400204C33000040060020314200105A
:1042300007B5604601880A0A0230DF2AFAD1C9B2FE
:10424000820804D3028840880004104300E000681C
:10425000014A5050039007BDA804002001480421E2
:10426000014B184730020020D5340010014B5B6829
:104270001847000030020020F0B546464F46D646AB
:10428000C0B5437D80460E001700002B4BD0002A9E
:1042900032DD274B01259A464B1E0024002099460B
:1042A00007E0335D0A2B2CD02B0001340135BB42D3
:1042B00013DA002CF5D133780A2BF5D143461B7D58
:1042C000002BF1D14346504602211B689847280035
:1042D0002B0001340135BB42EBDB874204DD434652
:1042E000391A1B6830189847F619013E33780D3B90
:1042F0005A42534142461375E0BCBA46B146A846FD
:10430000F0BD4B461B5D0D2BCED0A042DADA434602
:10431000211A1B68301898474346504602211B68F3
:1043200098472800D4E70368110030009847E3E776
:10433000604E0010F0B5C6460B6806000C0000B5D4
:10434000802B06D05A1C2260E418267180BCB84627
:10435000F0BD0F4B1D68002D16D00B1D98460D4F5C
:1043600002E02D69002D0FD02B68002BF9D03B689F
:10437000002B01D0AB42F4D1280041462268FFF760
:104380007BFF2D69002DEFD101220023DBE7C04622
:104390001C06002020060020F0B5CE46474680B51A
:1043A00083B06B460600DD1D2870FCF7EBFE002392
:1043B0001A4A12184B41802109068B4202D301226E
:1043C000174B524217490800884600F031FB164B44
:1043D00081461C68002C14D0144F02E02469002C84
:1043E0000FD02368002BF9D03B68002B01D0A342EB
:1043F000F4D1200001222900FFF73EFF2469002CA0
:10440000EFD14B46002B05D1300003B0C0BCB946FC
:10441000B046F0BD404600F0F3FAF5E740420F0029
:10442000FFFFFF7F600200201C0600202006002006
:10443000F0B5DE4657464E464546E0B585B0070026
:1044400000F0ACFA0600FCF79DFE00232B4A121880
:104450004B41802109068B4202D30122284B524254
:10446000284908008B4600F0E3FA274B01901C68AE
:104470009A46002C3BD0254B984602ABDD1D0A2303
:10448000994602E02469002C17D02368002BF9D04C
:1044900043461B68002B01D0A342F3D12000320019
:1044A0003900FFF7E9FE4B462000012229002B705E
:1044B000FFF7E2FE2469002CE7D1019B002B18D105
:1044C00053461C68002C06D06368002B0BD098471D
:1044D0002469002CF8D1300005B0F0BCBB46B246D0
:1044E000A946A046F0BD2469002CEDD1F3E70028D1
:1044F000F1D0584600F084FAE2E7C04640420F008F
:10450000FFFFFF7F600200201C0600202006002025
:104510000A4A1368002B05D10CE01A001B691032FF
:10452000002B07D09842F8D1002902D1036913600B
:10453000016170470029FCD01060FAE71C060020DA
:10454000F0B5CE46474680B5A3B004000D00FCF799
:1045500019FE0023294A12184B41802109068B427B
:1045600002D30122264B5242264F380000F060FA57
:1045700000230600019322002B00234801A9FEF727
:1045800069FF019B8046002B14D1204B1C68002C36
:1045900006D06368002B0BD098472469002CF8D113
:1045A000002E25D1404623B0C0BCB946B046F0BD70
:1045B0002469ECE7154B1D689946002D1CD0144C5E
:1045C00002E02D69002D0FD02B68002BF9D0236855
:1045D000002B01D0AB42F4D12800019A02A9FFF7C9
:1045E0004BFE2D69002DEFD14B4601951C68CEE79F
:1045F000380000F005FAD5E70195D1E740420F00F9
:10460000FFFFFF7F60020020354300101C060020E2
:10461000200600200FB400B583B004A901C90191A0
:10462000FFF78EFF03B008BC04B0184710B500F0C8
:104630001BF9012010BDC046F0B5CE464746040028
:1046400080B583B0FCF79EFD260000278023361836
:104650004F411B069F4202D30126194F7642194B48
:10466000B9469846184D43461C68002C03D116E005
:104670002469002C13D02B68002B01D0A342F7D162
:10468000A368002BF4D0012101A898470028EFDD92
:104690006B46187903B0C0BCB946B046F0BD0B4BB1
:1046A0005A6A914507D89B6AB34202D3012040421F
:1046B000F0E79145FAD101200021FCF76DFDD2E72A
:1046C000FFFFFF7F1C060020200600200040054061
:1046D000F0B5002915DD0E4B0D271A680D4B0E4C59
:1046E000D3185D426B41451820215B001E5F0478A2
:1046F000A64207D093691942FCD101301460A84248
:10470000F5D1F0BD93691942FCD11760F2E7C046BC
:104710005C0600200080FCBF5806002030B5040075
:104720000D1E30DD00201021204B013C1A689369DA
:10473000194217D1013093691942FCD113682354EF
:104740008542F4D11A4B1B68002B09D05023382125
:104750009363536B3432194080235B011343196018
:1047600028000FE0124B1B68002B09D05023382182
:104770009363536B3432194080235B011A431160F9
:10478000002810D030BD0A4B1B68002B0BD05022E4
:104790003821064B1B689A635A6B343311408022D0
:1047A00052011343196003204042EBE75C060020EE
:1047B000D4050020064B10B51B68002B06D0002145
:1047C000044A12689163044A1068984710BDC046B5
:1047D000D40500205C060020D80500201D4BF0B554
:1047E0001A68C64698461C4B0E00D31859424B41D6
:1047F0001A4F14331C00050000B53B68002807D091
:10480000002B11D0164B3D601E6080BCB846F0BD39
:10481000002BF7D0906300212000FBF7C9FE200099
:104820001049FBF715FFEDE720000E49FBF7E6FE08
:1048300001212000FBF7BCFE4346502238211B68B3
:104840009A635A6B3433114080225201134319602A
:10485000D8E7C0465C0600200080FCBFD4050020DD
:10486000D8050020B54700100C4B10B51B780C4B39
:104870000C4C1B780C4B022100202360FBF73CFE04
:1048800002210120FBF738FEE12120684902FCF7F4
:10489000B9FF01210548FFF73BFE10BDC44E0010D3
:1048A000C04E00105C060020004003404002002083
:1048B00003BDC04610B50400FCF706F8A04710BDC4
:1048C000F0B5040087B00F200E001700FBF782FE42
:1048D000002105000F20FBF76BFE00230022009251
:1048E000019301230293D02304960594002600240B
:1048F0000121022003971B06002C14D01A6D1042D0
:10490000FCD05C6540BF1A6D114203D120BF1A6D07
:104910001142FBD09A6DA2420AD000266C46B2002A
:10492000A458E9E79A6D1A6D1142FBD140BFE5E743
:104930000136062EF2D129000F20FBF739FE07B011
:10494000F0BDC0460D4B0E4A10B5934210D30D4A30
:1049500099181A000B4C1051FF20C00013500A4B3D
:104960000A4813500A4B0B489A68FFF7A9FF10BD7D
:1049700001235B421A000849ECE7C0460008042006
:1049800000000420F4070000B5480010FC070000F8
:1049900000ED00E0B1480010F307000010B58307F8
:1049A0000AD00300032102E001330B4205D01A783C
:1049B000002AF9D1181A10BD030019680C4A0D4CD1
:1049C0008A188A4322420FD15968094A04338A1847
:1049D0008A43224208D15968054A04338A188A4317
:1049E0002242F1D000E001331A78002AFBD1E1E73E
:1049F000FFFEFEFE80808080F8B5C046000000000B
:104A000001B40248844601BC604700BF5D0100203C
:104A100001B40248844601BC604700BF8501002004
:104A200001B40248844601BC604700BF85010020F4
:104A300001B40248844601BC604700BFC1000020A9
:104A4000486572652069732061207072696E7466B2
:104A50002066726F6D20746865204952512025646C
:104A60000A00000048656C6C6F2066726F6D2063F1
:104A70006F72652031202D2025640A0048656C6C1A
:104A80006F2025640A0000007069636F5F737464AF
:104A9000696F5F7465737420626567696E73000087
:104AA0005374617274696E67205069636F746573C3
:104AB0007420666F722025730A000000736F6D65A5
:104AC0006F6E6520707265737365642061206B651D
:104AD000792100004D6F64756C652025733A20259F
:104AE000730A0000646561646C6F636B5F74657367
:104AF000745F69727120776173206E6F74206361D7
:104B00006C6C656400000000535444494F20646598
:104B100061646C6F636B2074657374004D6F6475B2
:104B20006C652025733A2053656374696F6E202588
:104B300073203A204661696C656420746573740A59
:104B4000000000004D6F64756C652025733A20539A
:104B5000656374696F6E202573203A20506173730A
:104B600065640A0025733A204661696C65640A0031
:104B700025733A20537563636573730A0000000060
:104B80007069636F5F737464696F207465737420F8
:104B90006861726E657373007069636F5F737464CC
:104BA000696F5F74657374004861726477617265E0
:104BB00020616C61726D20256420616C7265616496
:104BC0007920636C61696D65640000000A2A2A2AF5
:104BD0002050414E4943202A2A2A0A004861726423
:104BE0002061737365727400666E692B00000000AB
:104BF000666E69006E616E00666E692D00000000D1
:104C0000FA290010B0290010B0290010F229001074
:104C1000B0290010B0290010B0290010B0290010F0
:104C2000B0290010B0290010B0290010EA290010A6
:104C3000B0290010E4290010B0290010B02900109C
:104C4000DC290010502B00100C2A0010442B0010FF
:104C50000C2A0010322B00100C2A00100C2A001015
:104C60000C2A00100C2A00100C2A00100C2A00102C
:104C70000C2A0010022A00100C2A00100C2A001026
:104C80000C2A00100C2A00100C2A0010022A001016
:104C9000922B0010542A0010542A0010542A00109D
:104CA000542A0010542A0010542A0010542A0010CC
:104CB000542A0010542A0010542A0010542A0010BC
:104CC000542A0010542A0010542A0010542A0010AC
:104CD000542A0010542A0010542A0010542A00109C
:104CE000542A0010542A0010542A0010542A00108C
:104CF000542A0010542A0010542A0010542A00107C
:104D0000542A0010542A0010542A0010542A00106B
:104D1000F42A0010602B0010F42A0010542A00100E
:104D2000542A0010542A0010542A0010542A00104B
:104D3000542A0010542A0010542A0010542A00103B
:104D4000542A0010542A0010542A0010542A00102B
:104D5000542A0010542A0010542A0010AC2D0010C0
:104D6000542A0010542A0010542A0010542A00100B
:104D7000542A0010542A0010542A0010542A0010FB
:104D8000542A0010AC2D0010A62B0010AC2D0010E2
:104D9000F42A0010602B0010F42A0010000000001C
:104DA000000000000000F03F000000000000244070
:104DB00000000000000059400000000000408F404B
:104DC000000000000088C34000000000006AF840B6
:104DD0000000000080842E4100000000D0126341DA
:104DE0000000000084D797410000000065CDCD4150
:104DF00052656C6561736500626F6F74325F773204
:104E00003571303830000000312E352E3100000071
:104E10007069636F000000007069636F5F73746492
:104E2000696F5F746573745F756172740000000070
:104E30004665622032332032303234000600525050
:104E4000D3F07542F04D001006005250E182887F89
:104E5000F84D001006005250BBFF3CB6104E00103B
:104E60000D0A00005541525420737464696E0000AD
:104E700055415254207374646F75740055415254F7
:104E800020737464696E202F207374646F757400CE
:104E90000600525053B4F4A17C4E0010080052504A
:044EA000920000007C
:104EA4003C4E0010484E001088020010544E001072
:104EB40094020010A0020010AC0200109C4E0010DE
:044EC400904E0010FC
:104EC800F0B5C646150000B504001E000268EFF3F1
:104ED800108172B61368002BFCD0BFF35F8F0423D8
:104EE800E356002B2DDB2268BFF35F8F0020106094
:104EF80081F31088D0221206127852B290469A4254
:104F080003D1002080BCB846F0BD00270BE0236821
:104F1800BFF35F8F1F6081F310882800310000F015
:104F280033F80028EDD12268EFF3108172B61368C8
:104F3800002BFCD0BFF35F8F23797F2BE7D9434643
:104F480002E0D0231B061B6823712368BFF35F8F21
:104F580000221A6081F310880120D3E70268EFF37A
:104F6800108172B61368002BFCD0BFF35F8FFF234C
:104F780003710368BFF35F8F00221A6081F3108802
:104F880040BF70477047C04601B40248844601BC20
:104F9800604700BFC50F0010804B0010984B0010F1
:104FA80010000000000000000000010000000000E8
:104FB80000000000000002000000000000000000E7
:104FC8000000030000000000000000000000FF00D7
:104FD8000000000001B5486801318E460047704660
:104FE80009380149884701BD15080010040200204E
:104FF80000000000A8020020DC05002000000000DE
:1050080000000000EC050020000000000000000087
:105018001000000000000000000000000000000078
:10502800503300004C33000054330000523300006A
:105038004D5300004D43000053340000433400003A
:10504800D1460010000000001D470010DD47001089
:105058000000000000010000000000000000000047
:1050680000000000000000005D420010A5340010A0
:0C507800A13B0010CD41001031030010DE
:04000005100001E9FD
:00000001FF
